{
  "_format": "hh-sol-artifact-1",
  "contractName": "DIDRegistry",
  "sourceName": "blockchain/contracts/DIDRegistry.sol",
  "abi": [
    {
      "anonymous": false,
      "inputs": [
        {
          "indexed": true,
          "internalType": "address",
          "name": "user",
          "type": "address"
        },
        {
          "indexed": false,
          "internalType": "string",
          "name": "newCid",
          "type": "string"
        }
      ],
      "name": "CommKeyUpdated",
      "type": "event"
    },
    {
      "anonymous": false,
      "inputs": [
        {
          "indexed": true,
          "internalType": "address",
          "name": "user",
          "type": "address"
        }
      ],
      "name": "DIDRegistered",
      "type": "event"
    },
    {
      "anonymous": false,
      "inputs": [
        {
          "indexed": true,
          "internalType": "address",
          "name": "user",
          "type": "address"
        },
        {
          "indexed": false,
          "internalType": "string",
          "name": "newCid",
          "type": "string"
        }
      ],
      "name": "ProfileUpdated",
      "type": "event"
    },
    {
      "inputs": [
        {
          "internalType": "bytes",
          "name": "challenge",
          "type": "bytes"
        },
        {
          "internalType": "bytes",
          "name": "signature",
          "type": "bytes"
        }
      ],
      "name": "register",
      "outputs": [],
      "stateMutability": "nonpayable",
      "type": "function"
    },
    {
      "inputs": [
        {
          "internalType": "string",
          "name": "cid",
          "type": "string"
        }
      ],
      "name": "setCommPubKeyCID",
      "outputs": [],
      "stateMutability": "nonpayable",
      "type": "function"
    },
    {
      "inputs": [
        {
          "internalType": "string",
          "name": "cid",
          "type": "string"
        }
      ],
      "name": "setProfileCID",
      "outputs": [],
      "stateMutability": "nonpayable",
      "type": "function"
    },
    {
      "inputs": [
        {
          "internalType": "address",
          "name": "",
          "type": "address"
        }
      ],
      "name": "users",
      "outputs": [
        {
          "internalType": "bool",
          "name": "isRegistered",
          "type": "bool"
        },
        {
          "internalType": "string",
          "name": "profileDataCID",
          "type": "string"
        },
        {
          "internalType": "string",
          "name": "commPubKeyCID",
          "type": "string"
        }
      ],
      "stateMutability": "view",
      "type": "function"
    }
  ],
  "bytecode": "0x608060405234801561001057600080fd5b50610b27806100206000396000f3fe608060405234801561001057600080fd5b506004361061004c5760003560e01c80631ae0bcca14610051578063a3747fef14610066578063a75795f014610079578063a87430ba1461008c575b600080fd5b61006461005f3660046106cb565b6100b7565b005b61006461007436600461070d565b610179565b6100646100873660046106cb565b610252565b61009f61009a366004610779565b610303565b6040516100ae939291906107f9565b60405180910390f35b3360009081526020819052604090205460ff166101145760405162461bcd60e51b8152602060048201526016602482015275155cd95c881a5cc81b9bdd081c9959da5cdd195c995960521b60448201526064015b60405180910390fd5b3360009081526020819052604090206002016101318284836108c7565b50336001600160a01b03167f4a762922ceaaeb9ce41abf87e527d813d39a210d31dca8f96ca6dbd684c17c9d838360405161016d929190610987565b60405180910390a25050565b60006101878585858561043a565b90506001600160a01b03811633146101e15760405162461bcd60e51b815260206004820152601960248201527f5369676e6572206d757374206265207468652073656e64657200000000000000604482015260640161010b565b6001600160a01b03811660009081526020819052604090205460ff1661024b576001600160a01b038116600081815260208190526040808220805460ff19166001179055517fc83e4fdcce16b6d634e11c64a47b486038e4f2d69d0cfc5b1584f0db85014d2f9190a25b5050505050565b3360009081526020819052604090205460ff166102aa5760405162461bcd60e51b8152602060048201526016602482015275155cd95c881a5cc81b9bdd081c9959da5cdd195c995960521b604482015260640161010b565b3360009081526020819052604090206001016102c78284836108c7565b50336001600160a01b03167fdd635a4cd84864e37e4479dbfc2ec667acfa473c83c8422a8ac9d9d07599b01c838360405161016d929190610987565b6000602081905290815260409020805460018201805460ff90921692916103299061083c565b80601f01602080910402602001604051908101604052809291908181526020018280546103559061083c565b80156103a25780601f10610377576101008083540402835291602001916103a2565b820191906000526020600020905b81548152906001019060200180831161038557829003601f168201915b5050505050908060020180546103b79061083c565b80601f01602080910402602001604051908101604052809291908181526020018280546103e39061083c565b80156104305780601f1061040557610100808354040283529160200191610430565b820191906000526020600020905b81548152906001019060200180831161041357829003601f168201915b5050505050905083565b60008061044685610579565b868660405160200161045a939291906109b6565b60405160208183030381529060405280519060200120905060006001828686604081811061048a5761048a610a0a565b61049c92013560f81c9050601b610a36565b6104aa60206000898b610a55565b6104b391610a7f565b6104c1604060208a8c610a55565b6104ca91610a7f565b6040805160008152602081018083529590955260ff909316928401929092526060830152608082015260a0016020604051602081039080840390855afa158015610518573d6000803e3d6000fd5b5050604051601f1901519150506001600160a01b03811661056f5760405162461bcd60e51b8152602060048201526011602482015270496e76616c6964207369676e617475726560781b604482015260640161010b565b9695505050505050565b6060816000036105a05750506040805180820190915260018152600360fc1b602082015290565b8160005b81156105ca57806105b481610a9d565b91506105c39050600a83610acc565b91506105a4565b60008167ffffffffffffffff8111156105e5576105e5610826565b6040519080825280601f01601f19166020018201604052801561060f576020820181803683370190505b5090505b841561067a57610624600183610ae0565b9150610631600a86610af3565b61063c906030610b07565b60f81b81838151811061065157610651610a0a565b60200101906001600160f81b031916908160001a905350610673600a86610acc565b9450610613565b949350505050565b60008083601f84011261069457600080fd5b50813567ffffffffffffffff8111156106ac57600080fd5b6020830191508360208285010111156106c457600080fd5b9250929050565b600080602083850312156106de57600080fd5b823567ffffffffffffffff8111156106f557600080fd5b61070185828601610682565b90969095509350505050565b6000806000806040858703121561072357600080fd5b843567ffffffffffffffff8082111561073b57600080fd5b61074788838901610682565b9096509450602087013591508082111561076057600080fd5b5061076d87828801610682565b95989497509550505050565b60006020828403121561078b57600080fd5b81356001600160a01b03811681146107a257600080fd5b9392505050565b60005b838110156107c45781810151838201526020016107ac565b50506000910152565b600081518084526107e58160208601602086016107a9565b601f01601f19169290920160200192915050565b831515815260606020820152600061081460608301856107cd565b828103604084015261056f81856107cd565b634e487b7160e01b600052604160045260246000fd5b600181811c9082168061085057607f821691505b60208210810361087057634e487b7160e01b600052602260045260246000fd5b50919050565b601f8211156108c2576000816000526020600020601f850160051c8101602086101561089f5750805b601f850160051c820191505b818110156108be578281556001016108ab565b5050505b505050565b67ffffffffffffffff8311156108df576108df610826565b6108f3836108ed835461083c565b83610876565b6000601f841160018114610927576000851561090f5750838201355b600019600387901b1c1916600186901b17835561024b565b600083815260209020601f19861690835b828110156109585786850135825560209485019460019092019101610938565b50868210156109755760001960f88860031b161c19848701351681555b505060018560011b0183555050505050565b60208152816020820152818360408301376000818301604090810191909152601f909201601f19160101919050565b7f19457468657265756d205369676e6564204d6573736167653a0a0000000000008152600084516109ee81601a8501602089016107a9565b82018385601a83013760009301601a0192835250909392505050565b634e487b7160e01b600052603260045260246000fd5b634e487b7160e01b600052601160045260246000fd5b60ff8181168382160190811115610a4f57610a4f610a20565b92915050565b60008085851115610a6557600080fd5b83861115610a7257600080fd5b5050820193919092039150565b80356020831015610a4f57600019602084900360031b1b1692915050565b600060018201610aaf57610aaf610a20565b5060010190565b634e487b7160e01b600052601260045260246000fd5b600082610adb57610adb610ab6565b500490565b81810381811115610a4f57610a4f610a20565b600082610b0257610b02610ab6565b500690565b80820180821115610a4f57610a4f610a2056fea164736f6c6343000818000a",
  "linkReferences": {},
  "deployedLinkReferences": {}
}