{
  "_format": "hh-sol-artifact-1",
  "contractName": "UserPublicKeys",
  "sourceName": "blockchain/contracts/UserPublicKeys.sol",
  "abi": [
    {
      "anonymous": false,
      "inputs": [
        {
          "indexed": true,
          "internalType": "string",
          "name": "userId",
          "type": "string"
        },
        {
          "indexed": false,
          "internalType": "string",
          "name": "publicKey",
          "type": "string"
        }
      ],
      "name": "PublicKeySet",
      "type": "event"
    },
    {
      "inputs": [
        {
          "internalType": "string",
          "name": "userId",
          "type": "string"
        }
      ],
      "name": "getPublicKey",
      "outputs": [
        {
          "internalType": "string",
          "name": "",
          "type": "string"
        }
      ],
      "stateMutability": "view",
      "type": "function"
    },
    {
      "inputs": [
        {
          "internalType": "string",
          "name": "userId",
          "type": "string"
        }
      ],
      "name": "publicKeyExists",
      "outputs": [
        {
          "internalType": "bool",
          "name": "",
          "type": "bool"
        }
      ],
      "stateMutability": "view",
      "type": "function"
    },
    {
      "inputs": [
        {
          "internalType": "string",
          "name": "userId",
          "type": "string"
        },
        {
          "internalType": "string",
          "name": "publicKey",
          "type": "string"
        }
      ],
      "name": "setPublicKey",
      "outputs": [],
      "stateMutability": "nonpayable",
      "type": "function"
    }
  ],
  "bytecode": "0x608060405234801561001057600080fd5b5061090b806100206000396000f3fe608060405234801561001057600080fd5b50600436106100415760003560e01c80631e12ba2a1461004657806342ac87cf14610076578063bff9082114610092575b600080fd5b610060600480360381019061005b9190610402565b6100c2565b60405161006d9190610466565b60405180910390f35b610090600480360381019061008b9190610481565b61017b565b005b6100ac60048036038101906100a79190610402565b6101f8565b6040516100b99190610578565b60405180910390f35b6000806000836040516100d591906105d6565b908152602001604051809103902080546100ee9061061c565b80601f016020809104026020016040519081016040528092919081815260200182805461011a9061061c565b80156101675780601f1061013c57610100808354040283529160200191610167565b820191906000526020600020905b81548152906001019060200180831161014a57829003601f168201915b505050505090506000815111915050919050565b8060008360405161018c91906105d6565b908152602001604051809103902090816101a69190610803565b50816040516101b591906105d6565b60405180910390207f7b5314d163f3e3af7f4cdf6e3dc63943d26ded8a179eac3cc99af8b694fc1919826040516101ec9190610578565b60405180910390a25050565b606060008260405161020a91906105d6565b908152602001604051809103902080546102239061061c565b80601f016020809104026020016040519081016040528092919081815260200182805461024f9061061c565b801561029c5780601f106102715761010080835404028352916020019161029c565b820191906000526020600020905b81548152906001019060200180831161027f57829003601f168201915b50505050509050919050565b6000604051905090565b600080fd5b600080fd5b600080fd5b600080fd5b6000601f19601f8301169050919050565b7f4e487b7100000000000000000000000000000000000000000000000000000000600052604160045260246000fd5b61030f826102c6565b810181811067ffffffffffffffff8211171561032e5761032d6102d7565b5b80604052505050565b60006103416102a8565b905061034d8282610306565b919050565b600067ffffffffffffffff82111561036d5761036c6102d7565b5b610376826102c6565b9050602081019050919050565b82818337600083830152505050565b60006103a56103a084610352565b610337565b9050828152602081018484840111156103c1576103c06102c1565b5b6103cc848285610383565b509392505050565b600082601f8301126103e9576103e86102bc565b5b81356103f9848260208601610392565b91505092915050565b600060208284031215610418576104176102b2565b5b600082013567ffffffffffffffff811115610436576104356102b7565b5b610442848285016103d4565b91505092915050565b60008115159050919050565b6104608161044b565b82525050565b600060208201905061047b6000830184610457565b92915050565b60008060408385031215610498576104976102b2565b5b600083013567ffffffffffffffff8111156104b6576104b56102b7565b5b6104c2858286016103d4565b925050602083013567ffffffffffffffff8111156104e3576104e26102b7565b5b6104ef858286016103d4565b9150509250929050565b600081519050919050565b600082825260208201905092915050565b60005b83811015610533578082015181840152602081019050610518565b60008484015250505050565b600061054a826104f9565b6105548185610504565b9350610564818560208601610515565b61056d816102c6565b840191505092915050565b60006020820190508181036000830152610592818461053f565b905092915050565b600081905092915050565b60006105b0826104f9565b6105ba818561059a565b93506105ca818560208601610515565b80840191505092915050565b60006105e282846105a5565b915081905092915050565b7f4e487b7100000000000000000000000000000000000000000000000000000000600052602260045260246000fd5b6000600282049050600182168061063457607f821691505b602082108103610647576106466105ed565b5b50919050565b60008190508160005260206000209050919050565b60006020601f8301049050919050565b600082821b905092915050565b6000600883026106af7fffffffffffffffffffffffffffffffffffffffffffffffffffffffffffffffff82610672565b6106b98683610672565b95508019841693508086168417925050509392505050565b6000819050919050565b6000819050919050565b60006107006106fb6106f6846106d1565b6106db565b6106d1565b9050919050565b6000819050919050565b61071a836106e5565b61072e61072682610707565b84845461067f565b825550505050565b600090565b610743610736565b61074e818484610711565b505050565b5b818110156107725761076760008261073b565b600181019050610754565b5050565b601f8211156107b7576107888161064d565b61079184610662565b810160208510156107a0578190505b6107b46107ac85610662565b830182610753565b50505b505050565b600082821c905092915050565b60006107da600019846008026107bc565b1980831691505092915050565b60006107f383836107c9565b9150826002028217905092915050565b61080c826104f9565b67ffffffffffffffff811115610825576108246102d7565b5b61082f825461061c565b61083a828285610776565b600060209050601f83116001811461086d576000841561085b578287015190505b61086585826107e7565b8655506108cd565b601f19841661087b8661064d565b60005b828110156108a35784890151825560018201915060208501945060208101905061087e565b868310156108c057848901516108bc601f8916826107c9565b8355505b6001600288020188555050505b50505050505056fea264697066735822122010d4b68580aba99f5790cdc2be94fa2d85322bbd67bc12cb2848fb168d8febe264736f6c63430008180033",
  "linkReferences": {},
  "deployedLinkReferences": {}
}