{
  "_format": "hh-sol-artifact-1",
  "contractName": "BlockchainPosts",
  "sourceName": "blockchain/contracts/BlockchainPosts.sol",
  "abi": [
    {
      "inputs": [],
      "stateMutability": "nonpayable",
      "type": "constructor"
    },
    {
      "anonymous": false,
      "inputs": [
        {
          "indexed": false,
          "internalType": "address",
          "name": "newCollector",
          "type": "address"
        }
      ],
      "name": "FeeCollectorChanged",
      "type": "event"
    },
    {
      "anonymous": false,
      "inputs": [
        {
          "indexed": true,
          "internalType": "bytes32",
          "name": "postId",
          "type": "bytes32"
        },
        {
          "indexed": false,
          "internalType": "string",
          "name": "authorDid",
          "type": "string"
        },
        {
          "indexed": false,
          "internalType": "uint256",
          "name": "timestamp",
          "type": "uint256"
        },
        {
          "indexed": false,
          "internalType": "string",
          "name": "visibility",
          "type": "string"
        }
      ],
      "name": "PostCreated",
      "type": "event"
    },
    {
      "anonymous": false,
      "inputs": [
        {
          "indexed": false,
          "internalType": "uint256",
          "name": "newFee",
          "type": "uint256"
        }
      ],
      "name": "PostFeeChanged",
      "type": "event"
    },
    {
      "inputs": [
        {
          "internalType": "uint256",
          "name": "",
          "type": "uint256"
        }
      ],
      "name": "allPostIds",
      "outputs": [
        {
          "internalType": "bytes32",
          "name": "",
          "type": "bytes32"
        }
      ],
      "stateMutability": "view",
      "type": "function"
    },
    {
      "inputs": [
        {
          "internalType": "string",
          "name": "_content",
          "type": "string"
        },
        {
          "internalType": "string",
          "name": "_title",
          "type": "string"
        },
        {
          "internalType": "string",
          "name": "_authorDid",
          "type": "string"
        },
        {
          "internalType": "string",
          "name": "_authorName",
          "type": "string"
        },
        {
          "internalType": "string",
          "name": "_contentType",
          "type": "string"
        },
        {
          "internalType": "string",
          "name": "_visibility",
          "type": "string"
        },
        {
          "internalType": "string",
          "name": "_ipfsCid",
          "type": "string"
        },
        {
          "internalType": "string",
          "name": "_metadata",
          "type": "string"
        }
      ],
      "name": "createPost",
      "outputs": [
        {
          "internalType": "bytes32",
          "name": "postId",
          "type": "bytes32"
        }
      ],
      "stateMutability": "payable",
      "type": "function"
    },
    {
      "inputs": [],
      "name": "feeCollector",
      "outputs": [
        {
          "internalType": "address",
          "name": "",
          "type": "address"
        }
      ],
      "stateMutability": "view",
      "type": "function"
    },
    {
      "inputs": [
        {
          "internalType": "uint256",
          "name": "_offset",
          "type": "uint256"
        },
        {
          "internalType": "uint256",
          "name": "_limit",
          "type": "uint256"
        }
      ],
      "name": "getPaginatedPostIds",
      "outputs": [
        {
          "internalType": "bytes32[]",
          "name": "",
          "type": "bytes32[]"
        }
      ],
      "stateMutability": "view",
      "type": "function"
    },
    {
      "inputs": [
        {
          "internalType": "bytes32",
          "name": "_postId",
          "type": "bytes32"
        }
      ],
      "name": "getPost",
      "outputs": [
        {
          "internalType": "string",
          "name": "content",
          "type": "string"
        },
        {
          "internalType": "string",
          "name": "title",
          "type": "string"
        },
        {
          "internalType": "string",
          "name": "authorDid",
          "type": "string"
        },
        {
          "internalType": "string",
          "name": "authorName",
          "type": "string"
        },
        {
          "internalType": "string",
          "name": "contentType",
          "type": "string"
        },
        {
          "internalType": "uint256",
          "name": "timestamp",
          "type": "uint256"
        },
        {
          "internalType": "string",
          "name": "visibility",
          "type": "string"
        },
        {
          "internalType": "string",
          "name": "ipfsCid",
          "type": "string"
        },
        {
          "internalType": "string",
          "name": "metadata",
          "type": "string"
        }
      ],
      "stateMutability": "view",
      "type": "function"
    },
    {
      "inputs": [],
      "name": "getPostFee",
      "outputs": [
        {
          "internalType": "uint256",
          "name": "",
          "type": "uint256"
        }
      ],
      "stateMutability": "view",
      "type": "function"
    },
    {
      "inputs": [],
      "name": "getTotalPostsCount",
      "outputs": [
        {
          "internalType": "uint256",
          "name": "",
          "type": "uint256"
        }
      ],
      "stateMutability": "view",
      "type": "function"
    },
    {
      "inputs": [
        {
          "internalType": "string",
          "name": "_authorDid",
          "type": "string"
        }
      ],
      "name": "getUserPostIds",
      "outputs": [
        {
          "internalType": "bytes32[]",
          "name": "",
          "type": "bytes32[]"
        }
      ],
      "stateMutability": "view",
      "type": "function"
    },
    {
      "inputs": [],
      "name": "postFee",
      "outputs": [
        {
          "internalType": "uint256",
          "name": "",
          "type": "uint256"
        }
      ],
      "stateMutability": "view",
      "type": "function"
    },
    {
      "inputs": [
        {
          "internalType": "bytes32",
          "name": "",
          "type": "bytes32"
        }
      ],
      "name": "posts",
      "outputs": [
        {
          "internalType": "string",
          "name": "content",
          "type": "string"
        },
        {
          "internalType": "string",
          "name": "title",
          "type": "string"
        },
        {
          "internalType": "string",
          "name": "authorDid",
          "type": "string"
        },
        {
          "internalType": "string",
          "name": "authorName",
          "type": "string"
        },
        {
          "internalType": "string",
          "name": "contentType",
          "type": "string"
        },
        {
          "internalType": "uint256",
          "name": "timestamp",
          "type": "uint256"
        },
        {
          "internalType": "string",
          "name": "visibility",
          "type": "string"
        },
        {
          "internalType": "string",
          "name": "ipfsCid",
          "type": "string"
        },
        {
          "internalType": "string",
          "name": "metadata",
          "type": "string"
        }
      ],
      "stateMutability": "view",
      "type": "function"
    },
    {
      "inputs": [
        {
          "internalType": "address",
          "name": "_newCollector",
          "type": "address"
        }
      ],
      "name": "setFeeCollector",
      "outputs": [],
      "stateMutability": "nonpayable",
      "type": "function"
    },
    {
      "inputs": [
        {
          "internalType": "uint256",
          "name": "_newFee",
          "type": "uint256"
        }
      ],
      "name": "setPostFee",
      "outputs": [],
      "stateMutability": "nonpayable",
      "type": "function"
    },
    {
      "inputs": [
        {
          "internalType": "string",
          "name": "",
          "type": "string"
        },
        {
          "internalType": "uint256",
          "name": "",
          "type": "uint256"
        }
      ],
      "name": "userPosts",
      "outputs": [
        {
          "internalType": "bytes32",
          "name": "",
          "type": "bytes32"
        }
      ],
      "stateMutability": "view",
      "type": "function"
    }
  ],
  "bytecode": "0x608060405266038d7ea4c6800060005534801561001b57600080fd5b5033600160006101000a81548173ffffffffffffffffffffffffffffffffffffffff021916908373ffffffffffffffffffffffffffffffffffffffff1602179055506123ec8061006c6000396000f3fe6080604052600436106100c25760003560e01c8063a42dce801161007f578063c96e33d311610059578063c96e33d31461029b578063d306dbe3146102d8578063dff72dec14610303578063fcf7becf14610348576100c2565b8063a42dce801461020a578063b63a323314610233578063c415b95c14610270576100c2565b8063129d1da0146100c75780631713b5f1146100f257806326eb4ca81461012257806344fe81861461014b57806378f5b9e41461018857806393e43bbe146101c5575b600080fd5b3480156100d357600080fd5b506100dc610373565b6040516100e991906114e7565b60405180910390f35b61010c6004803603810190610107919061165c565b61037c565b604051610119919061180b565b60405180910390f35b34801561012e57600080fd5b5061014960048036038101906101449190611852565b610686565b005b34801561015757600080fd5b50610172600480360381019061016d919061187f565b610757565b60405161017f919061197d565b60405180910390f35b34801561019457600080fd5b506101af60048036038101906101aa919061199f565b61084a565b6040516101bc919061197d565b60405180910390f35b3480156101d157600080fd5b506101ec60048036038101906101e79190611a14565b6108c0565b60405161020199989796959493929190611ac0565b60405180910390f35b34801561021657600080fd5b50610231600480360381019061022c9190611be3565b610e22565b005b34801561023f57600080fd5b5061025a60048036038101906102559190611852565b610f9c565b604051610267919061180b565b60405180910390f35b34801561027c57600080fd5b50610285610fc0565b6040516102929190611c1f565b60405180910390f35b3480156102a757600080fd5b506102c260048036038101906102bd9190611c3a565b610fe6565b6040516102cf919061180b565b60405180910390f35b3480156102e457600080fd5b506102ed61102d565b6040516102fa91906114e7565b60405180910390f35b34801561030f57600080fd5b5061032a60048036038101906103259190611a14565b61103a565b60405161033f99989796959493929190611ac0565b60405180910390f35b34801561035457600080fd5b5061035d6114c8565b60405161036a91906114e7565b60405180910390f35b60008054905090565b6000600160009054906101000a900473ffffffffffffffffffffffffffffffffffffffff1673ffffffffffffffffffffffffffffffffffffffff163373ffffffffffffffffffffffffffffffffffffffff161461041957600054341015610418576040517f08c379a000000000000000000000000000000000000000000000000000000000815260040161040f90611d08565b60405180910390fd5b5b86894260405160200161042e93929190611d85565b60405160208183030381529060405280519060200120905060006040518061012001604052808b81526020018a8152602001898152602001888152602001878152602001428152602001868152602001858152602001848152509050806002600084815260200190815260200160002060008201518160000190816104b39190611fc6565b5060208201518160010190816104c99190611fc6565b5060408201518160020190816104df9190611fc6565b5060608201518160030190816104f59190611fc6565b50608082015181600401908161050b9190611fc6565b5060a0820151816005015560c082015181600601908161052b9190611fc6565b5060e08201518160070190816105419190611fc6565b506101008201518160080190816105589190611fc6565b5090505060038860405161056c9190612098565b90815260200160405180910390208290806001815401808255809150506001900390600052602060002001600090919091909150556004829080600181540180825580915050600190039060005260206000200160009091909190915055600034111561063d57600160009054906101000a900473ffffffffffffffffffffffffffffffffffffffff1673ffffffffffffffffffffffffffffffffffffffff166108fc349081150290604051600060405180830381858888f1935050505015801561063b573d6000803e3d6000fd5b505b817ff37b6892ce726ab6fa4e9d8b8f04b6f2c0a330bf9a828024320e5f2024b39003894288604051610671939291906120af565b60405180910390a25098975050505050505050565b600160009054906101000a900473ffffffffffffffffffffffffffffffffffffffff1673ffffffffffffffffffffffffffffffffffffffff163373ffffffffffffffffffffffffffffffffffffffff1614610716576040517f08c379a000000000000000000000000000000000000000000000000000000000815260040161070d90612166565b60405180910390fd5b806000819055507ff5ade3bd766f584efc1a0caaceb1d7b9515b0396d116362baae692997067dddb8160405161074c91906114e7565b60405180910390a150565b60606000828461076791906121b5565b905060048054905081111561077f5760048054905090505b6000848261078d91906121e9565b905060008167ffffffffffffffff8111156107ab576107aa611531565b5b6040519080825280602002602001820160405280156107d95781602001602082028036833780820191505090505b50905060005b8281101561083d57600481886107f591906121b5565b815481106108065761080561221d565b5b90600052602060002001548282815181106108245761082361221d565b5b60200260200101818152505080806001019150506107df565b5080935050505092915050565b606060038260405161085c9190612098565b90815260200160405180910390208054806020026020016040519081016040528092919081815260200182805480156108b457602002820191906000526020600020905b8154815260200190600101908083116108a0575b50505050509050919050565b6060806060806060600060608060606000600260008c81526020019081526020016000206040518061012001604052908160008201805461090090611de9565b80601f016020809104026020016040519081016040528092919081815260200182805461092c90611de9565b80156109795780601f1061094e57610100808354040283529160200191610979565b820191906000526020600020905b81548152906001019060200180831161095c57829003601f168201915b5050505050815260200160018201805461099290611de9565b80601f01602080910402602001604051908101604052809291908181526020018280546109be90611de9565b8015610a0b5780601f106109e057610100808354040283529160200191610a0b565b820191906000526020600020905b8154815290600101906020018083116109ee57829003601f168201915b50505050508152602001600282018054610a2490611de9565b80601f0160208091040260200160405190810160405280929190818152602001828054610a5090611de9565b8015610a9d5780601f10610a7257610100808354040283529160200191610a9d565b820191906000526020600020905b815481529060010190602001808311610a8057829003601f168201915b50505050508152602001600382018054610ab690611de9565b80601f0160208091040260200160405190810160405280929190818152602001828054610ae290611de9565b8015610b2f5780601f10610b0457610100808354040283529160200191610b2f565b820191906000526020600020905b815481529060010190602001808311610b1257829003601f168201915b50505050508152602001600482018054610b4890611de9565b80601f0160208091040260200160405190810160405280929190818152602001828054610b7490611de9565b8015610bc15780601f10610b9657610100808354040283529160200191610bc1565b820191906000526020600020905b815481529060010190602001808311610ba457829003601f168201915b5050505050815260200160058201548152602001600682018054610be490611de9565b80601f0160208091040260200160405190810160405280929190818152602001828054610c1090611de9565b8015610c5d5780601f10610c3257610100808354040283529160200191610c5d565b820191906000526020600020905b815481529060010190602001808311610c4057829003601f168201915b50505050508152602001600782018054610c7690611de9565b80601f0160208091040260200160405190810160405280929190818152602001828054610ca290611de9565b8015610cef5780601f10610cc457610100808354040283529160200191610cef565b820191906000526020600020905b815481529060010190602001808311610cd257829003601f168201915b50505050508152602001600882018054610d0890611de9565b80601f0160208091040260200160405190810160405280929190818152602001828054610d3490611de9565b8015610d815780601f10610d5657610100808354040283529160200191610d81565b820191906000526020600020905b815481529060010190602001808311610d6457829003601f168201915b5050505050815250509050600081604001515111610dd4576040517f08c379a0000000000000000000000000000000000000000000000000000000008152600401610dcb90612298565b60405180910390fd5b806000015181602001518260400151836060015184608001518560a001518660c001518760e00151886101000151995099509950995099509950995099509950509193959799909294969850565b600160009054906101000a900473ffffffffffffffffffffffffffffffffffffffff1673ffffffffffffffffffffffffffffffffffffffff163373ffffffffffffffffffffffffffffffffffffffff1614610eb2576040517f08c379a0000000000000000000000000000000000000000000000000000000008152600401610ea99061232a565b60405180910390fd5b600073ffffffffffffffffffffffffffffffffffffffff168173ffffffffffffffffffffffffffffffffffffffff1603610f21576040517f08c379a0000000000000000000000000000000000000000000000000000000008152600401610f1890612396565b60405180910390fd5b80600160006101000a81548173ffffffffffffffffffffffffffffffffffffffff021916908373ffffffffffffffffffffffffffffffffffffffff1602179055507f9c1996a14d26c3ecd833c10222d012447ef07b09b15000f3a34318ff039c0bdc81604051610f919190611c1f565b60405180910390a150565b60048181548110610fac57600080fd5b906000526020600020016000915090505481565b600160009054906101000a900473ffffffffffffffffffffffffffffffffffffffff1681565b600382805160208101820180518482526020830160208501208183528095505050505050818154811061101857600080fd5b90600052602060002001600091509150505481565b6000600480549050905090565b600260205280600052604060002060009150905080600001805461105d90611de9565b80601f016020809104026020016040519081016040528092919081815260200182805461108990611de9565b80156110d65780601f106110ab576101008083540402835291602001916110d6565b820191906000526020600020905b8154815290600101906020018083116110b957829003601f168201915b5050505050908060010180546110eb90611de9565b80601f016020809104026020016040519081016040528092919081815260200182805461111790611de9565b80156111645780601f1061113957610100808354040283529160200191611164565b820191906000526020600020905b81548152906001019060200180831161114757829003601f168201915b50505050509080600201805461117990611de9565b80601f01602080910402602001604051908101604052809291908181526020018280546111a590611de9565b80156111f25780601f106111c7576101008083540402835291602001916111f2565b820191906000526020600020905b8154815290600101906020018083116111d557829003601f168201915b50505050509080600301805461120790611de9565b80601f016020809104026020016040519081016040528092919081815260200182805461123390611de9565b80156112805780601f1061125557610100808354040283529160200191611280565b820191906000526020600020905b81548152906001019060200180831161126357829003601f168201915b50505050509080600401805461129590611de9565b80601f01602080910402602001604051908101604052809291908181526020018280546112c190611de9565b801561130e5780601f106112e35761010080835404028352916020019161130e565b820191906000526020600020905b8154815290600101906020018083116112f157829003601f168201915b50505050509080600501549080600601805461132990611de9565b80601f016020809104026020016040519081016040528092919081815260200182805461135590611de9565b80156113a25780601f10611377576101008083540402835291602001916113a2565b820191906000526020600020905b81548152906001019060200180831161138557829003601f168201915b5050505050908060070180546113b790611de9565b80601f01602080910402602001604051908101604052809291908181526020018280546113e390611de9565b80156114305780601f1061140557610100808354040283529160200191611430565b820191906000526020600020905b81548152906001019060200180831161141357829003601f168201915b50505050509080600801805461144590611de9565b80601f016020809104026020016040519081016040528092919081815260200182805461147190611de9565b80156114be5780601f10611493576101008083540402835291602001916114be565b820191906000526020600020905b8154815290600101906020018083116114a157829003601f168201915b5050505050905089565b60005481565b6000819050919050565b6114e1816114ce565b82525050565b60006020820190506114fc60008301846114d8565b92915050565b6000604051905090565b600080fd5b600080fd5b600080fd5b600080fd5b6000601f19601f8301169050919050565b7f4e487b7100000000000000000000000000000000000000000000000000000000600052604160045260246000fd5b61156982611520565b810181811067ffffffffffffffff8211171561158857611587611531565b5b80604052505050565b600061159b611502565b90506115a78282611560565b919050565b600067ffffffffffffffff8211156115c7576115c6611531565b5b6115d082611520565b9050602081019050919050565b82818337600083830152505050565b60006115ff6115fa846115ac565b611591565b90508281526020810184848401111561161b5761161a61151b565b5b6116268482856115dd565b509392505050565b600082601f83011261164357611642611516565b5b81356116538482602086016115ec565b91505092915050565b600080600080600080600080610100898b03121561167d5761167c61150c565b5b600089013567ffffffffffffffff81111561169b5761169a611511565b5b6116a78b828c0161162e565b985050602089013567ffffffffffffffff8111156116c8576116c7611511565b5b6116d48b828c0161162e565b975050604089013567ffffffffffffffff8111156116f5576116f4611511565b5b6117018b828c0161162e565b965050606089013567ffffffffffffffff81111561172257611721611511565b5b61172e8b828c0161162e565b955050608089013567ffffffffffffffff81111561174f5761174e611511565b5b61175b8b828c0161162e565b94505060a089013567ffffffffffffffff81111561177c5761177b611511565b5b6117888b828c0161162e565b93505060c089013567ffffffffffffffff8111156117a9576117a8611511565b5b6117b58b828c0161162e565b92505060e089013567ffffffffffffffff8111156117d6576117d5611511565b5b6117e28b828c0161162e565b9150509295985092959890939650565b6000819050919050565b611805816117f2565b82525050565b600060208201905061182060008301846117fc565b92915050565b61182f816114ce565b811461183a57600080fd5b50565b60008135905061184c81611826565b92915050565b6000602082840312156118685761186761150c565b5b60006118768482850161183d565b91505092915050565b600080604083850312156118965761189561150c565b5b60006118a48582860161183d565b92505060206118b58582860161183d565b9150509250929050565b600081519050919050565b600082825260208201905092915050565b6000819050602082019050919050565b6118f4816117f2565b82525050565b600061190683836118eb565b60208301905092915050565b6000602082019050919050565b600061192a826118bf565b61193481856118ca565b935061193f836118db565b8060005b8381101561197057815161195788826118fa565b975061196283611912565b925050600181019050611943565b5085935050505092915050565b60006020820190508181036000830152611997818461191f565b905092915050565b6000602082840312156119b5576119b461150c565b5b600082013567ffffffffffffffff8111156119d3576119d2611511565b5b6119df8482850161162e565b91505092915050565b6119f1816117f2565b81146119fc57600080fd5b50565b600081359050611a0e816119e8565b92915050565b600060208284031215611a2a57611a2961150c565b5b6000611a38848285016119ff565b91505092915050565b600081519050919050565b600082825260208201905092915050565b60005b83811015611a7b578082015181840152602081019050611a60565b60008484015250505050565b6000611a9282611a41565b611a9c8185611a4c565b9350611aac818560208601611a5d565b611ab581611520565b840191505092915050565b6000610120820190508181036000830152611adb818c611a87565b90508181036020830152611aef818b611a87565b90508181036040830152611b03818a611a87565b90508181036060830152611b178189611a87565b90508181036080830152611b2b8188611a87565b9050611b3a60a08301876114d8565b81810360c0830152611b4c8186611a87565b905081810360e0830152611b608185611a87565b9050818103610100830152611b758184611a87565b90509a9950505050505050505050565b600073ffffffffffffffffffffffffffffffffffffffff82169050919050565b6000611bb082611b85565b9050919050565b611bc081611ba5565b8114611bcb57600080fd5b50565b600081359050611bdd81611bb7565b92915050565b600060208284031215611bf957611bf861150c565b5b6000611c0784828501611bce565b91505092915050565b611c1981611ba5565b82525050565b6000602082019050611c346000830184611c10565b92915050565b60008060408385031215611c5157611c5061150c565b5b600083013567ffffffffffffffff811115611c6f57611c6e611511565b5b611c7b8582860161162e565b9250506020611c8c8582860161183d565b9150509250929050565b7f496e73756666696369656e742066656520666f7220626c6f636b636861696e2060008201527f706f737400000000000000000000000000000000000000000000000000000000602082015250565b6000611cf2602483611a4c565b9150611cfd82611c96565b604082019050919050565b60006020820190508181036000830152611d2181611ce5565b9050919050565b600081905092915050565b6000611d3e82611a41565b611d488185611d28565b9350611d58818560208601611a5d565b80840191505092915050565b6000819050919050565b611d7f611d7a826114ce565b611d64565b82525050565b6000611d918286611d33565b9150611d9d8285611d33565b9150611da98284611d6e565b602082019150819050949350505050565b7f4e487b7100000000000000000000000000000000000000000000000000000000600052602260045260246000fd5b60006002820490506001821680611e0157607f821691505b602082108103611e1457611e13611dba565b5b50919050565b60008190508160005260206000209050919050565b60006020601f8301049050919050565b600082821b905092915050565b600060088302611e7c7fffffffffffffffffffffffffffffffffffffffffffffffffffffffffffffffff82611e3f565b611e868683611e3f565b95508019841693508086168417925050509392505050565b6000819050919050565b6000611ec3611ebe611eb9846114ce565b611e9e565b6114ce565b9050919050565b6000819050919050565b611edd83611ea8565b611ef1611ee982611eca565b848454611e4c565b825550505050565b600090565b611f06611ef9565b611f11818484611ed4565b505050565b5b81811015611f3557611f2a600082611efe565b600181019050611f17565b5050565b601f821115611f7a57611f4b81611e1a565b611f5484611e2f565b81016020851015611f63578190505b611f77611f6f85611e2f565b830182611f16565b50505b505050565b600082821c905092915050565b6000611f9d60001984600802611f7f565b1980831691505092915050565b6000611fb68383611f8c565b9150826002028217905092915050565b611fcf82611a41565b67ffffffffffffffff811115611fe857611fe7611531565b5b611ff28254611de9565b611ffd828285611f39565b600060209050601f831160018114612030576000841561201e578287015190505b6120288582611faa565b865550612090565b601f19841661203e86611e1a565b60005b8281101561206657848901518255600182019150602085019450602081019050612041565b86831015612083578489015161207f601f891682611f8c565b8355505b6001600288020188555050505b505050505050565b60006120a48284611d33565b915081905092915050565b600060608201905081810360008301526120c98186611a87565b90506120d860208301856114d8565b81810360408301526120ea8184611a87565b9050949350505050565b7f4f6e6c792066656520636f6c6c6563746f722063616e206368616e676520746860008201527f6520666565000000000000000000000000000000000000000000000000000000602082015250565b6000612150602583611a4c565b915061215b826120f4565b604082019050919050565b6000602082019050818103600083015261217f81612143565b9050919050565b7f4e487b7100000000000000000000000000000000000000000000000000000000600052601160045260246000fd5b60006121c0826114ce565b91506121cb836114ce565b92508282019050808211156121e3576121e2612186565b5b92915050565b60006121f4826114ce565b91506121ff836114ce565b925082820390508181111561221757612216612186565b5b92915050565b7f4e487b7100000000000000000000000000000000000000000000000000000000600052603260045260246000fd5b7f506f737420646f6573206e6f7420657869737400000000000000000000000000600082015250565b6000612282601383611a4c565b915061228d8261224c565b602082019050919050565b600060208201905081810360008301526122b181612275565b9050919050565b7f4f6e6c792066656520636f6c6c6563746f722063616e207472616e736665722060008201527f7468697320726f6c650000000000000000000000000000000000000000000000602082015250565b6000612314602983611a4c565b915061231f826122b8565b604082019050919050565b6000602082019050818103600083015261234381612307565b9050919050565b7f43616e6e6f742073657420746f207a65726f2061646472657373000000000000600082015250565b6000612380601a83611a4c565b915061238b8261234a565b602082019050919050565b600060208201905081810360008301526123af81612373565b905091905056fea264697066735822122020cecd91ce4b6fbe9f91f628e97e89ed6ae71b7b25ce2f06b4a1e654d21b4cb264736f6c63430008180033",
  "linkReferences": {},
  "deployedLinkReferences": {}
}