{
  "_format": "hh-sol-artifact-1",
  "contractName": "BlockchainPosts",
  "sourceName": "blockchain/contracts/BlockchainPosts.sol",
  "abi": [
    {
      "inputs": [],
      "stateMutability": "nonpayable",
      "type": "constructor"
    },
    {
      "anonymous": false,
      "inputs": [
        {
          "indexed": true,
          "internalType": "bytes32",
          "name": "postId",
          "type": "bytes32"
        },
        {
          "indexed": false,
          "internalType": "uint256",
          "name": "donationAmount",
          "type": "uint256"
        }
      ],
      "name": "DonationReceived",
      "type": "event"
    },
    {
      "anonymous": false,
      "inputs": [
        {
          "indexed": false,
          "internalType": "address",
          "name": "newCollector",
          "type": "address"
        }
      ],
      "name": "FeeCollectorChanged",
      "type": "event"
    },
    {
      "anonymous": false,
      "inputs": [
        {
          "indexed": true,
          "internalType": "bytes32",
          "name": "postId",
          "type": "bytes32"
        },
        {
          "indexed": false,
          "internalType": "string",
          "name": "authorDid",
          "type": "string"
        },
        {
          "indexed": false,
          "internalType": "uint256",
          "name": "timestamp",
          "type": "uint256"
        },
        {
          "indexed": false,
          "internalType": "string",
          "name": "visibility",
          "type": "string"
        },
        {
          "indexed": false,
          "internalType": "uint256",
          "name": "donation",
          "type": "uint256"
        }
      ],
      "name": "PostCreated",
      "type": "event"
    },
    {
      "anonymous": false,
      "inputs": [
        {
          "indexed": false,
          "internalType": "uint256",
          "name": "newFee",
          "type": "uint256"
        }
      ],
      "name": "PostFeeChanged",
      "type": "event"
    },
    {
      "inputs": [
        {
          "internalType": "uint256",
          "name": "",
          "type": "uint256"
        }
      ],
      "name": "allPostIds",
      "outputs": [
        {
          "internalType": "bytes32",
          "name": "",
          "type": "bytes32"
        }
      ],
      "stateMutability": "view",
      "type": "function"
    },
    {
      "inputs": [],
      "name": "contractCreator",
      "outputs": [
        {
          "internalType": "address",
          "name": "",
          "type": "address"
        }
      ],
      "stateMutability": "view",
      "type": "function"
    },
    {
      "inputs": [
        {
          "internalType": "string",
          "name": "_content",
          "type": "string"
        },
        {
          "internalType": "string",
          "name": "_title",
          "type": "string"
        },
        {
          "internalType": "string",
          "name": "_authorDid",
          "type": "string"
        },
        {
          "internalType": "string",
          "name": "_authorName",
          "type": "string"
        },
        {
          "internalType": "string",
          "name": "_contentType",
          "type": "string"
        },
        {
          "internalType": "string",
          "name": "_visibility",
          "type": "string"
        },
        {
          "internalType": "string",
          "name": "_ipfsCid",
          "type": "string"
        },
        {
          "internalType": "string",
          "name": "_metadata",
          "type": "string"
        }
      ],
      "name": "createPost",
      "outputs": [
        {
          "internalType": "bytes32",
          "name": "postId",
          "type": "bytes32"
        }
      ],
      "stateMutability": "payable",
      "type": "function"
    },
    {
      "inputs": [],
      "name": "feeCollector",
      "outputs": [
        {
          "internalType": "address",
          "name": "",
          "type": "address"
        }
      ],
      "stateMutability": "view",
      "type": "function"
    },
    {
      "inputs": [],
      "name": "getContractCreator",
      "outputs": [
        {
          "internalType": "address",
          "name": "",
          "type": "address"
        }
      ],
      "stateMutability": "view",
      "type": "function"
    },
    {
      "inputs": [
        {
          "internalType": "uint256",
          "name": "_offset",
          "type": "uint256"
        },
        {
          "internalType": "uint256",
          "name": "_limit",
          "type": "uint256"
        }
      ],
      "name": "getPaginatedPostIds",
      "outputs": [
        {
          "internalType": "bytes32[]",
          "name": "",
          "type": "bytes32[]"
        }
      ],
      "stateMutability": "view",
      "type": "function"
    },
    {
      "inputs": [
        {
          "internalType": "bytes32",
          "name": "_postId",
          "type": "bytes32"
        }
      ],
      "name": "getPost",
      "outputs": [
        {
          "internalType": "string",
          "name": "content",
          "type": "string"
        },
        {
          "internalType": "string",
          "name": "title",
          "type": "string"
        },
        {
          "internalType": "string",
          "name": "authorDid",
          "type": "string"
        },
        {
          "internalType": "string",
          "name": "authorName",
          "type": "string"
        },
        {
          "internalType": "string",
          "name": "contentType",
          "type": "string"
        },
        {
          "internalType": "uint256",
          "name": "timestamp",
          "type": "uint256"
        },
        {
          "internalType": "string",
          "name": "visibility",
          "type": "string"
        },
        {
          "internalType": "string",
          "name": "ipfsCid",
          "type": "string"
        },
        {
          "internalType": "string",
          "name": "metadata",
          "type": "string"
        },
        {
          "internalType": "uint256",
          "name": "donation",
          "type": "uint256"
        }
      ],
      "stateMutability": "view",
      "type": "function"
    },
    {
      "inputs": [],
      "name": "getPostFee",
      "outputs": [
        {
          "internalType": "uint256",
          "name": "",
          "type": "uint256"
        }
      ],
      "stateMutability": "view",
      "type": "function"
    },
    {
      "inputs": [],
      "name": "getTotalPostsCount",
      "outputs": [
        {
          "internalType": "uint256",
          "name": "",
          "type": "uint256"
        }
      ],
      "stateMutability": "view",
      "type": "function"
    },
    {
      "inputs": [
        {
          "internalType": "string",
          "name": "_authorDid",
          "type": "string"
        }
      ],
      "name": "getUserPostIds",
      "outputs": [
        {
          "internalType": "bytes32[]",
          "name": "",
          "type": "bytes32[]"
        }
      ],
      "stateMutability": "view",
      "type": "function"
    },
    {
      "inputs": [],
      "name": "postFee",
      "outputs": [
        {
          "internalType": "uint256",
          "name": "",
          "type": "uint256"
        }
      ],
      "stateMutability": "view",
      "type": "function"
    },
    {
      "inputs": [
        {
          "internalType": "bytes32",
          "name": "",
          "type": "bytes32"
        }
      ],
      "name": "posts",
      "outputs": [
        {
          "internalType": "string",
          "name": "content",
          "type": "string"
        },
        {
          "internalType": "string",
          "name": "title",
          "type": "string"
        },
        {
          "internalType": "string",
          "name": "authorDid",
          "type": "string"
        },
        {
          "internalType": "string",
          "name": "authorName",
          "type": "string"
        },
        {
          "internalType": "string",
          "name": "contentType",
          "type": "string"
        },
        {
          "internalType": "uint256",
          "name": "timestamp",
          "type": "uint256"
        },
        {
          "internalType": "string",
          "name": "visibility",
          "type": "string"
        },
        {
          "internalType": "string",
          "name": "ipfsCid",
          "type": "string"
        },
        {
          "internalType": "string",
          "name": "metadata",
          "type": "string"
        },
        {
          "internalType": "uint256",
          "name": "donation",
          "type": "uint256"
        }
      ],
      "stateMutability": "view",
      "type": "function"
    },
    {
      "inputs": [
        {
          "internalType": "address",
          "name": "_newCollector",
          "type": "address"
        }
      ],
      "name": "setFeeCollector",
      "outputs": [],
      "stateMutability": "nonpayable",
      "type": "function"
    },
    {
      "inputs": [
        {
          "internalType": "uint256",
          "name": "_newFee",
          "type": "uint256"
        }
      ],
      "name": "setPostFee",
      "outputs": [],
      "stateMutability": "nonpayable",
      "type": "function"
    },
    {
      "inputs": [
        {
          "internalType": "string",
          "name": "",
          "type": "string"
        },
        {
          "internalType": "uint256",
          "name": "",
          "type": "uint256"
        }
      ],
      "name": "userPosts",
      "outputs": [
        {
          "internalType": "bytes32",
          "name": "",
          "type": "bytes32"
        }
      ],
      "stateMutability": "view",
      "type": "function"
    }
  ],
  "bytecode": "0x608060405266038d7ea4c6800060005534801561001b57600080fd5b5033600160006101000a81548173ffffffffffffffffffffffffffffffffffffffff021916908373ffffffffffffffffffffffffffffffffffffffff16021790555033600260006101000a81548173ffffffffffffffffffffffffffffffffffffffff021916908373ffffffffffffffffffffffffffffffffffffffff16021790555061263b806100ad6000396000f3fe6080604052600436106100e85760003560e01c806393e43bbe1161008a578063c96e33d311610059578063c96e33d314610318578063d306dbe314610355578063dff72dec14610380578063fcf7becf146103c6576100e8565b806393e43bbe14610241578063a42dce8014610287578063b63a3233146102b0578063c415b95c146102ed576100e8565b80631e2f73b1116100c65780631e2f73b11461017357806326eb4ca81461019e57806344fe8186146101c757806378f5b9e414610204576100e8565b80630e258726146100ed578063129d1da0146101185780631713b5f114610143575b600080fd5b3480156100f957600080fd5b506101026103f1565b60405161010f9190611741565b60405180910390f35b34801561012457600080fd5b5061012d61041b565b60405161013a9190611775565b60405180910390f35b61015d600480360381019061015891906118ea565b610424565b60405161016a9190611a99565b60405180910390f35b34801561017f57600080fd5b50610188610879565b6040516101959190611741565b60405180910390f35b3480156101aa57600080fd5b506101c560048036038101906101c09190611ae0565b61089f565b005b3480156101d357600080fd5b506101ee60048036038101906101e99190611b0d565b610970565b6040516101fb9190611c0b565b60405180910390f35b34801561021057600080fd5b5061022b60048036038101906102269190611c2d565b610a63565b6040516102389190611c0b565b60405180910390f35b34801561024d57600080fd5b5061026860048036038101906102639190611ca2565b610ad9565b60405161027e9a99989796959493929190611d4e565b60405180910390f35b34801561029357600080fd5b506102ae60048036038101906102a99190611e4e565b61104e565b005b3480156102bc57600080fd5b506102d760048036038101906102d29190611ae0565b6111c8565b6040516102e49190611a99565b60405180910390f35b3480156102f957600080fd5b506103026111ec565b60405161030f9190611741565b60405180910390f35b34801561032457600080fd5b5061033f600480360381019061033a9190611e7b565b611212565b60405161034c9190611a99565b60405180910390f35b34801561036157600080fd5b5061036a611259565b6040516103779190611775565b60405180910390f35b34801561038c57600080fd5b506103a760048036038101906103a29190611ca2565b611266565b6040516103bd9a99989796959493929190611d4e565b60405180910390f35b3480156103d257600080fd5b506103db6116fa565b6040516103e89190611775565b60405180910390f35b6000600260009054906101000a900473ffffffffffffffffffffffffffffffffffffffff16905090565b60008054905090565b6000600160009054906101000a900473ffffffffffffffffffffffffffffffffffffffff1673ffffffffffffffffffffffffffffffffffffffff163373ffffffffffffffffffffffffffffffffffffffff16146104c1576000543410156104c0576040517f08c379a00000000000000000000000000000000000000000000000000000000081526004016104b790611f49565b60405180910390fd5b5b8689426040516020016104d693929190611fc6565b6040516020818303038152906040528051906020012090506000805434111561050a5760005434610507919061202a565b90505b60006040518061014001604052808c81526020018b81526020018a81526020018981526020018881526020014281526020018781526020018681526020018581526020018381525090508060036000858152602001908152602001600020600082015181600001908161057d919061226a565b506020820151816001019081610593919061226a565b5060408201518160020190816105a9919061226a565b5060608201518160030190816105bf919061226a565b5060808201518160040190816105d5919061226a565b5060a0820151816005015560c08201518160060190816105f5919061226a565b5060e082015181600701908161060b919061226a565b50610100820151816008019081610622919061226a565b506101208201518160090155905050600489604051610641919061233c565b90815260200160405180910390208390806001815401808255809150506001900390600052602060002001600090919091909150556005839080600181540180825580915050600190039060005260206000200160009091909190915055600034111561082d5760008211156107c257600160009054906101000a900473ffffffffffffffffffffffffffffffffffffffff1673ffffffffffffffffffffffffffffffffffffffff166108fc6000549081150290604051600060405180830381858888f1935050505015801561071b573d6000803e3d6000fd5b50600260009054906101000a900473ffffffffffffffffffffffffffffffffffffffff1673ffffffffffffffffffffffffffffffffffffffff166108fc839081150290604051600060405180830381858888f19350505050158015610784573d6000803e3d6000fd5b50827fd3a410e45be11b81484276e5307191f9c43f87427c288ee34270bb56a1dae2d7836040516107b59190611775565b60405180910390a261082c565b600160009054906101000a900473ffffffffffffffffffffffffffffffffffffffff1673ffffffffffffffffffffffffffffffffffffffff166108fc349081150290604051600060405180830381858888f1935050505015801561082a573d6000803e3d6000fd5b505b5b827f5946118e2d0440f4418e6032a734c048e6c4809fd514ef62b1dc993779d0c03f8a4289866040516108639493929190612353565b60405180910390a2505098975050505050505050565b600260009054906101000a900473ffffffffffffffffffffffffffffffffffffffff1681565b600160009054906101000a900473ffffffffffffffffffffffffffffffffffffffff1673ffffffffffffffffffffffffffffffffffffffff163373ffffffffffffffffffffffffffffffffffffffff161461092f576040517f08c379a000000000000000000000000000000000000000000000000000000000815260040161092690612418565b60405180910390fd5b806000819055507ff5ade3bd766f584efc1a0caaceb1d7b9515b0396d116362baae692997067dddb816040516109659190611775565b60405180910390a150565b6060600082846109809190612438565b90506005805490508111156109985760058054905090505b600084826109a6919061202a565b905060008167ffffffffffffffff8111156109c4576109c36117bf565b5b6040519080825280602002602001820160405280156109f25781602001602082028036833780820191505090505b50905060005b82811015610a565760058188610a0e9190612438565b81548110610a1f57610a1e61246c565b5b9060005260206000200154828281518110610a3d57610a3c61246c565b5b60200260200101818152505080806001019150506109f8565b5080935050505092915050565b6060600482604051610a75919061233c565b9081526020016040518091039020805480602002602001604051908101604052809291908181526020018280548015610acd57602002820191906000526020600020905b815481526020019060010190808311610ab9575b50505050509050919050565b606080606080606060006060806060600080600360008d815260200190815260200160002060405180610140016040529081600082018054610b1a9061208d565b80601f0160208091040260200160405190810160405280929190818152602001828054610b469061208d565b8015610b935780601f10610b6857610100808354040283529160200191610b93565b820191906000526020600020905b815481529060010190602001808311610b7657829003601f168201915b50505050508152602001600182018054610bac9061208d565b80601f0160208091040260200160405190810160405280929190818152602001828054610bd89061208d565b8015610c255780601f10610bfa57610100808354040283529160200191610c25565b820191906000526020600020905b815481529060010190602001808311610c0857829003601f168201915b50505050508152602001600282018054610c3e9061208d565b80601f0160208091040260200160405190810160405280929190818152602001828054610c6a9061208d565b8015610cb75780601f10610c8c57610100808354040283529160200191610cb7565b820191906000526020600020905b815481529060010190602001808311610c9a57829003601f168201915b50505050508152602001600382018054610cd09061208d565b80601f0160208091040260200160405190810160405280929190818152602001828054610cfc9061208d565b8015610d495780601f10610d1e57610100808354040283529160200191610d49565b820191906000526020600020905b815481529060010190602001808311610d2c57829003601f168201915b50505050508152602001600482018054610d629061208d565b80601f0160208091040260200160405190810160405280929190818152602001828054610d8e9061208d565b8015610ddb5780601f10610db057610100808354040283529160200191610ddb565b820191906000526020600020905b815481529060010190602001808311610dbe57829003601f168201915b5050505050815260200160058201548152602001600682018054610dfe9061208d565b80601f0160208091040260200160405190810160405280929190818152602001828054610e2a9061208d565b8015610e775780601f10610e4c57610100808354040283529160200191610e77565b820191906000526020600020905b815481529060010190602001808311610e5a57829003601f168201915b50505050508152602001600782018054610e909061208d565b80601f0160208091040260200160405190810160405280929190818152602001828054610ebc9061208d565b8015610f095780601f10610ede57610100808354040283529160200191610f09565b820191906000526020600020905b815481529060010190602001808311610eec57829003601f168201915b50505050508152602001600882018054610f229061208d565b80601f0160208091040260200160405190810160405280929190818152602001828054610f4e9061208d565b8015610f9b5780601f10610f7057610100808354040283529160200191610f9b565b820191906000526020600020905b815481529060010190602001808311610f7e57829003601f168201915b505050505081526020016009820154815250509050600081604001515111610ff8576040517f08c379a0000000000000000000000000000000000000000000000000000000008152600401610fef906124e7565b60405180910390fd5b806000015181602001518260400151836060015184608001518560a001518660c001518760e001518861010001518961012001519a509a509a509a509a509a509a509a509a509a50509193959799509193959799565b600160009054906101000a900473ffffffffffffffffffffffffffffffffffffffff1673ffffffffffffffffffffffffffffffffffffffff163373ffffffffffffffffffffffffffffffffffffffff16146110de576040517f08c379a00000000000000000000000000000000000000000000000000000000081526004016110d590612579565b60405180910390fd5b600073ffffffffffffffffffffffffffffffffffffffff168173ffffffffffffffffffffffffffffffffffffffff160361114d576040517f08c379a0000000000000000000000000000000000000000000000000000000008152600401611144906125e5565b60405180910390fd5b80600160006101000a81548173ffffffffffffffffffffffffffffffffffffffff021916908373ffffffffffffffffffffffffffffffffffffffff1602179055507f9c1996a14d26c3ecd833c10222d012447ef07b09b15000f3a34318ff039c0bdc816040516111bd9190611741565b60405180910390a150565b600581815481106111d857600080fd5b906000526020600020016000915090505481565b600160009054906101000a900473ffffffffffffffffffffffffffffffffffffffff1681565b600482805160208101820180518482526020830160208501208183528095505050505050818154811061124457600080fd5b90600052602060002001600091509150505481565b6000600580549050905090565b60036020528060005260406000206000915090508060000180546112899061208d565b80601f01602080910402602001604051908101604052809291908181526020018280546112b59061208d565b80156113025780601f106112d757610100808354040283529160200191611302565b820191906000526020600020905b8154815290600101906020018083116112e557829003601f168201915b5050505050908060010180546113179061208d565b80601f01602080910402602001604051908101604052809291908181526020018280546113439061208d565b80156113905780601f1061136557610100808354040283529160200191611390565b820191906000526020600020905b81548152906001019060200180831161137357829003601f168201915b5050505050908060020180546113a59061208d565b80601f01602080910402602001604051908101604052809291908181526020018280546113d19061208d565b801561141e5780601f106113f35761010080835404028352916020019161141e565b820191906000526020600020905b81548152906001019060200180831161140157829003601f168201915b5050505050908060030180546114339061208d565b80601f016020809104026020016040519081016040528092919081815260200182805461145f9061208d565b80156114ac5780601f10611481576101008083540402835291602001916114ac565b820191906000526020600020905b81548152906001019060200180831161148f57829003601f168201915b5050505050908060040180546114c19061208d565b80601f01602080910402602001604051908101604052809291908181526020018280546114ed9061208d565b801561153a5780601f1061150f5761010080835404028352916020019161153a565b820191906000526020600020905b81548152906001019060200180831161151d57829003601f168201915b5050505050908060050154908060060180546115559061208d565b80601f01602080910402602001604051908101604052809291908181526020018280546115819061208d565b80156115ce5780601f106115a3576101008083540402835291602001916115ce565b820191906000526020600020905b8154815290600101906020018083116115b157829003601f168201915b5050505050908060070180546115e39061208d565b80601f016020809104026020016040519081016040528092919081815260200182805461160f9061208d565b801561165c5780601f106116315761010080835404028352916020019161165c565b820191906000526020600020905b81548152906001019060200180831161163f57829003601f168201915b5050505050908060080180546116719061208d565b80601f016020809104026020016040519081016040528092919081815260200182805461169d9061208d565b80156116ea5780601f106116bf576101008083540402835291602001916116ea565b820191906000526020600020905b8154815290600101906020018083116116cd57829003601f168201915b505050505090806009015490508a565b60005481565b600073ffffffffffffffffffffffffffffffffffffffff82169050919050565b600061172b82611700565b9050919050565b61173b81611720565b82525050565b60006020820190506117566000830184611732565b92915050565b6000819050919050565b61176f8161175c565b82525050565b600060208201905061178a6000830184611766565b92915050565b6000604051905090565b600080fd5b600080fd5b600080fd5b600080fd5b6000601f19601f8301169050919050565b7f4e487b7100000000000000000000000000000000000000000000000000000000600052604160045260246000fd5b6117f7826117ae565b810181811067ffffffffffffffff82111715611816576118156117bf565b5b80604052505050565b6000611829611790565b905061183582826117ee565b919050565b600067ffffffffffffffff821115611855576118546117bf565b5b61185e826117ae565b9050602081019050919050565b82818337600083830152505050565b600061188d6118888461183a565b61181f565b9050828152602081018484840111156118a9576118a86117a9565b5b6118b484828561186b565b509392505050565b600082601f8301126118d1576118d06117a4565b5b81356118e184826020860161187a565b91505092915050565b600080600080600080600080610100898b03121561190b5761190a61179a565b5b600089013567ffffffffffffffff8111156119295761192861179f565b5b6119358b828c016118bc565b985050602089013567ffffffffffffffff8111156119565761195561179f565b5b6119628b828c016118bc565b975050604089013567ffffffffffffffff8111156119835761198261179f565b5b61198f8b828c016118bc565b965050606089013567ffffffffffffffff8111156119b0576119af61179f565b5b6119bc8b828c016118bc565b955050608089013567ffffffffffffffff8111156119dd576119dc61179f565b5b6119e98b828c016118bc565b94505060a089013567ffffffffffffffff811115611a0a57611a0961179f565b5b611a168b828c016118bc565b93505060c089013567ffffffffffffffff811115611a3757611a3661179f565b5b611a438b828c016118bc565b92505060e089013567ffffffffffffffff811115611a6457611a6361179f565b5b611a708b828c016118bc565b9150509295985092959890939650565b6000819050919050565b611a9381611a80565b82525050565b6000602082019050611aae6000830184611a8a565b92915050565b611abd8161175c565b8114611ac857600080fd5b50565b600081359050611ada81611ab4565b92915050565b600060208284031215611af657611af561179a565b5b6000611b0484828501611acb565b91505092915050565b60008060408385031215611b2457611b2361179a565b5b6000611b3285828601611acb565b9250506020611b4385828601611acb565b9150509250929050565b600081519050919050565b600082825260208201905092915050565b6000819050602082019050919050565b611b8281611a80565b82525050565b6000611b948383611b79565b60208301905092915050565b6000602082019050919050565b6000611bb882611b4d565b611bc28185611b58565b9350611bcd83611b69565b8060005b83811015611bfe578151611be58882611b88565b9750611bf083611ba0565b925050600181019050611bd1565b5085935050505092915050565b60006020820190508181036000830152611c258184611bad565b905092915050565b600060208284031215611c4357611c4261179a565b5b600082013567ffffffffffffffff811115611c6157611c6061179f565b5b611c6d848285016118bc565b91505092915050565b611c7f81611a80565b8114611c8a57600080fd5b50565b600081359050611c9c81611c76565b92915050565b600060208284031215611cb857611cb761179a565b5b6000611cc684828501611c8d565b91505092915050565b600081519050919050565b600082825260208201905092915050565b60005b83811015611d09578082015181840152602081019050611cee565b60008484015250505050565b6000611d2082611ccf565b611d2a8185611cda565b9350611d3a818560208601611ceb565b611d43816117ae565b840191505092915050565b6000610140820190508181036000830152611d69818d611d15565b90508181036020830152611d7d818c611d15565b90508181036040830152611d91818b611d15565b90508181036060830152611da5818a611d15565b90508181036080830152611db98189611d15565b9050611dc860a0830188611766565b81810360c0830152611dda8187611d15565b905081810360e0830152611dee8186611d15565b9050818103610100830152611e038185611d15565b9050611e13610120830184611766565b9b9a5050505050505050505050565b611e2b81611720565b8114611e3657600080fd5b50565b600081359050611e4881611e22565b92915050565b600060208284031215611e6457611e6361179a565b5b6000611e7284828501611e39565b91505092915050565b60008060408385031215611e9257611e9161179a565b5b600083013567ffffffffffffffff811115611eb057611eaf61179f565b5b611ebc858286016118bc565b9250506020611ecd85828601611acb565b9150509250929050565b7f496e73756666696369656e742066656520666f7220626c6f636b636861696e2060008201527f706f737400000000000000000000000000000000000000000000000000000000602082015250565b6000611f33602483611cda565b9150611f3e82611ed7565b604082019050919050565b60006020820190508181036000830152611f6281611f26565b9050919050565b600081905092915050565b6000611f7f82611ccf565b611f898185611f69565b9350611f99818560208601611ceb565b80840191505092915050565b6000819050919050565b611fc0611fbb8261175c565b611fa5565b82525050565b6000611fd28286611f74565b9150611fde8285611f74565b9150611fea8284611faf565b602082019150819050949350505050565b7f4e487b7100000000000000000000000000000000000000000000000000000000600052601160045260246000fd5b60006120358261175c565b91506120408361175c565b925082820390508181111561205857612057611ffb565b5b92915050565b7f4e487b7100000000000000000000000000000000000000000000000000000000600052602260045260246000fd5b600060028204905060018216806120a557607f821691505b6020821081036120b8576120b761205e565b5b50919050565b60008190508160005260206000209050919050565b60006020601f8301049050919050565b600082821b905092915050565b6000600883026121207fffffffffffffffffffffffffffffffffffffffffffffffffffffffffffffffff826120e3565b61212a86836120e3565b95508019841693508086168417925050509392505050565b6000819050919050565b600061216761216261215d8461175c565b612142565b61175c565b9050919050565b6000819050919050565b6121818361214c565b61219561218d8261216e565b8484546120f0565b825550505050565b600090565b6121aa61219d565b6121b5818484612178565b505050565b5b818110156121d9576121ce6000826121a2565b6001810190506121bb565b5050565b601f82111561221e576121ef816120be565b6121f8846120d3565b81016020851015612207578190505b61221b612213856120d3565b8301826121ba565b50505b505050565b600082821c905092915050565b600061224160001984600802612223565b1980831691505092915050565b600061225a8383612230565b9150826002028217905092915050565b61227382611ccf565b67ffffffffffffffff81111561228c5761228b6117bf565b5b612296825461208d565b6122a18282856121dd565b600060209050601f8311600181146122d457600084156122c2578287015190505b6122cc858261224e565b865550612334565b601f1984166122e2866120be565b60005b8281101561230a578489015182556001820191506020850194506020810190506122e5565b868310156123275784890151612323601f891682612230565b8355505b6001600288020188555050505b505050505050565b60006123488284611f74565b915081905092915050565b6000608082019050818103600083015261236d8187611d15565b905061237c6020830186611766565b818103604083015261238e8185611d15565b905061239d6060830184611766565b95945050505050565b7f4f6e6c792066656520636f6c6c6563746f722063616e206368616e676520746860008201527f6520666565000000000000000000000000000000000000000000000000000000602082015250565b6000612402602583611cda565b915061240d826123a6565b604082019050919050565b60006020820190508181036000830152612431816123f5565b9050919050565b60006124438261175c565b915061244e8361175c565b925082820190508082111561246657612465611ffb565b5b92915050565b7f4e487b7100000000000000000000000000000000000000000000000000000000600052603260045260246000fd5b7f506f737420646f6573206e6f7420657869737400000000000000000000000000600082015250565b60006124d1601383611cda565b91506124dc8261249b565b602082019050919050565b60006020820190508181036000830152612500816124c4565b9050919050565b7f4f6e6c792066656520636f6c6c6563746f722063616e207472616e736665722060008201527f7468697320726f6c650000000000000000000000000000000000000000000000602082015250565b6000612563602983611cda565b915061256e82612507565b604082019050919050565b6000602082019050818103600083015261259281612556565b9050919050565b7f43616e6e6f742073657420746f207a65726f2061646472657373000000000000600082015250565b60006125cf601a83611cda565b91506125da82612599565b602082019050919050565b600060208201905081810360008301526125fe816125c2565b905091905056fea2646970667358221220f3b0506669115b2079873b1b1aa7db9765a14f3bf5242d6a7f6cb5dac3dcf27d64736f6c63430008180033",
  "linkReferences": {},
  "deployedLinkReferences": {}
}