{
  "_format": "hh-sol-artifact-1",
  "contractName": "BlockchainPosts",
  "sourceName": "blockchain/contracts/BlockchainPosts.sol",
  "abi": [
    {
      "inputs": [],
      "stateMutability": "nonpayable",
      "type": "constructor"
    },
    {
      "inputs": [],
      "name": "ECDSAInvalidSignature",
      "type": "error"
    },
    {
      "inputs": [
        {
          "internalType": "uint256",
          "name": "length",
          "type": "uint256"
        }
      ],
      "name": "ECDSAInvalidSignatureLength",
      "type": "error"
    },
    {
      "inputs": [
        {
          "internalType": "bytes32",
          "name": "s",
          "type": "bytes32"
        }
      ],
      "name": "ECDSAInvalidSignatureS",
      "type": "error"
    },
    {
      "inputs": [],
      "name": "EnforcedPause",
      "type": "error"
    },
    {
      "inputs": [],
      "name": "ExpectedPause",
      "type": "error"
    },
    {
      "inputs": [],
      "name": "InvalidInitialization",
      "type": "error"
    },
    {
      "inputs": [],
      "name": "NotInitializing",
      "type": "error"
    },
    {
      "inputs": [
        {
          "internalType": "address",
          "name": "owner",
          "type": "address"
        }
      ],
      "name": "OwnableInvalidOwner",
      "type": "error"
    },
    {
      "inputs": [
        {
          "internalType": "address",
          "name": "account",
          "type": "address"
        }
      ],
      "name": "OwnableUnauthorizedAccount",
      "type": "error"
    },
    {
      "inputs": [],
      "name": "ReentrancyGuardReentrantCall",
      "type": "error"
    },
    {
      "anonymous": false,
      "inputs": [
        {
          "indexed": false,
          "internalType": "address",
          "name": "newAppTokenAddress",
          "type": "address"
        }
      ],
      "name": "AppTokenAddressChanged",
      "type": "event"
    },
    {
      "anonymous": false,
      "inputs": [
        {
          "indexed": false,
          "internalType": "uint64",
          "name": "version",
          "type": "uint64"
        }
      ],
      "name": "Initialized",
      "type": "event"
    },
    {
      "anonymous": false,
      "inputs": [
        {
          "indexed": true,
          "internalType": "address",
          "name": "previousOwner",
          "type": "address"
        },
        {
          "indexed": true,
          "internalType": "address",
          "name": "newOwner",
          "type": "address"
        }
      ],
      "name": "OwnershipTransferred",
      "type": "event"
    },
    {
      "anonymous": false,
      "inputs": [
        {
          "indexed": false,
          "internalType": "address",
          "name": "account",
          "type": "address"
        }
      ],
      "name": "Paused",
      "type": "event"
    },
    {
      "anonymous": false,
      "inputs": [
        {
          "indexed": true,
          "internalType": "bytes32",
          "name": "postId",
          "type": "bytes32"
        },
        {
          "indexed": false,
          "internalType": "string",
          "name": "authorDid",
          "type": "string"
        },
        {
          "indexed": false,
          "internalType": "uint256",
          "name": "timestamp",
          "type": "uint256"
        },
        {
          "indexed": false,
          "internalType": "string",
          "name": "visibility",
          "type": "string"
        },
        {
          "indexed": false,
          "internalType": "uint256",
          "name": "appTokenDonation",
          "type": "uint256"
        },
        {
          "indexed": false,
          "internalType": "bool",
          "name": "verified",
          "type": "bool"
        }
      ],
      "name": "PostCreated",
      "type": "event"
    },
    {
      "anonymous": false,
      "inputs": [
        {
          "indexed": true,
          "internalType": "bytes32",
          "name": "postId",
          "type": "bytes32"
        },
        {
          "indexed": false,
          "internalType": "address",
          "name": "verifier",
          "type": "address"
        }
      ],
      "name": "PostVerified",
      "type": "event"
    },
    {
      "anonymous": false,
      "inputs": [
        {
          "indexed": false,
          "internalType": "uint256",
          "name": "newFee",
          "type": "uint256"
        }
      ],
      "name": "TokenPostFeeChanged",
      "type": "event"
    },
    {
      "anonymous": false,
      "inputs": [
        {
          "indexed": false,
          "internalType": "address",
          "name": "account",
          "type": "address"
        }
      ],
      "name": "Unpaused",
      "type": "event"
    },
    {
      "inputs": [
        {
          "internalType": "uint256",
          "name": "",
          "type": "uint256"
        }
      ],
      "name": "allPostIds",
      "outputs": [
        {
          "internalType": "bytes32",
          "name": "",
          "type": "bytes32"
        }
      ],
      "stateMutability": "view",
      "type": "function"
    },
    {
      "inputs": [],
      "name": "appToken",
      "outputs": [
        {
          "internalType": "contract IERC20",
          "name": "",
          "type": "address"
        }
      ],
      "stateMutability": "view",
      "type": "function"
    },
    {
      "inputs": [
        {
          "internalType": "string",
          "name": "_content",
          "type": "string"
        },
        {
          "internalType": "string",
          "name": "_title",
          "type": "string"
        },
        {
          "internalType": "string",
          "name": "_authorDid",
          "type": "string"
        },
        {
          "internalType": "uint256",
          "name": "_timestamp",
          "type": "uint256"
        }
      ],
      "name": "createMessageHash",
      "outputs": [
        {
          "internalType": "bytes32",
          "name": "",
          "type": "bytes32"
        }
      ],
      "stateMutability": "pure",
      "type": "function"
    },
    {
      "inputs": [
        {
          "internalType": "address",
          "name": "userAddressForTokenTransfer",
          "type": "address"
        },
        {
          "internalType": "string",
          "name": "_content",
          "type": "string"
        },
        {
          "internalType": "string",
          "name": "_title",
          "type": "string"
        },
        {
          "internalType": "string",
          "name": "_authorDid",
          "type": "string"
        },
        {
          "internalType": "string",
          "name": "_authorName",
          "type": "string"
        },
        {
          "internalType": "string",
          "name": "_contentType",
          "type": "string"
        },
        {
          "internalType": "string",
          "name": "_visibility",
          "type": "string"
        },
        {
          "internalType": "string",
          "name": "_ipfsCid",
          "type": "string"
        },
        {
          "internalType": "string",
          "name": "_metadata",
          "type": "string"
        },
        {
          "internalType": "uint256",
          "name": "_appTokenDonationAmount",
          "type": "uint256"
        },
        {
          "internalType": "bytes",
          "name": "_signature",
          "type": "bytes"
        }
      ],
      "name": "createPost",
      "outputs": [
        {
          "internalType": "bytes32",
          "name": "postId",
          "type": "bytes32"
        }
      ],
      "stateMutability": "nonpayable",
      "type": "function"
    },
    {
      "inputs": [],
      "name": "getAppTokenAddress",
      "outputs": [
        {
          "internalType": "address",
          "name": "",
          "type": "address"
        }
      ],
      "stateMutability": "view",
      "type": "function"
    },
    {
      "inputs": [
        {
          "internalType": "uint256",
          "name": "_offset",
          "type": "uint256"
        },
        {
          "internalType": "uint256",
          "name": "_limit",
          "type": "uint256"
        }
      ],
      "name": "getPaginatedPostIds",
      "outputs": [
        {
          "internalType": "bytes32[]",
          "name": "",
          "type": "bytes32[]"
        }
      ],
      "stateMutability": "view",
      "type": "function"
    },
    {
      "inputs": [
        {
          "internalType": "bytes32",
          "name": "_postId",
          "type": "bytes32"
        }
      ],
      "name": "getPost",
      "outputs": [
        {
          "components": [
            {
              "internalType": "string",
              "name": "content",
              "type": "string"
            },
            {
              "internalType": "string",
              "name": "title",
              "type": "string"
            },
            {
              "internalType": "string",
              "name": "authorDid",
              "type": "string"
            },
            {
              "internalType": "string",
              "name": "authorName",
              "type": "string"
            },
            {
              "internalType": "string",
              "name": "contentType",
              "type": "string"
            },
            {
              "internalType": "uint256",
              "name": "timestamp",
              "type": "uint256"
            },
            {
              "internalType": "string",
              "name": "visibility",
              "type": "string"
            },
            {
              "internalType": "string",
              "name": "ipfsCid",
              "type": "string"
            },
            {
              "internalType": "string",
              "name": "metadata",
              "type": "string"
            },
            {
              "internalType": "uint256",
              "name": "appTokenDonation",
              "type": "uint256"
            },
            {
              "internalType": "bytes",
              "name": "signature",
              "type": "bytes"
            },
            {
              "internalType": "bool",
              "name": "verified",
              "type": "bool"
            }
          ],
          "internalType": "struct Post",
          "name": "",
          "type": "tuple"
        }
      ],
      "stateMutability": "view",
      "type": "function"
    },
    {
      "inputs": [],
      "name": "getTokenPostFee",
      "outputs": [
        {
          "internalType": "uint256",
          "name": "",
          "type": "uint256"
        }
      ],
      "stateMutability": "view",
      "type": "function"
    },
    {
      "inputs": [],
      "name": "getTotalPostsCount",
      "outputs": [
        {
          "internalType": "uint256",
          "name": "",
          "type": "uint256"
        }
      ],
      "stateMutability": "view",
      "type": "function"
    },
    {
      "inputs": [
        {
          "internalType": "string",
          "name": "_authorDid",
          "type": "string"
        }
      ],
      "name": "getUserPostIds",
      "outputs": [
        {
          "internalType": "bytes32[]",
          "name": "",
          "type": "bytes32[]"
        }
      ],
      "stateMutability": "view",
      "type": "function"
    },
    {
      "inputs": [
        {
          "internalType": "address",
          "name": "initialOwner",
          "type": "address"
        },
        {
          "internalType": "address",
          "name": "_appTokenAddress",
          "type": "address"
        },
        {
          "internalType": "uint256",
          "name": "_initialTokenPostFee",
          "type": "uint256"
        }
      ],
      "name": "initialize",
      "outputs": [],
      "stateMutability": "nonpayable",
      "type": "function"
    },
    {
      "inputs": [],
      "name": "owner",
      "outputs": [
        {
          "internalType": "address",
          "name": "",
          "type": "address"
        }
      ],
      "stateMutability": "view",
      "type": "function"
    },
    {
      "inputs": [],
      "name": "pause",
      "outputs": [],
      "stateMutability": "nonpayable",
      "type": "function"
    },
    {
      "inputs": [],
      "name": "paused",
      "outputs": [
        {
          "internalType": "bool",
          "name": "",
          "type": "bool"
        }
      ],
      "stateMutability": "view",
      "type": "function"
    },
    {
      "inputs": [
        {
          "internalType": "bytes32",
          "name": "",
          "type": "bytes32"
        }
      ],
      "name": "posts",
      "outputs": [
        {
          "internalType": "string",
          "name": "content",
          "type": "string"
        },
        {
          "internalType": "string",
          "name": "title",
          "type": "string"
        },
        {
          "internalType": "string",
          "name": "authorDid",
          "type": "string"
        },
        {
          "internalType": "string",
          "name": "authorName",
          "type": "string"
        },
        {
          "internalType": "string",
          "name": "contentType",
          "type": "string"
        },
        {
          "internalType": "uint256",
          "name": "timestamp",
          "type": "uint256"
        },
        {
          "internalType": "string",
          "name": "visibility",
          "type": "string"
        },
        {
          "internalType": "string",
          "name": "ipfsCid",
          "type": "string"
        },
        {
          "internalType": "string",
          "name": "metadata",
          "type": "string"
        },
        {
          "internalType": "uint256",
          "name": "appTokenDonation",
          "type": "uint256"
        },
        {
          "internalType": "bytes",
          "name": "signature",
          "type": "bytes"
        },
        {
          "internalType": "bool",
          "name": "verified",
          "type": "bool"
        }
      ],
      "stateMutability": "view",
      "type": "function"
    },
    {
      "inputs": [],
      "name": "renounceOwnership",
      "outputs": [],
      "stateMutability": "nonpayable",
      "type": "function"
    },
    {
      "inputs": [
        {
          "internalType": "address",
          "name": "_newAppTokenAddress",
          "type": "address"
        }
      ],
      "name": "setAppTokenAddress",
      "outputs": [],
      "stateMutability": "nonpayable",
      "type": "function"
    },
    {
      "inputs": [
        {
          "internalType": "uint256",
          "name": "_newFee",
          "type": "uint256"
        }
      ],
      "name": "setTokenPostFee",
      "outputs": [],
      "stateMutability": "nonpayable",
      "type": "function"
    },
    {
      "inputs": [],
      "name": "tokenPostFee",
      "outputs": [
        {
          "internalType": "uint256",
          "name": "",
          "type": "uint256"
        }
      ],
      "stateMutability": "view",
      "type": "function"
    },
    {
      "inputs": [
        {
          "internalType": "address",
          "name": "newOwner",
          "type": "address"
        }
      ],
      "name": "transferOwnership",
      "outputs": [],
      "stateMutability": "nonpayable",
      "type": "function"
    },
    {
      "inputs": [],
      "name": "unpause",
      "outputs": [],
      "stateMutability": "nonpayable",
      "type": "function"
    },
    {
      "inputs": [
        {
          "internalType": "string",
          "name": "",
          "type": "string"
        },
        {
          "internalType": "uint256",
          "name": "",
          "type": "uint256"
        }
      ],
      "name": "userPosts",
      "outputs": [
        {
          "internalType": "bytes32",
          "name": "",
          "type": "bytes32"
        }
      ],
      "stateMutability": "view",
      "type": "function"
    },
    {
      "inputs": [
        {
          "internalType": "address",
          "name": "recipient",
          "type": "address"
        },
        {
          "internalType": "uint256",
          "name": "amount",
          "type": "uint256"
        }
      ],
      "name": "withdrawAppTokens",
      "outputs": [],
      "stateMutability": "nonpayable",
      "type": "function"
    }
  ],
  "bytecode": "0x608080604052346100b8577ff0c57e16840df040f15088dc2f81fe391c3923bec73e23a9662efc9c229c6a009081549060ff8260401c166100a957506001600160401b036002600160401b031982821601610064575b60405161241190816100be8239f35b6001600160401b031990911681179091556040519081527fc7f505b2f371ae2175ee4913f4499e1f2633a7b5936321eed1cdaeb6115181d290602090a1388080610055565b63f92ee8a960e01b8152600490fd5b600080fdfe608080604052600436101561001357600080fd5b60003560e01c9081630d17b40414611b90575080631794bb3c146119fc5780633f4ba83a1461198557806343cc6203146103d457806344fe8186146119635780635c975abb14611933578063677eb2b8146118e75780636b8b3230146118c9578063715018a61461185f57806378f5b9e4146117b457806383cb3d9a14610aa55780638456cb5914610a3e5780638da5cb5b14610a0857806393e43bbe14610760578063a1e778ce146106e5578063a73d478e146104a7578063a7decfd414610434578063b63a3233146103fd578063b79e4248146103d4578063c96e33d31461035a578063d306dbe31461033c578063dff72dec1461014c5763f2fde38b1461011c57600080fd5b3461014757602036600319011261014757610145610138611bab565b610140612155565b6120e1565b005b600080fd5b3461014757602036600319011261014757600435600052600260205260406000206040518061017b8184611d85565b036101869082611c19565b60405191826101988160018401611d85565b036101a39084611c19565b60405190816101b58160028401611d85565b036101c09083611c19565b604051806101d18160038501611d85565b036101dc9082611c19565b604051806101ed8160048601611d85565b036101f89082611c19565b60058301546040518061020e8160068801611d85565b036102199082611c19565b604051918261022b8160078901611d85565b036102369084611c19565b60405193846102488160088a01611d85565b036102539086611c19565b600987015495604051978880600a83019061026d91611d85565b03610278908a611c19565b600b015460ff16986040519b8c9b8c6101808091528d0161029891611cc1565b8c810360208e01526102a991611cc1565b8b810360408d01526102ba91611cc1565b8a810360608c01526102cb91611cc1565b89810360808b01526102dc91611cc1565b9060a089015287810360c08901526102f391611cc1565b86810360e088015261030491611cc1565b85810361010087015261031691611cc1565b9061012085015283810361014085015261032f91611cc1565b9015156101608301520390f35b34610147576000366003190112610147576020600454604051908152f35b34610147576040366003190112610147576004356001600160401b0381116101475761038a903690600401611c80565b6103a66020602435928160405193828580945193849201611c9e565b810160038152030190208054821015610147576020916103c591611d33565b90549060031b1c604051908152f35b34610147576000366003190112610147576000546040516001600160a01b039091168152602090f35b346101475760203660031901126101475760043560045481101561014757610426602091611ce6565b90546040519160031b1c8152f35b34610147576020366003190112610147577fe83ff3a00fd512ead2fdee72a27dcccc5e0f93f3fde0ccc58795f0b0b1187fe76020610470611bab565b610478612155565b6001600160a01b031661048c811515611e1b565b600080546001600160a01b03191682179055604051908152a1005b34610147576040366003190112610147576104c0611bab565b60249081356104cd612155565b6104d56121b9565b6001600160a01b0391821691821561068e576000541690604051926370a0823160e01b845230600485015260209384818781875afa9081156105eb57600091610661575b5082116105f75790604484926000604051958694859363a9059cbb60e01b85526004850152898401525af19081156105eb576000916105be575b501561056d5760016000805160206123bc83398151915255005b60266084926040519262461bcd60e51b845260048401528201527f426c6f636b636861696e506f7374733a20546f6b656e207472616e736665722060448201526519985a5b195960d21b6064820152fd5b6105de9150823d84116105e4575b6105d68183611c19565b810190611f9f565b83610553565b503d6105cc565b6040513d6000823e3d90fd5b60405162461bcd60e51b8152600481018590526037818701527f426c6f636b636861696e506f7374733a20496e73756666696369656e7420746f60448201527f6b656e2062616c616e636520696e20636f6e74726163740000000000000000006064820152608490fd5b90508481813d8311610687575b6106788183611c19565b81010312610147575186610519565b503d61066e565b60405162461bcd60e51b815260206004820152602a818601527f426c6f636b636861696e506f7374733a20496e76616c696420726563697069656044820152696e74206164647265737360b01b6064820152608490fd5b34610147576080366003190112610147576001600160401b0360043581811161014757610716903690600401611c80565b906024358181116101475761072f903690600401611c80565b916044359182116101475760209261074e610758933690600401611c80565b906064359261200d565b604051908152f35b3461014757602036600319011261014757600061016060405161078281611bfd565b606081526060602082015260606040820152606080820152606060808201528260a0820152606060c0820152606060e0820152606061010082015282610120820152606061014082015201526004356000526002602052604060002060ff600b604051926107ef84611bfd565b604051610807816108008185611d85565b0382611c19565b845260405161081d816108008160018601611d85565b6020850152604051610836816108008160028601611d85565b604085015260405161084f816108008160038601611d85565b6060850152604051610868816108008160048601611d85565b6080850152600581015460a085015260405161088b816108008160068601611d85565b60c08501526040516108a4816108008160078601611d85565b60e08501526040516108bd816108008160088601611d85565b61010085015260098101546101208501526040516108e28161080081600a8601611d85565b61014085015201541615156101608201526040518091602082526101606109f96109d76109bf6109a861098861097261095c6109466109308b61018060208d519201526101a08d0190611cc1565b60208b01518c8203601f190160408e0152611cc1565b60408a01518b8203601f190160608d0152611cc1565b60608901518a8203601f190160808c0152611cc1565b6080880151898203601f190160a08b0152611cc1565b60a087015160c089015260c0870151601f198983030160e08a0152611cc1565b60e0860151878203601f1901610100890152611cc1565b610100850151868203601f1901610120880152611cc1565b610120840151610140860152610140840151601f198683030184870152611cc1565b91015115156101808301520390f35b346101475760003660031901126101475760008051602061237c833981519152546040516001600160a01b039091168152602090f35b3461014757600036600319011261014757610a57612155565b610a5f61218e565b60008051602061239c833981519152600160ff198254161790557f62e78cea01bee320cd4e420270b5ea74000d11b0c9f74754ebdbfc544b05a2586020604051338152a1005b346101475761016036600319011261014757610abf611bab565b6024356001600160401b03811161014757610ade903690600401611c80565b6044356001600160401b03811161014757610afd903690600401611c80565b906064356001600160401b03811161014757610b1d903690600401611c80565b926084356001600160401b03811161014757610b3d903690600401611c80565b9260a4356001600160401b03811161014757610b5d903690600401611c80565b9260c4356001600160401b03811161014757610b7d903690600401611c80565b9360e4356001600160401b03811161014757610b9d903690600401611c80565b610104356001600160401b03811161014757610bbd903690600401611c80565b90610144356001600160401b038111610147573660238201121561014757610bef903690602481600401359101611c3a565b92610bf861218e565b610c006121b9565b6001600160a01b0387161561174957610c1e61012435600154611e8d565b8061167a575b50604051610c6d6040828d610c428151809260208086019101611c9e565b8101895190610c58828c60208085019101611c9e565b01426020820152036020810184520182611c19565b60208151910120986000966000988c8751611618575b505060405196610c9288611bfd565b875260208701528a6040870152606086015260808501524260a08501528660c085015260e084015261010083015261012435610120830152610140820152811515610160820152846000526002602052604060002081518051906001600160401b0382116111ec57610d0e82610d088554611d4b565b85611fb7565b602090601f83116001146115ac57610d3f929160009183611283575b50508160011b916000199060031b1c19161790565b81555b60208201518051906001600160401b0382116111ec57610d7282610d696001860154611d4b565b60018601611fb7565b602090601f831160011461153a57610da29291600091836112835750508160011b916000199060031b1c19161790565b60018201555b60408201518051906001600160401b0382116111ec57610dd882610dcf6002860154611d4b565b60028601611fb7565b602090601f83116001146114c857610e089291600091836112835750508160011b916000199060031b1c19161790565b60028201555b60608201518051906001600160401b0382116111ec57610e3e82610e356003860154611d4b565b60038601611fb7565b602090601f831160011461145657610e6e9291600091836112835750508160011b916000199060031b1c19161790565b60038201555b60808201518051906001600160401b0382116111ec57610ea482610e9b6004860154611d4b565b60048601611fb7565b602090601f83116001146113e457610ed49291600091836112835750508160011b916000199060031b1c19161790565b60048201555b60a0820151600582015560c08201518051906001600160401b0382116111ec57610f1482610f0b6006860154611d4b565b60068601611fb7565b602090601f831160011461137257610f449291600091836112835750508160011b916000199060031b1c19161790565b60068201555b60e08201518051906001600160401b0382116111ec57610f7a82610f716007860154611d4b565b60078601611fb7565b602090601f831160011461130057610faa9291600091836112835750508160011b916000199060031b1c19161790565b60078201555b6101008201518051906001600160401b0382116111ec57610fe182610fd86008860154611d4b565b60088601611fb7565b602090601f831160011461128e576110119291600091836112835750508160011b916000199060031b1c19161790565b60088201555b61012082015160098201556101408201518051906001600160401b0382116111ec576110538261104a600a860154611d4b565b600a8601611fb7565b602090601f831160011461120d5782600b93610160959361108a936000926112025750508160011b916000199060031b1c19161790565b600a8201555b01910151151560ff8019835416911617905560405160208187516110b78183858c01611c9e565b81016003815203019020948554956801000000000000000096878110156111ec576110ec818893600161110394018155611d33565b819391549060031b91821b91600019901b19161790565b9055600454958610156111ec577f1467379310d90279d5078aa15f374ca30558eca82edd86b321740fb2b621891e61116886959261117b8794856111526110ec8d600160209f01600455611ce6565b905560405193849360a0855260a0850190611cc1565b90428c8501528382036040850152611cc1565b61012435606083015285151560808301520390a26111b0575b505060016000805160206123bc83398151915255604051908152f35b6040516001600160a01b0390911681527f2d9292f71194f9395811f6a0bdd6a4ad024713c6b39a89c6ecc0a79f7cfc5137908490a28083611194565b634e487b7160e01b600052604160045260246000fd5b015190508c80610d2a565b90600a840160005260206000209160005b601f198516811061126b5750926101609492600192600b9583601f19811610611252575b505050811b01600a820155611090565b015160001960f88460031b161c191690558b8080611242565b9192602060018192868501518155019401920161121e565b015190508a80610d2a565b9190600884016000526020600020906000935b601f19841685106112e5576001945083601f198116106112cc575b505050811b016008820155611017565b015160001960f88460031b161c191690558980806112bc565b818101518355602094850194600190930192909101906112a1565b9190600784016000526020600020906000935b601f1984168510611357576001945083601f1981161061133e575b505050811b016007820155610fb0565b015160001960f88460031b161c1916905589808061132e565b81810151835560209485019460019093019290910190611313565b9190600684016000526020600020906000935b601f19841685106113c9576001945083601f198116106113b0575b505050811b016006820155610f4a565b015160001960f88460031b161c191690558980806113a0565b81810151835560209485019460019093019290910190611385565b9190600484016000526020600020906000935b601f198416851061143b576001945083601f19811610611422575b505050811b016004820155610eda565b015160001960f88460031b161c19169055898080611412565b818101518355602094850194600190930192909101906113f7565b9190600384016000526020600020906000935b601f19841685106114ad576001945083601f19811610611494575b505050811b016003820155610e74565b015160001960f88460031b161c19169055898080611484565b81810151835560209485019460019093019290910190611469565b9190600284016000526020600020906000935b601f198416851061151f576001945083601f19811610611506575b505050811b016002820155610e0e565b015160001960f88460031b161c191690558980806114f6565b818101518355602094850194600190930192909101906114db565b9190600184016000526020600020906000935b601f1984168510611591576001945083601f19811610611578575b505050811b016001820155610da8565b015160001960f88460031b161c19169055898080611568565b8181015183556020948501946001909301929091019061154d565b9190836000526020600020906000935b601f19841685106115fd576001945083601f198116106115e4575b505050811b018155610d42565b015160001960f88460031b161c191690558980806115d7565b818101518355602094850194600190930192909101906115bc565b61163c9a508761162e611633924290868d61200d565b61222a565b909b919b612266565b6001600160a01b038a168015159182611667575b505061165e575b8c8c610c83565b60019750611657565b6001600160a01b03161490508d80611650565b600080546040516323b872dd60e01b81526001600160a01b038b811660048301523060248301526044820194909452926020928492606492849291165af19081156105eb5760009161172a575b50156116d3578a610c24565b60405162461bcd60e51b815260206004820152602960248201527f426c6f636b636861696e506f7374733a20417070546f6b656e207472616e7366604482015268195c8819985a5b195960ba1b6064820152608490fd5b611743915060203d6020116105e4576105d68183611c19565b8b6116c7565b60405162461bcd60e51b815260206004820152603860248201527f426c6f636b636861696e506f7374733a20496e76616c6964207573657220616460448201527f647265737320666f7220746f6b656e207472616e7366657200000000000000006064820152608490fd5b3461014757602080600319360112610147576004356001600160401b03811161014757816117e96117fc923690600401611c80565b8160405193828580945193849201611c9e565b8101600381520301902090604051908181845491828152019360005281600020916000905b828210611848576118448561183881890382611c19565b60405191829182611bc1565b0390f35b835486529485019460019384019390910190611821565b3461014757600036600319011261014757611878612155565b60008051602061237c83398151915280546001600160a01b031981169091556000906001600160a01b03167f8be0079c531659141344cd1fd0a4f28419497f9722a3daafe3b4186f6b6457e08280a3005b34610147576000366003190112610147576020600154604051908152f35b34610147576020366003190112610147577ff3768d3fcac2aed66b779ee317503e6356ce81bb919ad5ce75e5ce40007cf32d6020600435611926612155565b80600155604051908152a1005b3461014757600036600319011261014757602060ff60008051602061239c83398151915254166040519015158152f35b3461014757604036600319011261014757611844611838602435600435611eb0565b346101475760003660031901126101475761199e612155565b60008051602061239c833981519152805460ff8116156119ea5760ff191690557f5db9ee0a495bf2e6ff9c91a7834c1ba4fdd244a5e8aa4e537bd38aeae4b073aa6020604051338152a1005b604051638dfc202b60e01b8152600490fd5b3461014757606036600319011261014757611a15611bab565b6024356001600160a01b0381169190829003610147577ff0c57e16840df040f15088dc2f81fe391c3923bec73e23a9662efc9c229c6a0091825460ff8160401c1615926001600160401b03821680159081611b88575b6001149081611b7e575b159081611b75575b50611b635767ffffffffffffffff1982166001178555611aae9184611b44575b50611aa66121e9565b6101406121e9565b611ab66121e9565b611abe6121e9565b611ac66121e9565b60016000805160206123bc83398151915255611ae3811515611e1b565b6bffffffffffffffffffffffff60a01b6000541617600055604435600155611b0757005b68ff00000000000000001981541690557fc7f505b2f371ae2175ee4913f4499e1f2633a7b5936321eed1cdaeb6115181d2602060405160018152a1005b68ffffffffffffffffff19166801000000000000000117855585611a9d565b60405163f92ee8a960e01b8152600490fd5b90501586611a7d565b303b159150611a75565b859150611a6b565b34610147576000366003190112610147576020906001548152f35b600435906001600160a01b038216820361014757565b602090602060408183019282815285518094520193019160005b828110611be9575050505090565b835185529381019392810192600101611bdb565b61018081019081106001600160401b038211176111ec57604052565b90601f801991011681019081106001600160401b038211176111ec57604052565b9291926001600160401b0382116111ec5760405191611c63601f8201601f191660200184611c19565b829481845281830111610147578281602093846000960137010152565b9080601f8301121561014757816020611c9b93359101611c3a565b90565b60005b838110611cb15750506000910152565b8181015183820152602001611ca1565b90602091611cda81518092818552858086019101611c9e565b601f01601f1916010190565b600454811015611d1d5760046000527f8a35acfbc15ff81a39ae7d344fd709f28e8600b4aa8c65c6b64bfe7fe36bd19b0190600090565b634e487b7160e01b600052603260045260246000fd5b8054821015611d1d5760005260206000200190600090565b90600182811c92168015611d7b575b6020831014611d6557565b634e487b7160e01b600052602260045260246000fd5b91607f1691611d5a565b805460009392611d9482611d4b565b91828252602093600191600181169081600014611dfc5750600114611dbb575b5050505050565b90939495506000929192528360002092846000945b838610611de857505050500101903880808080611db4565b805485870183015294019385908201611dd0565b60ff19168685015250505090151560051b010191503880808080611db4565b15611e2257565b60405162461bcd60e51b815260206004820152602660248201527f426c6f636b636861696e506f7374733a20496e76616c696420746f6b656e206160448201526564647265737360d01b6064820152608490fd5b6001600160401b0381116111ec5760051b60200190565b91908201809211611e9a57565b634e487b7160e01b600052601160045260246000fd5b906004906004549081841015611f7357611eca9084611e8d565b90808211611f6b575b50828103908111611e9a57611ee781611e76565b92611ef56040519485611c19565b818452611f0182611e76565b60209190601f1901368684013760009060005b848110611f245750505050505090565b611f36611f318284611e8d565b611ce6565b9054908851831015611f585760031b1c600582901b8801850152600101611f14565b634e487b7160e01b855260328852602485fd5b905038611ed3565b50505050604051602081018181106001600160401b038211176111ec5760405260008152600036813790565b90816020910312610147575180151581036101475790565b90601f8111611fc557505050565b6000916000526020600020906020601f850160051c83019410612003575b601f0160051c01915b828110611ff857505050565b818155600101611fec565b9092508290611fe3565b60519061208b92946040519485926020840197702634b132b930a1b430b4b7102837b9ba1d60791b895261204b815180926020603189019101611c9e565b8401612061825180936020603185019101611c9e565b01612076825180936020603185019101611c9e565b01906031820152036031810184520182611c19565b51902060405160208101917f19457468657265756d205369676e6564204d6573736167653a0a3332000000008352603c820152603c8152606081018181106001600160401b038211176111ec5760405251902090565b6001600160a01b0390811690811561213c5760008051602061237c83398151915280546001600160a01b031981168417909155167f8be0079c531659141344cd1fd0a4f28419497f9722a3daafe3b4186f6b6457e0600080a3565b604051631e4fbdf760e01b815260006004820152602490fd5b60008051602061237c833981519152546001600160a01b0316330361217657565b60405163118cdaa760e01b8152336004820152602490fd5b60ff60008051602061239c83398151915254166121a757565b60405163d93c066560e01b8152600490fd5b6000805160206123bc83398151915260028154146121d75760029055565b604051633ee5aeb560e01b8152600490fd5b60ff7ff0c57e16840df040f15088dc2f81fe391c3923bec73e23a9662efc9c229c6a005460401c161561221857565b604051631afcd79f60e31b8152600490fd5b815191906041830361225b5761225492506020820151906060604084015193015160001a906122eb565b9192909190565b505060009160029190565b60048110156122d55780612278575050565b600181036122925760405163f645eedf60e01b8152600490fd5b600281036122b35760405163fce698f760e01b815260048101839052602490fd5b6003146122bd5750565b602490604051906335e2f38360e21b82526004820152fd5b634e487b7160e01b600052602160045260246000fd5b91907f7fffffffffffffffffffffffffffffff5d576e7357a4501ddfe92f46681b20a0841161236f57926020929160ff608095604051948552168484015260408301526060820152600092839182805260015afa156123635780516001600160a01b0381161561235a57918190565b50809160019190565b604051903d90823e3d90fd5b5050506000916003919056fe9016d09d72d40fdae2fd8ceac6b6234c7706214fd39c1cd1e609a0528c199300cd5ed15c6e187e77e9aee88184c21f4f2182ab5827cb3b7e07fbedcd63f033009b779b17422d0df92223018b32b4d1fa46e071723d6817e2486d003becc55f00a26469706673582212202b71ec84a8bddac5a700a1250862adfc8a3a6727f784b8cce5177d5dc224b00464736f6c63430008180033",
  "linkReferences": {},
  "deployedLinkReferences": {}
}