{
  "_format": "hh-sol-artifact-1",
  "contractName": "BlockchainPosts",
  "sourceName": "blockchain/contracts/BlockchainPosts.sol",
  "abi": [
    {
      "inputs": [],
      "stateMutability": "nonpayable",
      "type": "constructor"
    },
    {
      "anonymous": false,
      "inputs": [
        {
          "indexed": true,
          "internalType": "bytes32",
          "name": "postId",
          "type": "bytes32"
        },
        {
          "indexed": false,
          "internalType": "uint256",
          "name": "donationAmount",
          "type": "uint256"
        }
      ],
      "name": "DonationReceived",
      "type": "event"
    },
    {
      "anonymous": false,
      "inputs": [
        {
          "indexed": false,
          "internalType": "address",
          "name": "newCollector",
          "type": "address"
        }
      ],
      "name": "FeeCollectorChanged",
      "type": "event"
    },
    {
      "anonymous": false,
      "inputs": [
        {
          "indexed": true,
          "internalType": "bytes32",
          "name": "postId",
          "type": "bytes32"
        },
        {
          "indexed": false,
          "internalType": "string",
          "name": "authorDid",
          "type": "string"
        },
        {
          "indexed": false,
          "internalType": "uint256",
          "name": "timestamp",
          "type": "uint256"
        },
        {
          "indexed": false,
          "internalType": "string",
          "name": "visibility",
          "type": "string"
        },
        {
          "indexed": false,
          "internalType": "uint256",
          "name": "donation",
          "type": "uint256"
        }
      ],
      "name": "PostCreated",
      "type": "event"
    },
    {
      "anonymous": false,
      "inputs": [
        {
          "indexed": false,
          "internalType": "uint256",
          "name": "newFee",
          "type": "uint256"
        }
      ],
      "name": "PostFeeChanged",
      "type": "event"
    },
    {
      "inputs": [
        {
          "internalType": "uint256",
          "name": "",
          "type": "uint256"
        }
      ],
      "name": "allPostIds",
      "outputs": [
        {
          "internalType": "bytes32",
          "name": "",
          "type": "bytes32"
        }
      ],
      "stateMutability": "view",
      "type": "function"
    },
    {
      "inputs": [],
      "name": "contractCreator",
      "outputs": [
        {
          "internalType": "address",
          "name": "",
          "type": "address"
        }
      ],
      "stateMutability": "view",
      "type": "function"
    },
    {
      "inputs": [
        {
          "internalType": "string",
          "name": "_content",
          "type": "string"
        },
        {
          "internalType": "string",
          "name": "_title",
          "type": "string"
        },
        {
          "internalType": "string",
          "name": "_authorDid",
          "type": "string"
        },
        {
          "internalType": "string",
          "name": "_authorName",
          "type": "string"
        },
        {
          "internalType": "string",
          "name": "_contentType",
          "type": "string"
        },
        {
          "internalType": "string",
          "name": "_visibility",
          "type": "string"
        },
        {
          "internalType": "string",
          "name": "_ipfsCid",
          "type": "string"
        },
        {
          "internalType": "string",
          "name": "_metadata",
          "type": "string"
        }
      ],
      "name": "createPost",
      "outputs": [
        {
          "internalType": "bytes32",
          "name": "postId",
          "type": "bytes32"
        }
      ],
      "stateMutability": "payable",
      "type": "function"
    },
    {
      "inputs": [],
      "name": "feeCollector",
      "outputs": [
        {
          "internalType": "address",
          "name": "",
          "type": "address"
        }
      ],
      "stateMutability": "view",
      "type": "function"
    },
    {
      "inputs": [],
      "name": "getContractCreator",
      "outputs": [
        {
          "internalType": "address",
          "name": "",
          "type": "address"
        }
      ],
      "stateMutability": "view",
      "type": "function"
    },
    {
      "inputs": [
        {
          "internalType": "uint256",
          "name": "_offset",
          "type": "uint256"
        },
        {
          "internalType": "uint256",
          "name": "_limit",
          "type": "uint256"
        }
      ],
      "name": "getPaginatedPostIds",
      "outputs": [
        {
          "internalType": "bytes32[]",
          "name": "",
          "type": "bytes32[]"
        }
      ],
      "stateMutability": "view",
      "type": "function"
    },
    {
      "inputs": [
        {
          "internalType": "bytes32",
          "name": "_postId",
          "type": "bytes32"
        }
      ],
      "name": "getPost",
      "outputs": [
        {
          "internalType": "string",
          "name": "content",
          "type": "string"
        },
        {
          "internalType": "string",
          "name": "title",
          "type": "string"
        },
        {
          "internalType": "string",
          "name": "authorDid",
          "type": "string"
        },
        {
          "internalType": "string",
          "name": "authorName",
          "type": "string"
        },
        {
          "internalType": "string",
          "name": "contentType",
          "type": "string"
        },
        {
          "internalType": "uint256",
          "name": "timestamp",
          "type": "uint256"
        },
        {
          "internalType": "string",
          "name": "visibility",
          "type": "string"
        },
        {
          "internalType": "string",
          "name": "ipfsCid",
          "type": "string"
        },
        {
          "internalType": "string",
          "name": "metadata",
          "type": "string"
        },
        {
          "internalType": "uint256",
          "name": "donation",
          "type": "uint256"
        }
      ],
      "stateMutability": "view",
      "type": "function"
    },
    {
      "inputs": [],
      "name": "getPostFee",
      "outputs": [
        {
          "internalType": "uint256",
          "name": "",
          "type": "uint256"
        }
      ],
      "stateMutability": "view",
      "type": "function"
    },
    {
      "inputs": [],
      "name": "getTotalPostsCount",
      "outputs": [
        {
          "internalType": "uint256",
          "name": "",
          "type": "uint256"
        }
      ],
      "stateMutability": "view",
      "type": "function"
    },
    {
      "inputs": [
        {
          "internalType": "string",
          "name": "_authorDid",
          "type": "string"
        }
      ],
      "name": "getUserPostIds",
      "outputs": [
        {
          "internalType": "bytes32[]",
          "name": "",
          "type": "bytes32[]"
        }
      ],
      "stateMutability": "view",
      "type": "function"
    },
    {
      "inputs": [],
      "name": "postFee",
      "outputs": [
        {
          "internalType": "uint256",
          "name": "",
          "type": "uint256"
        }
      ],
      "stateMutability": "view",
      "type": "function"
    },
    {
      "inputs": [
        {
          "internalType": "bytes32",
          "name": "",
          "type": "bytes32"
        }
      ],
      "name": "posts",
      "outputs": [
        {
          "internalType": "string",
          "name": "content",
          "type": "string"
        },
        {
          "internalType": "string",
          "name": "title",
          "type": "string"
        },
        {
          "internalType": "string",
          "name": "authorDid",
          "type": "string"
        },
        {
          "internalType": "string",
          "name": "authorName",
          "type": "string"
        },
        {
          "internalType": "string",
          "name": "contentType",
          "type": "string"
        },
        {
          "internalType": "uint256",
          "name": "timestamp",
          "type": "uint256"
        },
        {
          "internalType": "string",
          "name": "visibility",
          "type": "string"
        },
        {
          "internalType": "string",
          "name": "ipfsCid",
          "type": "string"
        },
        {
          "internalType": "string",
          "name": "metadata",
          "type": "string"
        },
        {
          "internalType": "uint256",
          "name": "donation",
          "type": "uint256"
        }
      ],
      "stateMutability": "view",
      "type": "function"
    },
    {
      "inputs": [
        {
          "internalType": "address",
          "name": "_newCollector",
          "type": "address"
        }
      ],
      "name": "setFeeCollector",
      "outputs": [],
      "stateMutability": "nonpayable",
      "type": "function"
    },
    {
      "inputs": [
        {
          "internalType": "uint256",
          "name": "_newFee",
          "type": "uint256"
        }
      ],
      "name": "setPostFee",
      "outputs": [],
      "stateMutability": "nonpayable",
      "type": "function"
    },
    {
      "inputs": [
        {
          "internalType": "string",
          "name": "",
          "type": "string"
        },
        {
          "internalType": "uint256",
          "name": "",
          "type": "uint256"
        }
      ],
      "name": "userPosts",
      "outputs": [
        {
          "internalType": "bytes32",
          "name": "",
          "type": "bytes32"
        }
      ],
      "stateMutability": "view",
      "type": "function"
    }
  ],
  "bytecode": "0x608060405266038d7ea4c6800060005534801561001b57600080fd5b5060018054336001600160a01b03199182168117909255600280549091169091179055611a308061004d6000396000f3fe6080604052600436106100e85760003560e01c806393e43bbe1161008a578063c96e33d311610059578063c96e33d31461027b578063d306dbe31461029b578063dff72dec146102b0578063fcf7becf146102d057600080fd5b806393e43bbe146101e5578063a42dce801461021b578063b63a32331461023b578063c415b95c1461025b57600080fd5b80631e2f73b1116100c65780631e2f73b11461015657806326eb4ca81461017657806344fe81861461019857806378f5b9e4146101c557600080fd5b80630e258726146100ed578063129d1da0146101245780631713b5f114610143575b600080fd5b3480156100f957600080fd5b506002546001600160a01b03165b6040516001600160a01b0390911681526020015b60405180910390f35b34801561013057600080fd5b506000545b60405190815260200161011b565b610135610151366004611477565b6102e6565b34801561016257600080fd5b50600254610107906001600160a01b031681565b34801561018257600080fd5b506101966101913660046115b7565b610673565b005b3480156101a457600080fd5b506101b86101b33660046115d0565b610717565b60405161011b91906115f2565b3480156101d157600080fd5b506101b86101e0366004611636565b6107ef565b3480156101f157600080fd5b506102056102003660046115b7565b61085f565b60405161011b9a999897969594939291906116c3565b34801561022757600080fd5b50610196610236366004611783565b610dd7565b34801561024757600080fd5b506101356102563660046115b7565b610ee7565b34801561026757600080fd5b50600154610107906001600160a01b031681565b34801561028757600080fd5b506101356102963660046117b3565b610f08565b3480156102a757600080fd5b50600554610135565b3480156102bc57600080fd5b506102056102cb3660046115b7565b610f48565b3480156102dc57600080fd5b5061013560005481565b6001546000906001600160a01b0316331461035e5760005434101561035e5760405162461bcd60e51b8152602060048201526024808201527f496e73756666696369656e742066656520666f7220626c6f636b636861696e206044820152631c1bdcdd60e21b60648201526084015b60405180910390fd5b868942604051602001610373939291906117f8565b604051602081830303815290604052805190602001209050600080543411156103a6576000546103a39034611843565b90505b60006040518061014001604052808c81526020018b81526020018a81526020018981526020018881526020014281526020018781526020018681526020018581526020018381525090508060036000858152602001908152602001600020600082015181600001908161041991906118e1565b506020820151600182019061042e90826118e1565b506040820151600282019061044390826118e1565b506060820151600382019061045890826118e1565b506080820151600482019061046d90826118e1565b5060a0820151600582015560c0820151600682019061048c90826118e1565b5060e082015160078201906104a190826118e1565b5061010082015160088201906104b790826118e1565b5061012082015181600901559050506004896040516104d691906119a1565b9081526040516020918190038201902080546001808201835560009283529282200185905560058054928301815590527f036b6384b5eca791c62761152d0c79bb0604c104a5fb6f4eb0703f3154bb3db00183905534156106275781156105ec57600154600080546040516001600160a01b039093169281156108fc0292818181858888f19350505050158015610571573d6000803e3d6000fd5b506002546040516001600160a01b039091169083156108fc029084906000818181858888f193505050501580156105ac573d6000803e3d6000fd5b50827fd3a410e45be11b81484276e5307191f9c43f87427c288ee34270bb56a1dae2d7836040516105df91815260200190565b60405180910390a2610627565b6001546040516001600160a01b03909116903480156108fc02916000818181858888f19350505050158015610625573d6000803e3d6000fd5b505b827f5946118e2d0440f4418e6032a734c048e6c4809fd514ef62b1dc993779d0c03f8a42898660405161065d94939291906119bd565b60405180910390a2505098975050505050505050565b6001546001600160a01b031633146106db5760405162461bcd60e51b815260206004820152602560248201527f4f6e6c792066656520636f6c6c6563746f722063616e206368616e6765207468604482015264652066656560d81b6064820152608401610355565b60008190556040518181527ff5ade3bd766f584efc1a0caaceb1d7b9515b0396d116362baae692997067dddb906020015b60405180910390a150565b6060600061072583856119fa565b60055490915081111561073757506005545b60006107438583611843565b905060008167ffffffffffffffff811115610760576107606113d4565b604051908082528060200260200182016040528015610789578160200160208202803683370190505b50905060005b828110156107e35760056107a382896119fa565b815481106107b3576107b3611a0d565b90600052602060002001548282815181106107d0576107d0611a0d565b602090810291909101015260010161078f565b50925050505b92915050565b606060048260405161080191906119a1565b908152604080519182900360209081018320805480830285018301909352828452919083018282801561085357602002820191906000526020600020905b81548152602001906001019080831161083f575b50505050509050919050565b606080606080606060006060806060600080600360008d8152602001908152602001600020604051806101400160405290816000820180546108a090611856565b80601f01602080910402602001604051908101604052809291908181526020018280546108cc90611856565b80156109195780601f106108ee57610100808354040283529160200191610919565b820191906000526020600020905b8154815290600101906020018083116108fc57829003601f168201915b5050505050815260200160018201805461093290611856565b80601f016020809104026020016040519081016040528092919081815260200182805461095e90611856565b80156109ab5780601f10610980576101008083540402835291602001916109ab565b820191906000526020600020905b81548152906001019060200180831161098e57829003601f168201915b505050505081526020016002820180546109c490611856565b80601f01602080910402602001604051908101604052809291908181526020018280546109f090611856565b8015610a3d5780601f10610a1257610100808354040283529160200191610a3d565b820191906000526020600020905b815481529060010190602001808311610a2057829003601f168201915b50505050508152602001600382018054610a5690611856565b80601f0160208091040260200160405190810160405280929190818152602001828054610a8290611856565b8015610acf5780601f10610aa457610100808354040283529160200191610acf565b820191906000526020600020905b815481529060010190602001808311610ab257829003601f168201915b50505050508152602001600482018054610ae890611856565b80601f0160208091040260200160405190810160405280929190818152602001828054610b1490611856565b8015610b615780601f10610b3657610100808354040283529160200191610b61565b820191906000526020600020905b815481529060010190602001808311610b4457829003601f168201915b5050505050815260200160058201548152602001600682018054610b8490611856565b80601f0160208091040260200160405190810160405280929190818152602001828054610bb090611856565b8015610bfd5780601f10610bd257610100808354040283529160200191610bfd565b820191906000526020600020905b815481529060010190602001808311610be057829003601f168201915b50505050508152602001600782018054610c1690611856565b80601f0160208091040260200160405190810160405280929190818152602001828054610c4290611856565b8015610c8f5780601f10610c6457610100808354040283529160200191610c8f565b820191906000526020600020905b815481529060010190602001808311610c7257829003601f168201915b50505050508152602001600882018054610ca890611856565b80601f0160208091040260200160405190810160405280929190818152602001828054610cd490611856565b8015610d215780601f10610cf657610100808354040283529160200191610d21565b820191906000526020600020905b815481529060010190602001808311610d0457829003601f168201915b505050505081526020016009820154815250509050600081604001515111610d815760405162461bcd60e51b8152602060048201526013602482015272141bdcdd08191bd95cc81b9bdd08195e1a5cdd606a1b6044820152606401610355565b806000015181602001518260400151836060015184608001518560a001518660c001518760e001518861010001518961012001519a509a509a509a509a509a509a509a509a509a50509193959799509193959799565b6001546001600160a01b03163314610e435760405162461bcd60e51b815260206004820152602960248201527f4f6e6c792066656520636f6c6c6563746f722063616e207472616e73666572206044820152687468697320726f6c6560b81b6064820152608401610355565b6001600160a01b038116610e995760405162461bcd60e51b815260206004820152601a60248201527f43616e6e6f742073657420746f207a65726f20616464726573730000000000006044820152606401610355565b600180546001600160a01b0319166001600160a01b0383169081179091556040519081527f9c1996a14d26c3ecd833c10222d012447ef07b09b15000f3a34318ff039c0bdc9060200161070c565b60058181548110610ef757600080fd5b600091825260209091200154905081565b81516020818401810180516004825292820191850191909120919052805482908110610f3357600080fd5b90600052602060002001600091509150505481565b600360205260009081526040902080548190610f6390611856565b80601f0160208091040260200160405190810160405280929190818152602001828054610f8f90611856565b8015610fdc5780601f10610fb157610100808354040283529160200191610fdc565b820191906000526020600020905b815481529060010190602001808311610fbf57829003601f168201915b505050505090806001018054610ff190611856565b80601f016020809104026020016040519081016040528092919081815260200182805461101d90611856565b801561106a5780601f1061103f5761010080835404028352916020019161106a565b820191906000526020600020905b81548152906001019060200180831161104d57829003601f168201915b50505050509080600201805461107f90611856565b80601f01602080910402602001604051908101604052809291908181526020018280546110ab90611856565b80156110f85780601f106110cd576101008083540402835291602001916110f8565b820191906000526020600020905b8154815290600101906020018083116110db57829003601f168201915b50505050509080600301805461110d90611856565b80601f016020809104026020016040519081016040528092919081815260200182805461113990611856565b80156111865780601f1061115b57610100808354040283529160200191611186565b820191906000526020600020905b81548152906001019060200180831161116957829003601f168201915b50505050509080600401805461119b90611856565b80601f01602080910402602001604051908101604052809291908181526020018280546111c790611856565b80156112145780601f106111e957610100808354040283529160200191611214565b820191906000526020600020905b8154815290600101906020018083116111f757829003601f168201915b50505050509080600501549080600601805461122f90611856565b80601f016020809104026020016040519081016040528092919081815260200182805461125b90611856565b80156112a85780601f1061127d576101008083540402835291602001916112a8565b820191906000526020600020905b81548152906001019060200180831161128b57829003601f168201915b5050505050908060070180546112bd90611856565b80601f01602080910402602001604051908101604052809291908181526020018280546112e990611856565b80156113365780601f1061130b57610100808354040283529160200191611336565b820191906000526020600020905b81548152906001019060200180831161131957829003601f168201915b50505050509080600801805461134b90611856565b80601f016020809104026020016040519081016040528092919081815260200182805461137790611856565b80156113c45780601f10611399576101008083540402835291602001916113c4565b820191906000526020600020905b8154815290600101906020018083116113a757829003601f168201915b505050505090806009015490508a565b634e487b7160e01b600052604160045260246000fd5b600082601f8301126113fb57600080fd5b813567ffffffffffffffff80821115611416576114166113d4565b604051601f8301601f19908116603f0116810190828211818310171561143e5761143e6113d4565b8160405283815286602085880101111561145757600080fd5b836020870160208301376000602085830101528094505050505092915050565b600080600080600080600080610100898b03121561149457600080fd5b883567ffffffffffffffff808211156114ac57600080fd5b6114b88c838d016113ea565b995060208b01359150808211156114ce57600080fd5b6114da8c838d016113ea565b985060408b01359150808211156114f057600080fd5b6114fc8c838d016113ea565b975060608b013591508082111561151257600080fd5b61151e8c838d016113ea565b965060808b013591508082111561153457600080fd5b6115408c838d016113ea565b955060a08b013591508082111561155657600080fd5b6115628c838d016113ea565b945060c08b013591508082111561157857600080fd5b6115848c838d016113ea565b935060e08b013591508082111561159a57600080fd5b506115a78b828c016113ea565b9150509295985092959890939650565b6000602082840312156115c957600080fd5b5035919050565b600080604083850312156115e357600080fd5b50508035926020909101359150565b6020808252825182820181905260009190848201906040850190845b8181101561162a5783518352928401929184019160010161160e565b50909695505050505050565b60006020828403121561164857600080fd5b813567ffffffffffffffff81111561165f57600080fd5b61166b848285016113ea565b949350505050565b60005b8381101561168e578181015183820152602001611676565b50506000910152565b600081518084526116af816020860160208601611673565b601f01601f19169290920160200192915050565b60006101408083526116d78184018e611697565b905082810360208401526116eb818d611697565b905082810360408401526116ff818c611697565b90508281036060840152611713818b611697565b90508281036080840152611727818a611697565b90508760a084015282810360c08401526117418188611697565b905082810360e08401526117558187611697565b905082810361010084015261176a8186611697565b915050826101208301529b9a5050505050505050505050565b60006020828403121561179557600080fd5b81356001600160a01b03811681146117ac57600080fd5b9392505050565b600080604083850312156117c657600080fd5b823567ffffffffffffffff8111156117dd57600080fd5b6117e9858286016113ea565b95602094909401359450505050565b6000845161180a818460208901611673565b84519083019061181e818360208901611673565b01928352505060200192915050565b634e487b7160e01b600052601160045260246000fd5b818103818111156107e9576107e961182d565b600181811c9082168061186a57607f821691505b60208210810361188a57634e487b7160e01b600052602260045260246000fd5b50919050565b601f8211156118dc576000816000526020600020601f850160051c810160208610156118b95750805b601f850160051c820191505b818110156118d8578281556001016118c5565b5050505b505050565b815167ffffffffffffffff8111156118fb576118fb6113d4565b61190f816119098454611856565b84611890565b602080601f831160018114611944576000841561192c5750858301515b600019600386901b1c1916600185901b1785556118d8565b600085815260208120601f198616915b8281101561197357888601518255948401946001909101908401611954565b50858210156119915787850151600019600388901b60f8161c191681555b5050505050600190811b01905550565b600082516119b3818460208701611673565b9190910192915050565b6080815260006119d06080830187611697565b85602084015282810360408401526119e88186611697565b91505082606083015295945050505050565b808201808211156107e9576107e961182d565b634e487b7160e01b600052603260045260246000fdfea164736f6c6343000818000a",
  "linkReferences": {},
  "deployedLinkReferences": {}
}