{
  "_format": "hh-sol-artifact-1",
  "contractName": "FeeAndTreasury",
  "sourceName": "blockchain/contracts/FeeAndTreasury.sol",
  "abi": [
    {
      "inputs": [
        {
          "internalType": "address payable",
          "name": "initialTreasury",
          "type": "address"
        }
      ],
      "stateMutability": "nonpayable",
      "type": "constructor"
    },
    {
      "inputs": [
        {
          "internalType": "address",
          "name": "owner",
          "type": "address"
        }
      ],
      "name": "OwnableInvalidOwner",
      "type": "error"
    },
    {
      "inputs": [
        {
          "internalType": "address",
          "name": "account",
          "type": "address"
        }
      ],
      "name": "OwnableUnauthorizedAccount",
      "type": "error"
    },
    {
      "anonymous": false,
      "inputs": [
        {
          "indexed": true,
          "internalType": "bytes4",
          "name": "selector",
          "type": "bytes4"
        },
        {
          "indexed": false,
          "internalType": "uint256",
          "name": "fee",
          "type": "uint256"
        }
      ],
      "name": "FeeSet",
      "type": "event"
    },
    {
      "anonymous": false,
      "inputs": [
        {
          "indexed": true,
          "internalType": "address",
          "name": "previousOwner",
          "type": "address"
        },
        {
          "indexed": true,
          "internalType": "address",
          "name": "newOwner",
          "type": "address"
        }
      ],
      "name": "OwnershipTransferred",
      "type": "event"
    },
    {
      "anonymous": false,
      "inputs": [
        {
          "indexed": true,
          "internalType": "address",
          "name": "newTreasury",
          "type": "address"
        }
      ],
      "name": "TreasuryUpdated",
      "type": "event"
    },
    {
      "inputs": [
        {
          "internalType": "bytes4",
          "name": "selector",
          "type": "bytes4"
        }
      ],
      "name": "getFee",
      "outputs": [
        {
          "internalType": "uint256",
          "name": "",
          "type": "uint256"
        }
      ],
      "stateMutability": "view",
      "type": "function"
    },
    {
      "inputs": [],
      "name": "owner",
      "outputs": [
        {
          "internalType": "address",
          "name": "",
          "type": "address"
        }
      ],
      "stateMutability": "view",
      "type": "function"
    },
    {
      "inputs": [],
      "name": "renounceOwnership",
      "outputs": [],
      "stateMutability": "nonpayable",
      "type": "function"
    },
    {
      "inputs": [
        {
          "internalType": "bytes4",
          "name": "selector",
          "type": "bytes4"
        },
        {
          "internalType": "uint256",
          "name": "fee",
          "type": "uint256"
        }
      ],
      "name": "setFee",
      "outputs": [],
      "stateMutability": "nonpayable",
      "type": "function"
    },
    {
      "inputs": [
        {
          "internalType": "address payable",
          "name": "newTreasury",
          "type": "address"
        }
      ],
      "name": "setTreasury",
      "outputs": [],
      "stateMutability": "nonpayable",
      "type": "function"
    },
    {
      "inputs": [
        {
          "internalType": "address",
          "name": "newOwner",
          "type": "address"
        }
      ],
      "name": "transferOwnership",
      "outputs": [],
      "stateMutability": "nonpayable",
      "type": "function"
    },
    {
      "inputs": [],
      "name": "treasury",
      "outputs": [
        {
          "internalType": "address payable",
          "name": "",
          "type": "address"
        }
      ],
      "stateMutability": "view",
      "type": "function"
    }
  ],
  "bytecode": "0x608060405234801561001057600080fd5b5060405161055038038061055083398101604081905261002f91610153565b338061005657604051631e4fbdf760e01b8152600060048201526024015b60405180910390fd5b61005f81610103565b506001600160a01b0381166100b65760405162461bcd60e51b815260206004820152601f60248201527f547265617375727920616464726573732063616e6e6f74206265207a65726f00604482015260640161004d565b600180546001600160a01b0319166001600160a01b0383169081179091556040517f7dae230f18360d76a040c81f050aa14eb9d6dc7901b20fc5d855e2a20fe814d190600090a250610183565b600080546001600160a01b038381166001600160a01b0319831681178455604051919092169283917f8be0079c531659141344cd1fd0a4f28419497f9722a3daafe3b4186f6b6457e09190a35050565b60006020828403121561016557600080fd5b81516001600160a01b038116811461017c57600080fd5b9392505050565b6103be806101926000396000f3fe608060405234801561001057600080fd5b506004361061007d5760003560e01c80639c87eb541161005b5780639c87eb54146100c7578063f0f44260146100ff578063f27eb4c614610112578063f2fde38b1461012557600080fd5b806361d027b314610082578063715018a6146100ac5780638da5cb5b146100b6575b600080fd5b6001546001600160a01b03165b6040516001600160a01b0390911681526020015b60405180910390f35b6100b4610138565b005b6000546001600160a01b031661008f565b6100f16100d5366004610333565b6001600160e01b03191660009081526002602052604090205490565b6040519081526020016100a3565b6100b461010d36600461036a565b61014c565b6100b4610120366004610387565b6101f9565b6100b461013336600461036a565b61025b565b610140610299565b61014a60006102c6565b565b610154610299565b6001600160a01b0381166101af5760405162461bcd60e51b815260206004820152601f60248201527f547265617375727920616464726573732063616e6e6f74206265207a65726f0060448201526064015b60405180910390fd5b600180546001600160a01b0319166001600160a01b0383169081179091556040517f7dae230f18360d76a040c81f050aa14eb9d6dc7901b20fc5d855e2a20fe814d190600090a250565b610201610299565b6001600160e01b0319821660008181526002602052604090819020839055517f489e50955ee39a91deeb8eea82384736615fe76ab945fb84d904b7f8abbafd5c9061024f9084815260200190565b60405180910390a25050565b610263610299565b6001600160a01b03811661028d57604051631e4fbdf760e01b8152600060048201526024016101a6565b610296816102c6565b50565b6000546001600160a01b0316331461014a5760405163118cdaa760e01b81523360048201526024016101a6565b600080546001600160a01b038381166001600160a01b0319831681178455604051919092169283917f8be0079c531659141344cd1fd0a4f28419497f9722a3daafe3b4186f6b6457e09190a35050565b80356001600160e01b03198116811461032e57600080fd5b919050565b60006020828403121561034557600080fd5b61034e82610316565b9392505050565b6001600160a01b038116811461029657600080fd5b60006020828403121561037c57600080fd5b813561034e81610355565b6000806040838503121561039a57600080fd5b6103a383610316565b94602093909301359350505056fea164736f6c6343000818000a",
  "linkReferences": {},
  "deployedLinkReferences": {}
}