{
  "_format": "hh-sol-artifact-1",
  "contractName": "ObjectToken",
  "sourceName": "blockchain/contracts/ObjectToken.sol",
  "abi": [
    {
      "inputs": [],
      "stateMutability": "nonpayable",
      "type": "constructor"
    },
    {
      "inputs": [
        {
          "internalType": "address",
          "name": "sender",
          "type": "address"
        },
        {
          "internalType": "uint256",
          "name": "balance",
          "type": "uint256"
        },
        {
          "internalType": "uint256",
          "name": "needed",
          "type": "uint256"
        },
        {
          "internalType": "uint256",
          "name": "tokenId",
          "type": "uint256"
        }
      ],
      "name": "ERC1155InsufficientBalance",
      "type": "error"
    },
    {
      "inputs": [
        {
          "internalType": "address",
          "name": "approver",
          "type": "address"
        }
      ],
      "name": "ERC1155InvalidApprover",
      "type": "error"
    },
    {
      "inputs": [
        {
          "internalType": "uint256",
          "name": "idsLength",
          "type": "uint256"
        },
        {
          "internalType": "uint256",
          "name": "valuesLength",
          "type": "uint256"
        }
      ],
      "name": "ERC1155InvalidArrayLength",
      "type": "error"
    },
    {
      "inputs": [
        {
          "internalType": "address",
          "name": "operator",
          "type": "address"
        }
      ],
      "name": "ERC1155InvalidOperator",
      "type": "error"
    },
    {
      "inputs": [
        {
          "internalType": "address",
          "name": "receiver",
          "type": "address"
        }
      ],
      "name": "ERC1155InvalidReceiver",
      "type": "error"
    },
    {
      "inputs": [
        {
          "internalType": "address",
          "name": "sender",
          "type": "address"
        }
      ],
      "name": "ERC1155InvalidSender",
      "type": "error"
    },
    {
      "inputs": [
        {
          "internalType": "address",
          "name": "operator",
          "type": "address"
        },
        {
          "internalType": "address",
          "name": "owner",
          "type": "address"
        }
      ],
      "name": "ERC1155MissingApprovalForAll",
      "type": "error"
    },
    {
      "inputs": [],
      "name": "EnforcedPause",
      "type": "error"
    },
    {
      "inputs": [],
      "name": "ExpectedPause",
      "type": "error"
    },
    {
      "inputs": [],
      "name": "InvalidInitialization",
      "type": "error"
    },
    {
      "inputs": [],
      "name": "NotInitializing",
      "type": "error"
    },
    {
      "inputs": [
        {
          "internalType": "address",
          "name": "owner",
          "type": "address"
        }
      ],
      "name": "OwnableInvalidOwner",
      "type": "error"
    },
    {
      "inputs": [
        {
          "internalType": "address",
          "name": "account",
          "type": "address"
        }
      ],
      "name": "OwnableUnauthorizedAccount",
      "type": "error"
    },
    {
      "inputs": [],
      "name": "ReentrancyGuardReentrantCall",
      "type": "error"
    },
    {
      "anonymous": false,
      "inputs": [
        {
          "indexed": true,
          "internalType": "address",
          "name": "account",
          "type": "address"
        },
        {
          "indexed": true,
          "internalType": "address",
          "name": "operator",
          "type": "address"
        },
        {
          "indexed": false,
          "internalType": "bool",
          "name": "approved",
          "type": "bool"
        }
      ],
      "name": "ApprovalForAll",
      "type": "event"
    },
    {
      "anonymous": false,
      "inputs": [
        {
          "indexed": false,
          "internalType": "uint64",
          "name": "version",
          "type": "uint64"
        }
      ],
      "name": "Initialized",
      "type": "event"
    },
    {
      "anonymous": false,
      "inputs": [
        {
          "indexed": true,
          "internalType": "address",
          "name": "previousOwner",
          "type": "address"
        },
        {
          "indexed": true,
          "internalType": "address",
          "name": "newOwner",
          "type": "address"
        }
      ],
      "name": "OwnershipTransferred",
      "type": "event"
    },
    {
      "anonymous": false,
      "inputs": [
        {
          "indexed": false,
          "internalType": "address",
          "name": "account",
          "type": "address"
        }
      ],
      "name": "Paused",
      "type": "event"
    },
    {
      "anonymous": false,
      "inputs": [
        {
          "indexed": true,
          "internalType": "uint256",
          "name": "tokenId",
          "type": "uint256"
        },
        {
          "indexed": true,
          "internalType": "address",
          "name": "creator",
          "type": "address"
        },
        {
          "indexed": false,
          "internalType": "uint256",
          "name": "maxSupply",
          "type": "uint256"
        },
        {
          "indexed": false,
          "internalType": "string",
          "name": "tokenURI",
          "type": "string"
        },
        {
          "indexed": false,
          "internalType": "bool",
          "name": "isNFTLike",
          "type": "bool"
        },
        {
          "indexed": false,
          "internalType": "uint256",
          "name": "maxTokensPerUser",
          "type": "uint256"
        },
        {
          "indexed": false,
          "internalType": "uint256",
          "name": "cooldownPeriodSeconds",
          "type": "uint256"
        },
        {
          "indexed": false,
          "internalType": "enum ObjectToken.RedemptionMethod",
          "name": "redemptionMethod",
          "type": "uint8"
        },
        {
          "indexed": false,
          "internalType": "address",
          "name": "redemptionAddress",
          "type": "address"
        }
      ],
      "name": "TokenTypeCreated",
      "type": "event"
    },
    {
      "anonymous": false,
      "inputs": [
        {
          "indexed": true,
          "internalType": "uint256",
          "name": "tokenId",
          "type": "uint256"
        }
      ],
      "name": "TokenTypeUpdated",
      "type": "event"
    },
    {
      "anonymous": false,
      "inputs": [
        {
          "indexed": true,
          "internalType": "address",
          "name": "redeemer",
          "type": "address"
        },
        {
          "indexed": true,
          "internalType": "uint256",
          "name": "tokenId",
          "type": "uint256"
        },
        {
          "indexed": false,
          "internalType": "uint256",
          "name": "amount",
          "type": "uint256"
        },
        {
          "indexed": false,
          "internalType": "enum ObjectToken.RedemptionMethod",
          "name": "method",
          "type": "uint8"
        },
        {
          "indexed": false,
          "internalType": "address",
          "name": "recipient",
          "type": "address"
        }
      ],
      "name": "TokensRedeemed",
      "type": "event"
    },
    {
      "anonymous": false,
      "inputs": [
        {
          "indexed": true,
          "internalType": "address",
          "name": "operator",
          "type": "address"
        },
        {
          "indexed": true,
          "internalType": "address",
          "name": "from",
          "type": "address"
        },
        {
          "indexed": true,
          "internalType": "address",
          "name": "to",
          "type": "address"
        },
        {
          "indexed": false,
          "internalType": "uint256[]",
          "name": "ids",
          "type": "uint256[]"
        },
        {
          "indexed": false,
          "internalType": "uint256[]",
          "name": "values",
          "type": "uint256[]"
        }
      ],
      "name": "TransferBatch",
      "type": "event"
    },
    {
      "anonymous": false,
      "inputs": [
        {
          "indexed": true,
          "internalType": "address",
          "name": "operator",
          "type": "address"
        },
        {
          "indexed": true,
          "internalType": "address",
          "name": "from",
          "type": "address"
        },
        {
          "indexed": true,
          "internalType": "address",
          "name": "to",
          "type": "address"
        },
        {
          "indexed": false,
          "internalType": "uint256",
          "name": "id",
          "type": "uint256"
        },
        {
          "indexed": false,
          "internalType": "uint256",
          "name": "value",
          "type": "uint256"
        }
      ],
      "name": "TransferSingle",
      "type": "event"
    },
    {
      "anonymous": false,
      "inputs": [
        {
          "indexed": false,
          "internalType": "string",
          "name": "value",
          "type": "string"
        },
        {
          "indexed": true,
          "internalType": "uint256",
          "name": "id",
          "type": "uint256"
        }
      ],
      "name": "URI",
      "type": "event"
    },
    {
      "anonymous": false,
      "inputs": [
        {
          "indexed": false,
          "internalType": "address",
          "name": "account",
          "type": "address"
        }
      ],
      "name": "Unpaused",
      "type": "event"
    },
    {
      "inputs": [
        {
          "internalType": "address",
          "name": "account",
          "type": "address"
        },
        {
          "internalType": "uint256",
          "name": "id",
          "type": "uint256"
        }
      ],
      "name": "balanceOf",
      "outputs": [
        {
          "internalType": "uint256",
          "name": "",
          "type": "uint256"
        }
      ],
      "stateMutability": "view",
      "type": "function"
    },
    {
      "inputs": [
        {
          "internalType": "address[]",
          "name": "accounts",
          "type": "address[]"
        },
        {
          "internalType": "uint256[]",
          "name": "ids",
          "type": "uint256[]"
        }
      ],
      "name": "balanceOfBatch",
      "outputs": [
        {
          "internalType": "uint256[]",
          "name": "",
          "type": "uint256[]"
        }
      ],
      "stateMutability": "view",
      "type": "function"
    },
    {
      "inputs": [
        {
          "internalType": "address",
          "name": "_creator",
          "type": "address"
        },
        {
          "internalType": "uint256",
          "name": "_maxSupply",
          "type": "uint256"
        },
        {
          "internalType": "string",
          "name": "_tokenURI",
          "type": "string"
        },
        {
          "internalType": "bool",
          "name": "_isNFTLike",
          "type": "bool"
        },
        {
          "internalType": "uint256",
          "name": "_maxTokensPerUser",
          "type": "uint256"
        },
        {
          "internalType": "uint256",
          "name": "_cooldownPeriodSeconds",
          "type": "uint256"
        },
        {
          "internalType": "enum ObjectToken.RedemptionMethod",
          "name": "_redemptionMethod",
          "type": "uint8"
        },
        {
          "internalType": "address",
          "name": "_redemptionAddress",
          "type": "address"
        }
      ],
      "name": "createTokenType",
      "outputs": [
        {
          "internalType": "uint256",
          "name": "",
          "type": "uint256"
        }
      ],
      "stateMutability": "nonpayable",
      "type": "function"
    },
    {
      "inputs": [],
      "name": "getCurrentTokenId",
      "outputs": [
        {
          "internalType": "uint256",
          "name": "",
          "type": "uint256"
        }
      ],
      "stateMutability": "view",
      "type": "function"
    },
    {
      "inputs": [
        {
          "internalType": "address",
          "name": "initialOwner",
          "type": "address"
        },
        {
          "internalType": "string",
          "name": "baseTokenURI",
          "type": "string"
        }
      ],
      "name": "initialize",
      "outputs": [],
      "stateMutability": "nonpayable",
      "type": "function"
    },
    {
      "inputs": [
        {
          "internalType": "address",
          "name": "account",
          "type": "address"
        },
        {
          "internalType": "address",
          "name": "operator",
          "type": "address"
        }
      ],
      "name": "isApprovedForAll",
      "outputs": [
        {
          "internalType": "bool",
          "name": "",
          "type": "bool"
        }
      ],
      "stateMutability": "view",
      "type": "function"
    },
    {
      "inputs": [
        {
          "internalType": "uint256",
          "name": "",
          "type": "uint256"
        },
        {
          "internalType": "address",
          "name": "",
          "type": "address"
        }
      ],
      "name": "lastAcquiredTimestamp",
      "outputs": [
        {
          "internalType": "uint256",
          "name": "",
          "type": "uint256"
        }
      ],
      "stateMutability": "view",
      "type": "function"
    },
    {
      "inputs": [
        {
          "internalType": "address",
          "name": "_to",
          "type": "address"
        },
        {
          "internalType": "uint256",
          "name": "_tokenId",
          "type": "uint256"
        },
        {
          "internalType": "uint256",
          "name": "_amount",
          "type": "uint256"
        },
        {
          "internalType": "bytes",
          "name": "_data",
          "type": "bytes"
        }
      ],
      "name": "mintTokens",
      "outputs": [],
      "stateMutability": "nonpayable",
      "type": "function"
    },
    {
      "inputs": [],
      "name": "owner",
      "outputs": [
        {
          "internalType": "address",
          "name": "",
          "type": "address"
        }
      ],
      "stateMutability": "view",
      "type": "function"
    },
    {
      "inputs": [],
      "name": "pause",
      "outputs": [],
      "stateMutability": "nonpayable",
      "type": "function"
    },
    {
      "inputs": [],
      "name": "paused",
      "outputs": [
        {
          "internalType": "bool",
          "name": "",
          "type": "bool"
        }
      ],
      "stateMutability": "view",
      "type": "function"
    },
    {
      "inputs": [
        {
          "internalType": "uint256",
          "name": "_tokenId",
          "type": "uint256"
        },
        {
          "internalType": "uint256",
          "name": "_amount",
          "type": "uint256"
        },
        {
          "internalType": "bytes",
          "name": "_data",
          "type": "bytes"
        }
      ],
      "name": "redeemTokens",
      "outputs": [],
      "stateMutability": "nonpayable",
      "type": "function"
    },
    {
      "inputs": [],
      "name": "renounceOwnership",
      "outputs": [],
      "stateMutability": "nonpayable",
      "type": "function"
    },
    {
      "inputs": [
        {
          "internalType": "address",
          "name": "from",
          "type": "address"
        },
        {
          "internalType": "address",
          "name": "to",
          "type": "address"
        },
        {
          "internalType": "uint256[]",
          "name": "ids",
          "type": "uint256[]"
        },
        {
          "internalType": "uint256[]",
          "name": "values",
          "type": "uint256[]"
        },
        {
          "internalType": "bytes",
          "name": "data",
          "type": "bytes"
        }
      ],
      "name": "safeBatchTransferFrom",
      "outputs": [],
      "stateMutability": "nonpayable",
      "type": "function"
    },
    {
      "inputs": [
        {
          "internalType": "address",
          "name": "from",
          "type": "address"
        },
        {
          "internalType": "address",
          "name": "to",
          "type": "address"
        },
        {
          "internalType": "uint256",
          "name": "id",
          "type": "uint256"
        },
        {
          "internalType": "uint256",
          "name": "value",
          "type": "uint256"
        },
        {
          "internalType": "bytes",
          "name": "data",
          "type": "bytes"
        }
      ],
      "name": "safeTransferFrom",
      "outputs": [],
      "stateMutability": "nonpayable",
      "type": "function"
    },
    {
      "inputs": [
        {
          "internalType": "address",
          "name": "operator",
          "type": "address"
        },
        {
          "internalType": "bool",
          "name": "approved",
          "type": "bool"
        }
      ],
      "name": "setApprovalForAll",
      "outputs": [],
      "stateMutability": "nonpayable",
      "type": "function"
    },
    {
      "inputs": [
        {
          "internalType": "string",
          "name": "newBaseURI",
          "type": "string"
        }
      ],
      "name": "setBaseURI",
      "outputs": [],
      "stateMutability": "nonpayable",
      "type": "function"
    },
    {
      "inputs": [
        {
          "internalType": "bytes4",
          "name": "interfaceId",
          "type": "bytes4"
        }
      ],
      "name": "supportsInterface",
      "outputs": [
        {
          "internalType": "bool",
          "name": "",
          "type": "bool"
        }
      ],
      "stateMutability": "view",
      "type": "function"
    },
    {
      "inputs": [
        {
          "internalType": "uint256",
          "name": "",
          "type": "uint256"
        }
      ],
      "name": "tokenTypeDetails",
      "outputs": [
        {
          "internalType": "address",
          "name": "creator",
          "type": "address"
        },
        {
          "internalType": "uint256",
          "name": "maxSupply",
          "type": "uint256"
        },
        {
          "internalType": "uint256",
          "name": "currentMintedAmount",
          "type": "uint256"
        },
        {
          "internalType": "bool",
          "name": "isNFTLike",
          "type": "bool"
        },
        {
          "internalType": "string",
          "name": "tokenURI",
          "type": "string"
        },
        {
          "internalType": "uint256",
          "name": "maxTokensPerUser",
          "type": "uint256"
        },
        {
          "internalType": "uint256",
          "name": "cooldownPeriodSeconds",
          "type": "uint256"
        },
        {
          "internalType": "enum ObjectToken.RedemptionMethod",
          "name": "redemptionMethod",
          "type": "uint8"
        },
        {
          "internalType": "address",
          "name": "redemptionAddress",
          "type": "address"
        }
      ],
      "stateMutability": "view",
      "type": "function"
    },
    {
      "inputs": [
        {
          "internalType": "address",
          "name": "newOwner",
          "type": "address"
        }
      ],
      "name": "transferOwnership",
      "outputs": [],
      "stateMutability": "nonpayable",
      "type": "function"
    },
    {
      "inputs": [],
      "name": "unpause",
      "outputs": [],
      "stateMutability": "nonpayable",
      "type": "function"
    },
    {
      "inputs": [
        {
          "internalType": "uint256",
          "name": "_tokenId",
          "type": "uint256"
        },
        {
          "internalType": "address",
          "name": "_newCreator",
          "type": "address"
        },
        {
          "internalType": "uint256",
          "name": "_newMaxSupply",
          "type": "uint256"
        },
        {
          "internalType": "string",
          "name": "_newTokenURI",
          "type": "string"
        },
        {
          "internalType": "bool",
          "name": "_newIsNFTLike",
          "type": "bool"
        },
        {
          "internalType": "uint256",
          "name": "_newMaxTokensPerUser",
          "type": "uint256"
        },
        {
          "internalType": "uint256",
          "name": "_newCooldownPeriodSeconds",
          "type": "uint256"
        },
        {
          "internalType": "enum ObjectToken.RedemptionMethod",
          "name": "_newRedemptionMethod",
          "type": "uint8"
        },
        {
          "internalType": "address",
          "name": "_newRedemptionAddress",
          "type": "address"
        }
      ],
      "name": "updateTokenTypeDetails",
      "outputs": [],
      "stateMutability": "nonpayable",
      "type": "function"
    },
    {
      "inputs": [
        {
          "internalType": "uint256",
          "name": "tokenId",
          "type": "uint256"
        }
      ],
      "name": "uri",
      "outputs": [
        {
          "internalType": "string",
          "name": "",
          "type": "string"
        }
      ],
      "stateMutability": "view",
      "type": "function"
    }
  ],
  "bytecode": "0x608080604052346100b9577ff0c57e16840df040f15088dc2f81fe391c3923bec73e23a9662efc9c229c6a009081549060ff8260401c166100aa57506001600160401b036002600160401b031982821601610065575b60405161326b9081620000bf8239f35b6001600160401b031990911681179091556040519081527fc7f505b2f371ae2175ee4913f4499e1f2633a7b5936321eed1cdaeb6115181d290602090a1388080610055565b63f92ee8a960e01b8152600490fd5b600080fdfe6080604052600436101561001257600080fd5b60003560e01c8062fdd58e1461018657806301ffc9a7146101815780630e89341c1461017c57806327d03961146101775780632eb2c2d6146101725780633f4ba83a1461016d5780634e1273f41461016857806355f804b314610163578063561892361461015e5780635c975abb146101595780635e50584f14610154578063715018a61461014f5780638456cb591461014a5780638da5cb5b14610145578063a22cb46514610140578063b8c824931461013b578063c23d9b6914610136578063c6c5380514610131578063e985e9c51461012c578063f1e0451314610127578063f242432a14610122578063f2fde38b1461011d5763f399e22e1461011857600080fd5b611361565b611338565b611290565b61121c565b6111df565b61115f565b610f33565b610cf8565b610c58565b610c22565b610bbb565b610b4d565b610b09565b610aa0565b610a82565b610973565b6108b9565b6107fa565b6106c7565b610558565b610331565b61027b565b6101fd565b600435906001600160a01b03821682036101a157565b600080fd5b602435906001600160a01b03821682036101a157565b60e435906001600160a01b03821682036101a157565b61010435906001600160a01b03821682036101a157565b35906001600160a01b03821682036101a157565b346101a15760403660031901126101a157602061026061021b61018b565b6024356000527f88be536d5240c274a3b1d3a1be54482fd9caa294f08c62a7cde569f49a3c4500835260406000209060018060a01b0316600052602052604060002090565b54604051908152f35b6001600160e01b03198116036101a157565b346101a15760203660031901126101a157602060043561029a81610269565b63ffffffff60e01b16636cdb3d1360e11b81149081156102d8575b81156102c7575b506040519015158152f35b6301ffc9a760e01b149050386102bc565b6303a24d0760e21b811491506102b5565b60005b8381106102fc5750506000910152565b81810151838201526020016102ec565b90602091610325815180928185528580860191016102e9565b601f01601f1916010190565b346101a15760203660031901126101a15761036461035060043561159d565b60405191829160208352602083019061030c565b0390f35b6000527f88be536d5240c274a3b1d3a1be54482fd9caa294f08c62a7cde569f49a3c4500602052604060002090565b90600182811c921680156103c7575b60208310146103b157565b634e487b7160e01b600052602260045260246000fd5b91607f16916103a6565b634e487b7160e01b600052604160045260246000fd5b602081019081106001600160401b0382111761040257604052565b6103d1565b90601f801991011681019081106001600160401b0382111761040257604052565b9060405191826000825461043b81610397565b908184526020946001916001811690816000146104ab575060011461046c575b50505061046a92500383610407565b565b600090815285812095935091905b81831061049357505061046a935082010138808061045b565b8554888401850152948501948794509183019161047a565b9250505061046a94925060ff191682840152151560051b82010138808061045b565b600311156104d757565b634e487b7160e01b600052602160045260246000fd5b9060038210156104d75752565b97929461010097926105529561053d93989c9b976101209260018060a01b03809b168d5260208d015260408c0152151560608b01528060808b015289019061030c565b9860a088015260c087015260e08601906104ed565b16910152565b346101a15760203660031901126101a157600435600052600160205260ff604060002061036460018060a01b0391828154166001820154916002810154866003830154166105a860048401610428565b9060058401549260076006860154950154966040519a8b9a8960081c169816968a6104fa565b6040519061012082018281106001600160401b0382111761040257604052565b6001600160401b0381116104025760051b60200190565b9080601f830112156101a157602090823561061f816105ee565b9361062d6040519586610407565b81855260208086019260051b8201019283116101a157602001905b828210610656575050505090565b81358152908301908301610648565b6001600160401b03811161040257601f01601f191660200190565b81601f820112156101a15780359061069782610665565b926106a56040519485610407565b828452602083830101116101a157816000926020809301838601378301015290565b346101a15760a03660031901126101a1576106e061018b565b6106e86101a6565b90604435916001600160401b03908184116101a15761070c60049436908601610605565b906064358381116101a1576107249036908701610605565b926084359081116101a15761073c9036908701610680565b936001600160a01b038082169033821415806107cb575b61079e57831615610786571561076f5761076d9550612c41565b005b604051626a0d4560e21b8152600081880152602490fd5b604051632bfa23e760e11b8152600081890152602490fd5b6040805163711bec9160e11b815233818b019081526001600160a01b038616602082015290918291010390fd5b5060ff6107f2336107db86610ad0565b9060018060a01b0316600052602052604060002090565b541615610753565b346101a15760003660031901126101a15761081361284d565b6000805160206131d6833981519152805460ff81161561085f5760ff191690557f5db9ee0a495bf2e6ff9c91a7834c1ba4fdd244a5e8aa4e537bd38aeae4b073aa6020604051338152a1005b604051638dfc202b60e01b8152600490fd5b90815180825260208080930193019160005b828110610891575050505090565b835185529381019392810192600101610883565b9060206108b6928181520190610871565b90565b346101a15760403660031901126101a1576004356001600160401b038082116101a157366023830112156101a15781600401356108f5816105ee565b926109036040519485610407565b8184526020916024602086019160051b830101913683116101a157602401905b82821061095c57856024358681116101a1576103649161094a610950923690600401610605565b906116b8565b604051918291826108a5565b838091610968846101e9565b815201910190610923565b346101a1576020806003193601126101a1576001600160401b036004358181116101a1576109a5903690600401610680565b916109ae61284d565b8251918211610402576109cb826109c6600354610397565b61175d565b602090601f8311600114610a0d575081906109fd93600092610a02575b50508160011b916000199060031b1c19161790565b600355005b0151905038806109e8565b90601f19831693610a2e600360005260008051602061319683398151915290565b926000905b868210610a6a5750508360019510610a51575b505050811b01600355005b015160001960f88460031b161c19169055388080610a46565b80600185968294968601518155019501930190610a33565b346101a15760003660031901126101a1576020600054604051908152f35b346101a15760003660031901126101a157602060ff6000805160206131d683398151915254166040519015158152f35b6001600160a01b031660009081527f88be536d5240c274a3b1d3a1be54482fd9caa294f08c62a7cde569f49a3c45016020526040902090565b346101a15760403660031901126101a1576020610260610b276101a6565b6004356000526002835260406000209060018060a01b0316600052602052604060002090565b346101a157600080600319360112610bb857610b6761284d565b6000805160206131b683398151915280546001600160a01b0319811690915581906001600160a01b03167f8be0079c531659141344cd1fd0a4f28419497f9722a3daafe3b4186f6b6457e08280a380f35b80fd5b346101a15760003660031901126101a157610bd461284d565b610bdc612886565b6000805160206131d6833981519152600160ff198254161790557f62e78cea01bee320cd4e420270b5ea74000d11b0c9f74754ebdbfc544b05a2586020604051338152a1005b346101a15760003660031901126101a1576000805160206131b6833981519152546040516001600160a01b039091168152602090f35b346101a15760403660031901126101a157610c7161018b565b60243590811515908183036101a1576001600160a01b038116928315610ce057610ca1610cb2926107db33610ad0565b9060ff801983541691151516179055565b6040519081527f17307eab39ab6107e8899845ad3d59bd9653f200f220920489ca2b5937696c3160203392a3005b60405162ced3e160e81b815260006004820152602490fd5b346101a15760603660031901126101a1576004356024356044356001600160401b0381116101a157610d2e903690600401610680565b610d36612886565b610d3e6128b1565b610d52836000526001602052604060002090565b80549091906001600160a01b0390610d7190829081165b161515611a3a565b610d8a84610d82336107db89610368565b541015611a95565b610d95841515611af5565b600091600784019182549060ff8216610dad816104cd565b80610e2a5750505050610dff9060027fbc26203cc1c50a3212092083fbfa8870c14f51ad40f04565520987bb8e49383894610de9878933612961565b01610df5868254611bdf565b90555b5460ff1690565b610e10604051928392339684611bf1565b0390a361076d60016000805160206131f683398151915255565b9091929450610e38816104cd565b60018103610e8857505092547fbc26203cc1c50a3212092083fbfa8870c14f51ad40f04565520987bb8e4938389350610dff9190610e83906001600160a01b031693868886336128e1565b610df8565b60029193929550610e98816104cd565b03610edf57610e83610dff927fbc26203cc1c50a3212092083fbfa8870c14f51ad40f04565520987bb8e4938389560081c1693610ed6851515611b57565b868886336128e1565b60405162461bcd60e51b815260206004820152602660248201527f4f626a656374546f6b656e3a20556e6b6e6f776e20726564656d7074696f6e206044820152651b595d1a1bd960d21b6064820152608490fd5b346101a15760803660031901126101a157610f4c61018b565b60243590604435906064356001600160401b0381116101a15761106192610f7a61104c923690600401610680565b90610f83612886565b610f8b6128b1565b610f9f6001600160a01b0385161515611c1a565b6002610fb5876000526001602052604060002090565b8054610fd1906001600160a01b03165b6001600160a01b031690565b610fdc811515611a3a565b33148015611120575b610fee90611c74565b610ff9831515611af5565b600181015480611102575b50600381015460ff16156110c85761101e60018414611dd7565b60016005820154146110ac575b600681015480611079575b5001611043828254611ce6565b90558584612acb565b6107db42936000526002602052604060002090565b5561076d60016000805160206131f683398151915255565b61109e6110a691611098896107db8d6000526002602052604060002090565b54611ce6565b421015611ed6565b38611036565b6110c36110bc876107db8b610368565b5415611e53565b61102b565b8760058201548785826110df575b5050505061102b565b6110986110f2926107db6110f996610368565b1115611d65565b873887856110d6565b61111a906111138585850154611ce6565b1115611cf3565b38611004565b506000805160206131b683398151915254610fee90611147906001600160a01b0316610fc5565b33149050610fe5565b60c4359060038210156101a157565b346101a1576101003660031901126101a15761117961018b565b6044356001600160401b0381116101a157611198903690600401610680565b60643580151581036101a157610364926111cf926111b4611150565b916111bd6101bc565b9360a435926084359260243590611f47565b6040519081529081906020820190565b346101a15760403660031901126101a157602060ff6112106111ff61018b565b6107db61120a6101a6565b91610ad0565b54166040519015158152f35b346101a1576101203660031901126101a1576112366101a6565b6064356001600160401b0381116101a157611255903690600401610680565b6084359081151582036101a15760e4359060038210156101a15761076d9361127b6101d2565b9360c4359260a435926044359060043561232a565b346101a15760a03660031901126101a1576112a961018b565b6112b16101a6565b6084356001600160401b0381116101a1576112d0903690600401610680565b906001600160a01b03831633141580611320575b6112f95761076d9260643591604435916128e1565b60405163711bec9160e11b81523360048201526001600160a01b0384166024820152604490fd5b5060ff611330336107db86610ad0565b5416156112e4565b346101a15760203660031901126101a15761076d61135461018b565b61135c61284d565b6124f7565b346101a15760403660031901126101a15761137a61018b565b6001600160401b03906024358281116101a15761139b903690600401610680565b600080516020613216833981519152549260ff8460401c16159316801590816114a3575b6001149081611499575b159081611490575b5061147e57600080516020613216833981519152805467ffffffffffffffff1916600117905561140591836114545761256b565b61140b57005b600080516020613216833981519152805460ff60401b19169055604051600181527fc7f505b2f371ae2175ee4913f4499e1f2633a7b5936321eed1cdaeb6115181d290602090a1005b600080516020613216833981519152805460ff60401b19166801000000000000000017905561256b565b60405163f92ee8a960e01b8152600490fd5b905015386113d1565b303b1591506113c9565b8491506113bf565b6114f2916000527f88be536d5240c274a3b1d3a1be54482fd9caa294f08c62a7cde569f49a3c450060205260406000209060018060a01b0316600052602052604060002090565b5490565b6003546000929161150682610397565b91600190818116908115611560575060011461152157505050565b90919293506003600052600080516020613196833981519152906000915b84831061154d575050500190565b818160209254858701520192019161153f565b60ff191683525050811515909102019150565b90611586602092828151948592016102e9565b0190565b60405190611597826103e7565b60008252565b600081815260016020526040902080546001600160a01b031615611624576004016115c88154610397565b61161a57506115d8600354610397565b6115e557506108b661158a565b6108b66115f461160c92612709565b604051928391611606602084016114f6565b90611573565b03601f198101835282610407565b6108b69150610428565b608460405162461bcd60e51b815260206004820152604060248201527f4f626a656374546f6b656e3a20546f6b656e207479706520646f6573206e6f7460448201527f206578697374206f7220686173206e6f2063726561746f7220646566696e65646064820152fd5b80518210156116a25760209160051b010190565b634e487b7160e01b600052603260045260246000fd5b9190918051835180820361173b5750508051906116ed6116d7836105ee565b926116e56040519485610407565b8084526105ee565b60209190601f1901368484013760005b8151811015611733578061172260019260051b85808287010151918a010151906114ab565b61172c828761168e565b52016116fd565b509193505050565b604051635b05999160e01b815260048101919091526024810191909152604490fd5b601f8111611769575050565b6000906003600052600080516020613196833981519152906020601f850160051c830194106117b3575b601f0160051c01915b8281106117a857505050565b81815560010161179c565b9092508290611793565b601f81116117c9575050565b6000907f88be536d5240c274a3b1d3a1be54482fd9caa294f08c62a7cde569f49a3c45026000527ff429cb5e2ec84cbb765e76b31964a56ccde03e7a6122d6cc4afb19edc55edeed906020601f850160051c83019410611844575b601f0160051c01915b82811061183957505050565b81815560010161182d565b9092508290611824565b90601f811161185c57505050565b6000916000526020600020906020601f850160051c8301941061189a575b601f0160051c01915b82811061188f57505050565b818155600101611883565b909250829061187a565b9081516001600160401b038111610402576118c4816109c6600354610397565b602080601f83116001146118fb575081906118f69394600092610a025750508160011b916000199060031b1c19161790565b600355565b90601f1983169461191c600360005260008051602061319683398151915290565b926000905b878210611959575050836001959610611940575b505050811b01600355565b015160001960f88460031b161c19169055388080611935565b80600185968294968601518155019501930190611921565b91909182516001600160401b03811161040257611998816119928454610397565b8461184e565b602080601f83116001146119cf575081906119cb939495600092610a025750508160011b916000199060031b1c19161790565b9055565b90601f198316956119e585600052602060002090565b926000905b888210611a2257505083600195969710611a09575b505050811b019055565b015160001960f88460031b161c191690553880806119ff565b806001859682949686015181550195019301906119ea565b15611a4157565b60405162461bcd60e51b815260206004820152602660248201527f4f626a656374546f6b656e3a20546f6b656e207479706520646f6573206e6f7460448201526508195e1a5cdd60d21b6064820152608490fd5b15611a9c57565b60405162461bcd60e51b815260206004820152602b60248201527f4f626a656374546f6b656e3a20496e73756666696369656e742062616c616e6360448201526a6520746f2072656465656d60a81b6064820152608490fd5b15611afc57565b60405162461bcd60e51b815260206004820152602d60248201527f4f626a656374546f6b656e3a20416d6f756e74206d757374206265206772656160448201526c746572207468616e207a65726f60981b6064820152608490fd5b15611b5e57565b60405162461bcd60e51b815260206004820152603760248201527f4f626a656374546f6b656e3a20526564656d7074696f6e20616464726573732060448201527f6e6f742073657420666f722074686973206d6574686f640000000000000000006064820152608490fd5b634e487b7160e01b600052601160045260246000fd5b91908203918211611bec57565b611bc9565b9192611c0c60409295946060850196855260208501906104ed565b6001600160a01b0316910152565b15611c2157565b60405162461bcd60e51b815260206004820152602560248201527f4f626a656374546f6b656e3a204d696e7420746f20746865207a65726f206164604482015264647265737360d81b6064820152608490fd5b15611c7b57565b60405162461bcd60e51b815260206004820152603d60248201527f4f626a656374546f6b656e3a2043616c6c6572206973206e6f7420617574686f60448201527f72697a656420746f206d696e74207468697320746f6b656e20747970650000006064820152608490fd5b91908201809211611bec57565b15611cfa57565b60405162461bcd60e51b815260206004820152603b60248201527f4f626a656374546f6b656e3a204d696e74696e672065786365656473206d617860448201527f20737570706c7920666f72207468697320746f6b656e207479706500000000006064820152608490fd5b15611d6c57565b60405162461bcd60e51b815260206004820152603e60248201527f4f626a656374546f6b656e3a204d696e74696e672065786365656473206d617860448201527f20746f6b656e7320706572207573657220666f722074686973207479706500006064820152608490fd5b15611dde57565b60405162461bcd60e51b815260206004820152604160248201527f4f626a656374546f6b656e3a204e46542d6c696b6520746f6b656e732063616e60448201527f206f6e6c79206265206d696e74656420696e20616e20616d6f756e74206f66206064820152603160f81b608482015260a490fd5b15611e5a57565b60405162461bcd60e51b815260206004820152604860248201527f4f626a656374546f6b656e3a205573657220616c7265616479206f776e73206160448201527f6e20696e7374616e6365206f66207468697320756e69717565204e46542d6c6960648201526735b2903a37b5b2b760c11b608482015260a490fd5b15611edd57565b608460405162461bcd60e51b815260206004820152604060248201527f4f626a656374546f6b656e3a20436f6f6c646f776e20706572696f642061637460448201527f69766520666f722074686973207573657220616e6420746f6b656e20747970656064820152fd5b949661204e91929396612042987f13531e80a045b32bbf95432ebbc8dc69b8635077c54894e9045e996cd498b87496611f7e61284d565b611f866128b1565b6001600160a01b038981169a908190611fa08d151561209c565b611fa9866104cd565b60028614612089575b50612068575b611fc36000546121e4565b9b8c9a8b600055611fe4611fd56105ce565b6001600160a01b039092168252565b602081018990526000604082015282151560608201528960808201528360a08201528460c08201526120198660e083016121f3565b6001600160a01b03871661010082015261203d8c6000526001602052604060002090565b612217565b604051978897886122ea565b0390a36108b660016000805160206131f683398151915255565b8115801561207f575b61207a90612172565b611fb8565b5060018214612071565b6120969087161515612100565b38611fb2565b156120a357565b60405162461bcd60e51b815260206004820152602f60248201527f4f626a656374546f6b656e3a2043726561746f722063616e6e6f74206265207460448201526e6865207a65726f206164647265737360881b6064820152608490fd5b1561210757565b60405162461bcd60e51b815260206004820152603f60248201527f4f626a656374546f6b656e3a20526564656d7074696f6e20616464726573732060448201527f6d7573742062652073657420666f72207472616e73666572206d6574686f64006064820152608490fd5b1561217957565b60405162461bcd60e51b815260206004820152603d60248201527f4f626a656374546f6b656e3a204e46542d6c696b6520746f6b656e206d61785460448201527f6f6b656e73506572557365722073686f756c642062652030206f7220310000006064820152608490fd5b6000198114611bec5760010190565b60038210156104d75752565b9060038110156104d75760ff80198354169116179055565b815181546001600160a01b0319166001600160a01b0390911617815561046a91906122c89061010090600790602085015160018201556040850151600282015561227c6122676060870151151590565b600383019060ff801983541691151516179055565b61228d608086015160048301611971565b60a0850151600582015560c0850151600682015501926122ba60e08201516122b4816104cd565b856121ff565b01516001600160a01b031690565b8154610100600160a81b03191660089190911b610100600160a81b0316179055565b95919361230e611c0c9499989560c09793895260e060208a015260e089019061030c565b98151560408801526060870152608086015260a08501906104ed565b979590946123a660029561239160079661234261284d565b61234a6128b1565b61235e8d6000526001602052604060002090565b80546001600160a01b039b9198919061237a908d908116610d69565b8b8116612452575b50600188015560048701611971565b600385019060ff801983541691151516179055565b6005830155600682015501936123bc81866121ff565b6123c5816104cd565b0361243c57916123db6124009383161515612472565b8054610100600160a81b03191660089290921b610100600160a81b0316919091179055565b7f6ac5a708b4c64eaf9de029a022cd333fb822bcdd079d7722de9ce9c83de8800f600080a261046a60016000805160206131f683398151915255565b50508054610100600160a81b0319169055612400565b88546001600160a01b0319166001600160a01b0390911617885538612382565b1561247957565b60405162461bcd60e51b815260206004820152604a60248201527f4f626a656374546f6b656e3a20526564656d7074696f6e20616464726573732060448201527f6d7573742062652073657420666f72207472616e73666572206d6574686f6420606482015269666f722075706461746560b01b608482015260a490fd5b6001600160a01b03908116908115612552576000805160206131b683398151915280546001600160a01b031981168417909155167f8be0079c531659141344cd1fd0a4f28419497f9722a3daafe3b4186f6b6457e0600080a3565b604051631e4fbdf760e01b815260006004820152602490fd5b604051612577816103e7565b60008152612583612e19565b61258b612e19565b80516001600160401b038111610402577f88be536d5240c274a3b1d3a1be54482fd9caa294f08c62a7cde569f49a3c4502916125d0826125cb8554610397565b6117bd565b602090816001601f85111461262857508261046a969593612613959361260c93600092610a025750508160011b916000199060031b1c19161790565b9055612c09565b61261b612e19565b612623612c1d565b6118a4565b7f88be536d5240c274a3b1d3a1be54482fd9caa294f08c62a7cde569f49a3c45026000529190601f1984167ff429cb5e2ec84cbb765e76b31964a56ccde03e7a6122d6cc4afb19edc55edeed936000905b8282106126bf57505092600192859261046a9998966126139896106126a6575b505050811b019055612c09565b015160001960f88460031b161c19169055388080612699565b80600186978294978701518155019601940190612679565b906126e182610665565b6126ee6040519182610407565b82815280926126ff601f1991610665565b0190602036910137565b806000917a184f03e93ff9f4daa797ed6e38ed64bf6a1f0100000000000000008082101561283f575b506d04ee2d6d415b85acef810000000080831015612830575b50662386f26fc1000080831015612821575b506305f5e10080831015612812575b5061271080831015612803575b5060648210156127f3575b600a809210156127e9575b6001908160216127a1600187016126d7565b95860101905b6127b3575b5050505090565b600019019083906f181899199a1a9b1b9c1cb0b131b232b360811b8282061a8353049182156127e4579190826127a7565b6127ac565b916001019161278f565b9190606460029104910191612784565b60049193920491019138612779565b6008919392049101913861276c565b6010919392049101913861275d565b6020919392049101913861274b565b604093508104915038612732565b6000805160206131b6833981519152546001600160a01b0316330361286e57565b60405163118cdaa760e01b8152336004820152602490fd5b60ff6000805160206131d6833981519152541661289f57565b60405163d93c066560e01b8152600490fd5b6000805160206131f683398151915260028154146128cf5760029055565b604051633ee5aeb560e01b8152600490fd5b92939290916001600160a01b0380841615612948578216156129305761046a9461292860405192600184526020840152604083019160018352606084015260808301604052565b929091612c41565b604051626a0d4560e21b815260006004820152602490fd5b604051632bfa23e760e11b815260006004820152602490fd5b6001600160a01b0381169290919083156129305761299c60405192600184526020840152604083019160018352606084015260808301604052565b919060409460006040516129af816103e7565b52815184519081810361173b57505060005b8251811015612a41578060051b602080828601015191870101516129e8866107db84610368565b54818110612a0b57866107db6001959493612a04930393610368565b55016129c1565b89516303dee4c560e01b81526001600160a01b038816600482015260248101919091526044810182905260648101839052608490fd5b50945060009392915060018151148414612a985760209081015191810151604080519384529183015233917fc3d58168c5ae7397731d063d5bbf3d657854427343f4c083240f7aacaa2d0f6291819081015b0390a4565b60405133927f4a39dc06d4c0dbc64b70af90fd698a233a518aa5d07e595d983b8c0526c8f7fb928291612a939183612e48565b6001600160a01b0381169392909190841561294857612b0760405192600184526020840152604083019160018352606084015260808301604052565b92815184519081810361173b57505060005b8251811015612b56578060019160051b612b4e612b46876107db602080868b010151958c01015194610368565b918254611ce6565b905501612b19565b509291936001825114600014612bcd5760208281015184820151604080519283529282015260009133917fc3d58168c5ae7397731d063d5bbf3d657854427343f4c083240f7aacaa2d0f629190a45b8051600103612bc3579060208061046a959301519101519133613129565b61046a9333612f2f565b60006040517f4a39dc06d4c0dbc64b70af90fd698a233a518aa5d07e595d983b8c0526c8f7fb339180612c01888883612e48565b0390a4612ba5565b61046a90612c15612e19565b61135c612e19565b612c25612e19565b612c2d612e19565b60016000805160206131f683398151915255565b94919091815184519081810361173b57505060005b8251811015612d2357600581901b83810160209081015191870101516001600160a01b03929186908a8516612cb3575b6001948216612c99575b50505001612c56565b612ca9916107db612b4692610368565b9055388581612c90565b9192939050612cc58a6107db84610368565b54838110612cec5791879184600196959403612ce48d6107db85610368565b559450612c86565b6040516303dee4c560e01b81526001600160a01b038c16600482015260248101919091526044810184905260648101839052608490fd5b509491939290936001855114600014612dce576020858101518382015160408051928352928201526001600160a01b03838116929086169133917fc3d58168c5ae7397731d063d5bbf3d657854427343f4c083240f7aacaa2d0f6291a45b6001600160a01b038116612d97575b5050505050565b8451600103612dbd57602080612db3960151920151923361315e565b3880808080612d90565b612dc99491923361302a565b612db3565b6040516001600160a01b03828116919085169033907f4a39dc06d4c0dbc64b70af90fd698a233a518aa5d07e595d983b8c0526c8f7fb9080612e11888c83612e48565b0390a4612d81565b60ff6000805160206132168339815191525460401c1615612e3657565b604051631afcd79f60e31b8152600490fd5b9091612e5f6108b693604084526040840190610871565b916020818403910152610871565b908160209103126101a157516108b681610269565b92612eb16108b69593612ebf9360018060a01b031686526000602087015260a0604087015260a0860190610871565b908482036060860152610871565b91608081840391015261030c565b93906108b69593612eb191612ebf9460018060a01b03809216885216602087015260a0604087015260a0860190610871565b3d15612f2a573d90612f1082610665565b91612f1e6040519384610407565b82523d6000602084013e565b606090565b9293919093843b612f41575050505050565b602091612f64604051948593849363bc197c8160e01b9889865260048601612e82565b038160006001600160a01b0388165af160009181612ff9575b50612fbc5782612f8b612eff565b8051919082612fb557604051632bfa23e760e11b81526001600160a01b0383166004820152602490fd5b9050602001fd5b6001600160e01b03191603612fd657503880808080612d90565b604051632bfa23e760e11b81526001600160a01b03919091166004820152602490fd5b61301c91925060203d602011613023575b6130148183610407565b810190612e6d565b9038612f7d565b503d61300a565b939290949194853b61303f575b505050505050565b613062602093604051958694859463bc197c8160e01b998a875260048701612ecd565b038160006001600160a01b0388165af1600091816130a4575b506130895782612f8b612eff565b6001600160e01b03191603612fd65750388080808080613037565b6130be91925060203d602011613023576130148183610407565b903861307b565b909260a0926108b69594600180861b031683526000602084015260408301526060820152816080820152019061030c565b91926108b695949160a094600180871b03809216855216602084015260408301526060820152816080820152019061030c565b9293919093843b61313b575050505050565b602091612f64604051948593849363f23a6e6160e01b98898652600486016130c5565b939290949194853b61317257505050505050565b613062602093604051958694859463f23a6e6160e01b998a8752600487016130f656fec2575a0e9e593c00f959f8c92f12db2869c3395a3b0502d05e2516446f71f85b9016d09d72d40fdae2fd8ceac6b6234c7706214fd39c1cd1e609a0528c199300cd5ed15c6e187e77e9aee88184c21f4f2182ab5827cb3b7e07fbedcd63f033009b779b17422d0df92223018b32b4d1fa46e071723d6817e2486d003becc55f00f0c57e16840df040f15088dc2f81fe391c3923bec73e23a9662efc9c229c6a00a2646970667358221220fb2226e27337c7f90241b321d6b401accacf2eb63c893de2758549522bdf167e64736f6c63430008180033",
  "linkReferences": {},
  "deployedLinkReferences": {}
}