{
  "_format": "hh-sol-artifact-1",
  "contractName": "UserRegistry",
  "sourceName": "blockchain/contracts/UserRegistry.sol",
  "abi": [
    {
      "anonymous": false,
      "inputs": [
        {
          "indexed": true,
          "internalType": "string",
          "name": "did",
          "type": "string"
        },
        {
          "indexed": false,
          "internalType": "string",
          "name": "publicKey",
          "type": "string"
        }
      ],
      "name": "UserRegistered",
      "type": "event"
    },
    {
      "inputs": [
        {
          "internalType": "string",
          "name": "did",
          "type": "string"
        }
      ],
      "name": "getUser",
      "outputs": [
        {
          "internalType": "bool",
          "name": "exists",
          "type": "bool"
        },
        {
          "internalType": "string",
          "name": "publicKey",
          "type": "string"
        },
        {
          "internalType": "uint256",
          "name": "registrationTime",
          "type": "uint256"
        }
      ],
      "stateMutability": "view",
      "type": "function"
    },
    {
      "inputs": [
        {
          "internalType": "string",
          "name": "did",
          "type": "string"
        },
        {
          "internalType": "string",
          "name": "publicKey",
          "type": "string"
        }
      ],
      "name": "registerUser",
      "outputs": [],
      "stateMutability": "nonpayable",
      "type": "function"
    },
    {
      "inputs": [
        {
          "internalType": "string",
          "name": "did",
          "type": "string"
        },
        {
          "internalType": "string",
          "name": "newPublicKey",
          "type": "string"
        }
      ],
      "name": "updatePublicKey",
      "outputs": [],
      "stateMutability": "nonpayable",
      "type": "function"
    },
    {
      "inputs": [
        {
          "internalType": "string",
          "name": "did",
          "type": "string"
        }
      ],
      "name": "userExists",
      "outputs": [
        {
          "internalType": "bool",
          "name": "",
          "type": "bool"
        }
      ],
      "stateMutability": "view",
      "type": "function"
    }
  ],
  "bytecode": "0x608060405234801561001057600080fd5b50610b90806100206000396000f3fe608060405234801561001057600080fd5b506004361061004c5760003560e01c80631d2e4afd1461005157806331feb6711461006d5780635d1c79851461009f578063fddc968e146100bb575b600080fd5b61006b60048036038101906100669190610562565b6100eb565b005b610087600480360381019061008291906105da565b61022a565b604051610096939291906106d6565b60405180910390f35b6100b960048036038101906100b49190610562565b610330565b005b6100d560048036038101906100d091906105da565b6103d1565b6040516100e29190610714565b60405180910390f35b6000826040516100fb919061076b565b908152602001604051809103902060000160009054906101000a900460ff161561015a576040517f08c379a0000000000000000000000000000000000000000000000000000000008152600401610151906107ce565b60405180910390fd5b604051806060016040528060011515815260200182815260200142815250600083604051610188919061076b565b908152602001604051809103902060008201518160000160006101000a81548160ff02191690831515021790555060208201518160010190816101cb91906109fa565b5060408201518160020155905050816040516101e7919061076b565b60405180910390207f996d7324173609959370942b1ee1b743dc623b3d50459e66c1d55df55e5a9f378260405161021e9190610acc565b60405180910390a25050565b60006060600080600085604051610241919061076b565b90815260200160405180910390206040518060600160405290816000820160009054906101000a900460ff161515151581526020016001820180546102859061081d565b80601f01602080910402602001604051908101604052809291908181526020018280546102b19061081d565b80156102fe5780601f106102d3576101008083540402835291602001916102fe565b820191906000526020600020905b8154815290600101906020018083116102e157829003601f168201915b505050505081526020016002820154815250509050806000015181602001518260400151935093509350509193909250565b600082604051610340919061076b565b908152602001604051809103902060000160009054906101000a900460ff1661039e576040517f08c379a000000000000000000000000000000000000000000000000000000000815260040161039590610b3a565b60405180910390fd5b806000836040516103af919061076b565b908152602001604051809103902060010190816103cc91906109fa565b505050565b600080826040516103e2919061076b565b908152602001604051809103902060000160009054906101000a900460ff169050919050565b6000604051905090565b600080fd5b600080fd5b600080fd5b600080fd5b6000601f19601f8301169050919050565b7f4e487b7100000000000000000000000000000000000000000000000000000000600052604160045260246000fd5b61046f82610426565b810181811067ffffffffffffffff8211171561048e5761048d610437565b5b80604052505050565b60006104a1610408565b90506104ad8282610466565b919050565b600067ffffffffffffffff8211156104cd576104cc610437565b5b6104d682610426565b9050602081019050919050565b82818337600083830152505050565b6000610505610500846104b2565b610497565b90508281526020810184848401111561052157610520610421565b5b61052c8482856104e3565b509392505050565b600082601f8301126105495761054861041c565b5b81356105598482602086016104f2565b91505092915050565b6000806040838503121561057957610578610412565b5b600083013567ffffffffffffffff81111561059757610596610417565b5b6105a385828601610534565b925050602083013567ffffffffffffffff8111156105c4576105c3610417565b5b6105d085828601610534565b9150509250929050565b6000602082840312156105f0576105ef610412565b5b600082013567ffffffffffffffff81111561060e5761060d610417565b5b61061a84828501610534565b91505092915050565b60008115159050919050565b61063881610623565b82525050565b600081519050919050565b600082825260208201905092915050565b60005b8381101561067857808201518184015260208101905061065d565b60008484015250505050565b600061068f8261063e565b6106998185610649565b93506106a981856020860161065a565b6106b281610426565b840191505092915050565b6000819050919050565b6106d0816106bd565b82525050565b60006060820190506106eb600083018661062f565b81810360208301526106fd8185610684565b905061070c60408301846106c7565b949350505050565b6000602082019050610729600083018461062f565b92915050565b600081905092915050565b60006107458261063e565b61074f818561072f565b935061075f81856020860161065a565b80840191505092915050565b6000610777828461073a565b915081905092915050565b7f5573657220616c72656164792072656769737465726564000000000000000000600082015250565b60006107b8601783610649565b91506107c382610782565b602082019050919050565b600060208201905081810360008301526107e7816107ab565b9050919050565b7f4e487b7100000000000000000000000000000000000000000000000000000000600052602260045260246000fd5b6000600282049050600182168061083557607f821691505b602082108103610848576108476107ee565b5b50919050565b60008190508160005260206000209050919050565b60006020601f8301049050919050565b600082821b905092915050565b6000600883026108b07fffffffffffffffffffffffffffffffffffffffffffffffffffffffffffffffff82610873565b6108ba8683610873565b95508019841693508086168417925050509392505050565b6000819050919050565b60006108f76108f26108ed846106bd565b6108d2565b6106bd565b9050919050565b6000819050919050565b610911836108dc565b61092561091d826108fe565b848454610880565b825550505050565b600090565b61093a61092d565b610945818484610908565b505050565b5b818110156109695761095e600082610932565b60018101905061094b565b5050565b601f8211156109ae5761097f8161084e565b61098884610863565b81016020851015610997578190505b6109ab6109a385610863565b83018261094a565b50505b505050565b600082821c905092915050565b60006109d1600019846008026109b3565b1980831691505092915050565b60006109ea83836109c0565b9150826002028217905092915050565b610a038261063e565b67ffffffffffffffff811115610a1c57610a1b610437565b5b610a26825461081d565b610a3182828561096d565b600060209050601f831160018114610a645760008415610a52578287015190505b610a5c85826109de565b865550610ac4565b601f198416610a728661084e565b60005b82811015610a9a57848901518255600182019150602085019450602081019050610a75565b86831015610ab75784890151610ab3601f8916826109c0565b8355505b6001600288020188555050505b505050505050565b60006020820190508181036000830152610ae68184610684565b905092915050565b7f55736572206e6f74207265676973746572656400000000000000000000000000600082015250565b6000610b24601383610649565b9150610b2f82610aee565b602082019050919050565b60006020820190508181036000830152610b5381610b17565b905091905056fea2646970667358221220bf612efbc61d5d99a9733ae5acc96f3db42bee24297b1d447e92e6a97a2578ed64736f6c63430008180033",
  "linkReferences": {},
  "deployedLinkReferences": {}
}