{
  "_format": "hh-sol-artifact-1",
  "contractName": "UserRegistry",
  "sourceName": "blockchain/contracts/UserRegistry.sol",
  "abi": [
    {
      "inputs": [],
      "stateMutability": "nonpayable",
      "type": "constructor"
    },
    {
      "inputs": [],
      "name": "EnforcedPause",
      "type": "error"
    },
    {
      "inputs": [],
      "name": "ExpectedPause",
      "type": "error"
    },
    {
      "inputs": [],
      "name": "InvalidInitialization",
      "type": "error"
    },
    {
      "inputs": [],
      "name": "NotInitializing",
      "type": "error"
    },
    {
      "inputs": [
        {
          "internalType": "address",
          "name": "owner",
          "type": "address"
        }
      ],
      "name": "OwnableInvalidOwner",
      "type": "error"
    },
    {
      "inputs": [
        {
          "internalType": "address",
          "name": "account",
          "type": "address"
        }
      ],
      "name": "OwnableUnauthorizedAccount",
      "type": "error"
    },
    {
      "inputs": [],
      "name": "ReentrancyGuardReentrantCall",
      "type": "error"
    },
    {
      "anonymous": false,
      "inputs": [
        {
          "indexed": false,
          "internalType": "uint64",
          "name": "version",
          "type": "uint64"
        }
      ],
      "name": "Initialized",
      "type": "event"
    },
    {
      "anonymous": false,
      "inputs": [
        {
          "indexed": true,
          "internalType": "address",
          "name": "previousOwner",
          "type": "address"
        },
        {
          "indexed": true,
          "internalType": "address",
          "name": "newOwner",
          "type": "address"
        }
      ],
      "name": "OwnershipTransferred",
      "type": "event"
    },
    {
      "anonymous": false,
      "inputs": [
        {
          "indexed": false,
          "internalType": "address",
          "name": "account",
          "type": "address"
        }
      ],
      "name": "Paused",
      "type": "event"
    },
    {
      "anonymous": false,
      "inputs": [
        {
          "indexed": false,
          "internalType": "address",
          "name": "account",
          "type": "address"
        }
      ],
      "name": "Unpaused",
      "type": "event"
    },
    {
      "anonymous": false,
      "inputs": [
        {
          "indexed": true,
          "internalType": "string",
          "name": "did",
          "type": "string"
        },
        {
          "indexed": false,
          "internalType": "string",
          "name": "newPublicKey",
          "type": "string"
        }
      ],
      "name": "UserPublicKeyUpdated",
      "type": "event"
    },
    {
      "anonymous": false,
      "inputs": [
        {
          "indexed": true,
          "internalType": "string",
          "name": "did",
          "type": "string"
        },
        {
          "indexed": false,
          "internalType": "string",
          "name": "publicKey",
          "type": "string"
        },
        {
          "indexed": false,
          "internalType": "uint256",
          "name": "registrationTime",
          "type": "uint256"
        }
      ],
      "name": "UserRegistered",
      "type": "event"
    },
    {
      "inputs": [
        {
          "internalType": "string",
          "name": "did",
          "type": "string"
        }
      ],
      "name": "getUser",
      "outputs": [
        {
          "internalType": "bool",
          "name": "exists",
          "type": "bool"
        },
        {
          "internalType": "string",
          "name": "publicKey",
          "type": "string"
        },
        {
          "internalType": "uint256",
          "name": "registrationTime",
          "type": "uint256"
        }
      ],
      "stateMutability": "view",
      "type": "function"
    },
    {
      "inputs": [
        {
          "internalType": "address",
          "name": "initialOwner",
          "type": "address"
        }
      ],
      "name": "initialize",
      "outputs": [],
      "stateMutability": "nonpayable",
      "type": "function"
    },
    {
      "inputs": [],
      "name": "owner",
      "outputs": [
        {
          "internalType": "address",
          "name": "",
          "type": "address"
        }
      ],
      "stateMutability": "view",
      "type": "function"
    },
    {
      "inputs": [],
      "name": "pause",
      "outputs": [],
      "stateMutability": "nonpayable",
      "type": "function"
    },
    {
      "inputs": [],
      "name": "paused",
      "outputs": [
        {
          "internalType": "bool",
          "name": "",
          "type": "bool"
        }
      ],
      "stateMutability": "view",
      "type": "function"
    },
    {
      "inputs": [
        {
          "internalType": "string",
          "name": "did",
          "type": "string"
        },
        {
          "internalType": "string",
          "name": "publicKey",
          "type": "string"
        }
      ],
      "name": "registerUser",
      "outputs": [],
      "stateMutability": "nonpayable",
      "type": "function"
    },
    {
      "inputs": [],
      "name": "renounceOwnership",
      "outputs": [],
      "stateMutability": "nonpayable",
      "type": "function"
    },
    {
      "inputs": [
        {
          "internalType": "address",
          "name": "newOwner",
          "type": "address"
        }
      ],
      "name": "transferOwnership",
      "outputs": [],
      "stateMutability": "nonpayable",
      "type": "function"
    },
    {
      "inputs": [],
      "name": "unpause",
      "outputs": [],
      "stateMutability": "nonpayable",
      "type": "function"
    },
    {
      "inputs": [
        {
          "internalType": "string",
          "name": "did",
          "type": "string"
        },
        {
          "internalType": "string",
          "name": "newPublicKey",
          "type": "string"
        }
      ],
      "name": "updatePublicKey",
      "outputs": [],
      "stateMutability": "nonpayable",
      "type": "function"
    },
    {
      "inputs": [
        {
          "internalType": "string",
          "name": "did",
          "type": "string"
        }
      ],
      "name": "userExists",
      "outputs": [
        {
          "internalType": "bool",
          "name": "",
          "type": "bool"
        }
      ],
      "stateMutability": "view",
      "type": "function"
    }
  ],
  "bytecode": "0x608080604052346100b8577ff0c57e16840df040f15088dc2f81fe391c3923bec73e23a9662efc9c229c6a009081549060ff8260401c166100a957506001600160401b036002600160401b031982821601610064575b604051610dd990816100be8239f35b6001600160401b031990911681179091556040519081527fc7f505b2f371ae2175ee4913f4499e1f2633a7b5936321eed1cdaeb6115181d290602090a1388080610055565b63f92ee8a960e01b8152600490fd5b600080fdfe6040608081526004908136101561001557600080fd5b600091823560e01c80631d2e4afd146107c157806331feb671146106a15780633f4ba83a1461062a5780635c975abb146105f95780635d1c7985146103ad578063715018a6146103405780638456cb59146102d85780638da5cb5b146102a2578063c4d66de81461013d578063f2fde38b146101015763fddc968e1461009a57600080fd5b346100fd5760203660031901126100fd57803567ffffffffffffffff81116100f957602080946100d260ff946100e594369101610ab5565b9082865194838680955193849201610b58565b820190815203019020541690519015158152f35b8380fd5b8280fd5b83823461013957602036600319011261013957356001600160a01b03811681036101395761013690610131610cc9565b610bfa565b80f35b5080fd5b50346100fd5760203660031901126100fd578035906001600160a01b03821682036100f9577ff0c57e16840df040f15088dc2f81fe391c3923bec73e23a9662efc9c229c6a0091825460ff81861c16159267ffffffffffffffff82168015908161029a575b6001149081610290575b159081610287575b50610279575067ffffffffffffffff19811660011784556101e791908361025a575b506101df610d02565b610131610d02565b6101ef610d02565b6101f7610d02565b6101ff610d02565b6001600080516020610d8483398151915255610219578280f35b805468ff00000000000000001916905551600181527fc7f505b2f371ae2175ee4913f4499e1f2633a7b5936321eed1cdaeb6115181d290602090a138808280f35b68ffffffffffffffffff191668010000000000000001178455386101d6565b855163f92ee8a960e01b8152fd5b905015386101b4565b303b1591506101ac565b8591506101a2565b505034610139578160031936011261013957600080516020610d448339815191525490516001600160a01b039091168152602090f35b50503461013957816003193601126101395760207f62e78cea01bee320cd4e420270b5ea74000d11b0c9f74754ebdbfc544b05a25891610316610cc9565b61031e610c6e565b600080516020610d64833981519152805460ff1916600117905551338152a180f35b83346103aa57806003193601126103aa57610359610cc9565b600080516020610d4483398151915280546001600160a01b0319811690915581906001600160a01b03167f8be0079c531659141344cd1fd0a4f28419497f9722a3daafe3b4186f6b6457e08280a380f35b80fd5b5082346103aa576103bd36610b11565b6103c8949194610c99565b81518560ff82809851602094816103e487938488019d8e610b58565b8101898152030190205416156105ac5761040994959684519586918351928391610b58565b850186815285836001978893030190200183519767ffffffffffffffff891161059957506104378154610ba0565b601f8111610553575b508297601f81116001146104cc579161049b91836104ab948a9b7f86f9d78014b946b29328880d57f6ad00b6c819e99fa40c9a5aaecd4c16d69700999a9b916104c1575b50600019600383901b1c1916908a1b179055610bda565b9451928284938452830190610b7b565b0390a2600080516020610d848339815191525580f35b90508701518c610484565b818852838820601f198216895b81811061053e5750978261049b9492829b9c6104ab97957f86f9d78014b946b29328880d57f6ad00b6c819e99fa40c9a5aaecd4c16d697009b9c10610525575b5050811b019055610bda565b89015160001960f88460031b161c191690558c80610519565b878c015183559a86019a9189019186016104d9565b818852838820601f8a0160051c810191858b1061058f575b601f0160051c019087905b828110610584575050610440565b898155018790610576565b909150819061056b565b634e487b7160e01b885260419052602487fd5b835162461bcd60e51b8152808701839052602160248201527f5573657252656769737472793a2055736572206e6f74207265676973746572656044820152601960fa1b6064820152608490fd5b50503461013957816003193601126101395760209060ff600080516020610d64833981519152541690519015158152f35b50346100fd57826003193601126100fd57610643610cc9565b600080516020610d648339815191529081549060ff821615610693575060ff19169055513381527f5db9ee0a495bf2e6ff9c91a7834c1ba4fdd244a5e8aa4e537bd38aeae4b073aa90602090a180f35b8351638dfc202b60e01b8152fd5b5091903461013957602092836003193601126100fd57803567ffffffffffffffff81116100f9576106d96106eb928692369101610ab5565b81845193828580945193849201610b58565b81018581520301902060ff8154169260019085600260018501940154938551938382549261071884610ba0565b808852936001811690811561079d5750600114610765575b5050505050906107458161075d930382610a7d565b60608451968796151587528601526060850190610b7b565b918301520390f35b9080949550528383205b82841061078a57505050820101858261075d61074538610730565b805486850186015292840192810161076f565b60ff19168689015250505050151560051b8301019050858261075d61074538610730565b5090346100fd576107d136610b11565b90916107db610c6e565b6107e3610c99565b805192805160ff6020958681818601946107fe818388610b58565b81018b8152030190205416610a2c57825190606082019667ffffffffffffffff9783811089821117610a195785526001978884528784019187835261085589888701954287528d8a51809481938c51928391610b58565b8201908152030190209451151560ff801987541691161785558985019251908151928311610a0657506108888354610ba0565b601f81116109c0575b5088908b601f841160011461092f5792807f3548c0edb8b19c83f37873107ad6ca5e5083cf1f072f91c8250e1264bc80c2229a999896936108f498969360029692610924575b5050600019600383901b1c1916908c1b1790555b51910155610bda565b936109088251938385948552840190610b7b565b9042908301520390a2600080516020610d848339815191525580f35b0151905038806108d7565b90918b9392601f1984168684528c8420935b8d8282106109aa575050926002959285927f3548c0edb8b19c83f37873107ad6ca5e5083cf1f072f91c8250e1264bc80c2229d9c9b99966108f49b999610610991575b505050811b0190556108eb565b015160001960f88460031b161c19169055388080610984565b8385015186558f97909501949384019301610941565b838c52898c20601f840160051c8101918b85106109fc575b601f0160051c01908b905b8281106109f1575050610891565b8d8155018b906109e3565b90915081906109d8565b634e487b7160e01b8c526041905260248bfd5b634e487b7160e01b8a526041825260248afd5b825162461bcd60e51b8152808701869052602560248201527f5573657252656769737472793a205573657220616c72656164792072656769736044820152641d195c995960da1b6064820152608490fd5b90601f8019910116810190811067ffffffffffffffff821117610a9f57604052565b634e487b7160e01b600052604160045260246000fd5b81601f82011215610b0c5780359067ffffffffffffffff8211610a9f5760405192610aea601f8401601f191660200185610a7d565b82845260208383010111610b0c57816000926020809301838601378301015290565b600080fd5b906040600319830112610b0c5767ffffffffffffffff600435818111610b0c5783610b3e91600401610ab5565b92602435918211610b0c57610b5591600401610ab5565b90565b60005b838110610b6b5750506000910152565b8181015183820152602001610b5b565b90602091610b9481518092818552858086019101610b58565b601f01601f1916010190565b90600182811c92168015610bd0575b6020831014610bba57565b634e487b7160e01b600052602260045260246000fd5b91607f1691610baf565b610bf290602060405192828480945193849201610b58565b810103902090565b6001600160a01b03908116908115610c5557600080516020610d4483398151915280546001600160a01b031981168417909155167f8be0079c531659141344cd1fd0a4f28419497f9722a3daafe3b4186f6b6457e0600080a3565b604051631e4fbdf760e01b815260006004820152602490fd5b60ff600080516020610d648339815191525416610c8757565b60405163d93c066560e01b8152600490fd5b600080516020610d848339815191526002815414610cb75760029055565b604051633ee5aeb560e01b8152600490fd5b600080516020610d44833981519152546001600160a01b03163303610cea57565b60405163118cdaa760e01b8152336004820152602490fd5b60ff7ff0c57e16840df040f15088dc2f81fe391c3923bec73e23a9662efc9c229c6a005460401c1615610d3157565b604051631afcd79f60e31b8152600490fdfe9016d09d72d40fdae2fd8ceac6b6234c7706214fd39c1cd1e609a0528c199300cd5ed15c6e187e77e9aee88184c21f4f2182ab5827cb3b7e07fbedcd63f033009b779b17422d0df92223018b32b4d1fa46e071723d6817e2486d003becc55f00a2646970667358221220f4923161dbb5f46e21234e03b8f2ad9517b89383286e94f659f355924ba16bb364736f6c63430008180033",
  "linkReferences": {},
  "deployedLinkReferences": {}
}