{
  "_format": "hh-sol-artifact-1",
  "contractName": "UserRegistry",
  "sourceName": "blockchain/contracts/UserRegistry.sol",
  "abi": [
    {
      "anonymous": false,
      "inputs": [
        {
          "indexed": true,
          "internalType": "string",
          "name": "did",
          "type": "string"
        },
        {
          "indexed": false,
          "internalType": "string",
          "name": "publicKey",
          "type": "string"
        }
      ],
      "name": "UserRegistered",
      "type": "event"
    },
    {
      "inputs": [
        {
          "internalType": "string",
          "name": "did",
          "type": "string"
        }
      ],
      "name": "getUser",
      "outputs": [
        {
          "internalType": "bool",
          "name": "exists",
          "type": "bool"
        },
        {
          "internalType": "string",
          "name": "publicKey",
          "type": "string"
        },
        {
          "internalType": "uint256",
          "name": "registrationTime",
          "type": "uint256"
        }
      ],
      "stateMutability": "view",
      "type": "function"
    },
    {
      "inputs": [
        {
          "internalType": "string",
          "name": "did",
          "type": "string"
        },
        {
          "internalType": "string",
          "name": "publicKey",
          "type": "string"
        }
      ],
      "name": "registerUser",
      "outputs": [],
      "stateMutability": "nonpayable",
      "type": "function"
    },
    {
      "inputs": [
        {
          "internalType": "string",
          "name": "did",
          "type": "string"
        },
        {
          "internalType": "string",
          "name": "newPublicKey",
          "type": "string"
        }
      ],
      "name": "updatePublicKey",
      "outputs": [],
      "stateMutability": "nonpayable",
      "type": "function"
    },
    {
      "inputs": [
        {
          "internalType": "string",
          "name": "did",
          "type": "string"
        }
      ],
      "name": "userExists",
      "outputs": [
        {
          "internalType": "bool",
          "name": "",
          "type": "bool"
        }
      ],
      "stateMutability": "view",
      "type": "function"
    }
  ],
  "bytecode": "0x608060405234801561001057600080fd5b506106f4806100206000396000f3fe608060405234801561001057600080fd5b506004361061004c5760003560e01c80631d2e4afd1461005157806331feb671146100665780635d1c798514610091578063fddc968e146100a4575b600080fd5b61006461005f36600461044b565b6100c7565b005b6100796100743660046104af565b6101f3565b6040516100889392919061053c565b60405180910390f35b61006461009f36600461044b565b6102e6565b6100b76100b23660046104af565b61037e565b6040519015158152602001610088565b6000826040516100d79190610567565b9081526040519081900360200190205460ff161561013c5760405162461bcd60e51b815260206004820152601760248201527f5573657220616c7265616479207265676973746572656400000000000000000060448201526064015b60405180910390fd5b60408051606081018252600181526020810183905242818301529051600090610166908590610567565b908152604051602091819003820190208251815460ff1916901515178155908201516001820190610197908261060d565b50604091820151600290910155516101b0908390610567565b60405180910390207f996d7324173609959370942b1ee1b743dc623b3d50459e66c1d55df55e5a9f37826040516101e791906106cd565b60405180910390a25050565b6000606060008060008560405161020a9190610567565b90815260408051918290036020908101832060608401909252815460ff16151583526001820180549184019161023f90610583565b80601f016020809104026020016040519081016040528092919081815260200182805461026b90610583565b80156102b85780601f1061028d576101008083540402835291602001916102b8565b820191906000526020600020905b81548152906001019060200180831161029b57829003601f168201915b5050509183525050600291909101546020918201528151908201516040909201519097919650945092505050565b6000826040516102f69190610567565b9081526040519081900360200190205460ff1661034b5760405162461bcd60e51b8152602060048201526013602482015272155cd95c881b9bdd081c9959da5cdd195c9959606a1b6044820152606401610133565b8060008360405161035c9190610567565b90815260200160405180910390206001019081610379919061060d565b505050565b6000808260405161038f9190610567565b9081526040519081900360200190205460ff1692915050565b634e487b7160e01b600052604160045260246000fd5b600082601f8301126103cf57600080fd5b813567ffffffffffffffff808211156103ea576103ea6103a8565b604051601f8301601f19908116603f01168101908282118183101715610412576104126103a8565b8160405283815286602085880101111561042b57600080fd5b836020870160208301376000602085830101528094505050505092915050565b6000806040838503121561045e57600080fd5b823567ffffffffffffffff8082111561047657600080fd5b610482868387016103be565b9350602085013591508082111561049857600080fd5b506104a5858286016103be565b9150509250929050565b6000602082840312156104c157600080fd5b813567ffffffffffffffff8111156104d857600080fd5b6104e4848285016103be565b949350505050565b60005b838110156105075781810151838201526020016104ef565b50506000910152565b600081518084526105288160208601602086016104ec565b601f01601f19169290920160200192915050565b83151581526060602082015260006105576060830185610510565b9050826040830152949350505050565b600082516105798184602087016104ec565b9190910192915050565b600181811c9082168061059757607f821691505b6020821081036105b757634e487b7160e01b600052602260045260246000fd5b50919050565b601f821115610379576000816000526020600020601f850160051c810160208610156105e65750805b601f850160051c820191505b81811015610605578281556001016105f2565b505050505050565b815167ffffffffffffffff811115610627576106276103a8565b61063b816106358454610583565b846105bd565b602080601f83116001811461067057600084156106585750858301515b600019600386901b1c1916600185901b178555610605565b600085815260208120601f198616915b8281101561069f57888601518255948401946001909101908401610680565b50858210156106bd5787850151600019600388901b60f8161c191681555b5050505050600190811b01905550565b6020815260006106e06020830184610510565b939250505056fea164736f6c6343000818000a",
  "linkReferences": {},
  "deployedLinkReferences": {}
}