{
  "_format": "hh-sol-artifact-1",
  "contractName": "ObjectLifecycle",
  "sourceName": "blockchain/contracts/ObjectLifeCycle.sol",
  "abi": [
    {
      "inputs": [
        {
          "internalType": "address",
          "name": "_didRegistryAddress",
          "type": "address"
        },
        {
          "internalType": "address",
          "name": "_feeManagerAddress",
          "type": "address"
        }
      ],
      "stateMutability": "nonpayable",
      "type": "constructor"
    },
    {
      "inputs": [
        {
          "internalType": "address",
          "name": "sender",
          "type": "address"
        },
        {
          "internalType": "uint256",
          "name": "tokenId",
          "type": "uint256"
        },
        {
          "internalType": "address",
          "name": "owner",
          "type": "address"
        }
      ],
      "name": "ERC721IncorrectOwner",
      "type": "error"
    },
    {
      "inputs": [
        {
          "internalType": "address",
          "name": "operator",
          "type": "address"
        },
        {
          "internalType": "uint256",
          "name": "tokenId",
          "type": "uint256"
        }
      ],
      "name": "ERC721InsufficientApproval",
      "type": "error"
    },
    {
      "inputs": [
        {
          "internalType": "address",
          "name": "approver",
          "type": "address"
        }
      ],
      "name": "ERC721InvalidApprover",
      "type": "error"
    },
    {
      "inputs": [
        {
          "internalType": "address",
          "name": "operator",
          "type": "address"
        }
      ],
      "name": "ERC721InvalidOperator",
      "type": "error"
    },
    {
      "inputs": [
        {
          "internalType": "address",
          "name": "owner",
          "type": "address"
        }
      ],
      "name": "ERC721InvalidOwner",
      "type": "error"
    },
    {
      "inputs": [
        {
          "internalType": "address",
          "name": "receiver",
          "type": "address"
        }
      ],
      "name": "ERC721InvalidReceiver",
      "type": "error"
    },
    {
      "inputs": [
        {
          "internalType": "address",
          "name": "sender",
          "type": "address"
        }
      ],
      "name": "ERC721InvalidSender",
      "type": "error"
    },
    {
      "inputs": [
        {
          "internalType": "uint256",
          "name": "tokenId",
          "type": "uint256"
        }
      ],
      "name": "ERC721NonexistentToken",
      "type": "error"
    },
    {
      "anonymous": false,
      "inputs": [
        {
          "indexed": true,
          "internalType": "address",
          "name": "owner",
          "type": "address"
        },
        {
          "indexed": true,
          "internalType": "address",
          "name": "approved",
          "type": "address"
        },
        {
          "indexed": true,
          "internalType": "uint256",
          "name": "tokenId",
          "type": "uint256"
        }
      ],
      "name": "Approval",
      "type": "event"
    },
    {
      "anonymous": false,
      "inputs": [
        {
          "indexed": true,
          "internalType": "address",
          "name": "owner",
          "type": "address"
        },
        {
          "indexed": true,
          "internalType": "address",
          "name": "operator",
          "type": "address"
        },
        {
          "indexed": false,
          "internalType": "bool",
          "name": "approved",
          "type": "bool"
        }
      ],
      "name": "ApprovalForAll",
      "type": "event"
    },
    {
      "anonymous": false,
      "inputs": [
        {
          "indexed": true,
          "internalType": "uint256",
          "name": "objectId",
          "type": "uint256"
        },
        {
          "indexed": true,
          "internalType": "address",
          "name": "user",
          "type": "address"
        }
      ],
      "name": "InteractionRecorded",
      "type": "event"
    },
    {
      "anonymous": false,
      "inputs": [
        {
          "indexed": true,
          "internalType": "uint256",
          "name": "tokenId",
          "type": "uint256"
        },
        {
          "indexed": true,
          "internalType": "address",
          "name": "creator",
          "type": "address"
        },
        {
          "indexed": false,
          "internalType": "string",
          "name": "name",
          "type": "string"
        }
      ],
      "name": "ObjectCreated",
      "type": "event"
    },
    {
      "anonymous": false,
      "inputs": [
        {
          "indexed": true,
          "internalType": "uint256",
          "name": "objectId",
          "type": "uint256"
        },
        {
          "indexed": true,
          "internalType": "address",
          "name": "from",
          "type": "address"
        },
        {
          "indexed": true,
          "internalType": "address",
          "name": "to",
          "type": "address"
        }
      ],
      "name": "ObjectOwnershipTransferred",
      "type": "event"
    },
    {
      "anonymous": false,
      "inputs": [
        {
          "indexed": true,
          "internalType": "address",
          "name": "from",
          "type": "address"
        },
        {
          "indexed": true,
          "internalType": "address",
          "name": "to",
          "type": "address"
        },
        {
          "indexed": true,
          "internalType": "uint256",
          "name": "tokenId",
          "type": "uint256"
        }
      ],
      "name": "Transfer",
      "type": "event"
    },
    {
      "inputs": [
        {
          "internalType": "address",
          "name": "to",
          "type": "address"
        },
        {
          "internalType": "uint256",
          "name": "tokenId",
          "type": "uint256"
        }
      ],
      "name": "approve",
      "outputs": [],
      "stateMutability": "nonpayable",
      "type": "function"
    },
    {
      "inputs": [
        {
          "internalType": "address",
          "name": "owner",
          "type": "address"
        }
      ],
      "name": "balanceOf",
      "outputs": [
        {
          "internalType": "uint256",
          "name": "",
          "type": "uint256"
        }
      ],
      "stateMutability": "view",
      "type": "function"
    },
    {
      "inputs": [
        {
          "internalType": "string",
          "name": "name",
          "type": "string"
        },
        {
          "internalType": "string",
          "name": "description",
          "type": "string"
        },
        {
          "internalType": "string",
          "name": "ipfsCID",
          "type": "string"
        }
      ],
      "name": "createObject",
      "outputs": [],
      "stateMutability": "payable",
      "type": "function"
    },
    {
      "inputs": [],
      "name": "didRegistry",
      "outputs": [
        {
          "internalType": "contract DIDRegistry",
          "name": "",
          "type": "address"
        }
      ],
      "stateMutability": "view",
      "type": "function"
    },
    {
      "inputs": [],
      "name": "feeManager",
      "outputs": [
        {
          "internalType": "contract IFeeAndTreasury",
          "name": "",
          "type": "address"
        }
      ],
      "stateMutability": "view",
      "type": "function"
    },
    {
      "inputs": [
        {
          "internalType": "uint256",
          "name": "tokenId",
          "type": "uint256"
        }
      ],
      "name": "getApproved",
      "outputs": [
        {
          "internalType": "address",
          "name": "",
          "type": "address"
        }
      ],
      "stateMutability": "view",
      "type": "function"
    },
    {
      "inputs": [],
      "name": "getObjectCount",
      "outputs": [
        {
          "internalType": "uint256",
          "name": "",
          "type": "uint256"
        }
      ],
      "stateMutability": "view",
      "type": "function"
    },
    {
      "inputs": [
        {
          "internalType": "address",
          "name": "owner",
          "type": "address"
        },
        {
          "internalType": "address",
          "name": "operator",
          "type": "address"
        }
      ],
      "name": "isApprovedForAll",
      "outputs": [
        {
          "internalType": "bool",
          "name": "",
          "type": "bool"
        }
      ],
      "stateMutability": "view",
      "type": "function"
    },
    {
      "inputs": [],
      "name": "name",
      "outputs": [
        {
          "internalType": "string",
          "name": "",
          "type": "string"
        }
      ],
      "stateMutability": "view",
      "type": "function"
    },
    {
      "inputs": [
        {
          "internalType": "uint256",
          "name": "",
          "type": "uint256"
        }
      ],
      "name": "objects",
      "outputs": [
        {
          "internalType": "string",
          "name": "name",
          "type": "string"
        },
        {
          "internalType": "string",
          "name": "description",
          "type": "string"
        },
        {
          "internalType": "string",
          "name": "ipfsCID",
          "type": "string"
        },
        {
          "internalType": "address",
          "name": "creator",
          "type": "address"
        },
        {
          "internalType": "address",
          "name": "owner",
          "type": "address"
        },
        {
          "internalType": "uint256",
          "name": "createdAt",
          "type": "uint256"
        },
        {
          "internalType": "enum ObjectLifecycle.ObjectStatus",
          "name": "status",
          "type": "uint8"
        }
      ],
      "stateMutability": "view",
      "type": "function"
    },
    {
      "inputs": [
        {
          "internalType": "uint256",
          "name": "tokenId",
          "type": "uint256"
        }
      ],
      "name": "ownerOf",
      "outputs": [
        {
          "internalType": "address",
          "name": "",
          "type": "address"
        }
      ],
      "stateMutability": "view",
      "type": "function"
    },
    {
      "inputs": [
        {
          "internalType": "uint256",
          "name": "objectId",
          "type": "uint256"
        },
        {
          "internalType": "bytes32",
          "name": "interactionClaimHash",
          "type": "bytes32"
        },
        {
          "internalType": "bytes",
          "name": "userSignature",
          "type": "bytes"
        }
      ],
      "name": "recordInteraction",
      "outputs": [],
      "stateMutability": "nonpayable",
      "type": "function"
    },
    {
      "inputs": [
        {
          "internalType": "address",
          "name": "from",
          "type": "address"
        },
        {
          "internalType": "address",
          "name": "to",
          "type": "address"
        },
        {
          "internalType": "uint256",
          "name": "tokenId",
          "type": "uint256"
        }
      ],
      "name": "safeTransferFrom",
      "outputs": [],
      "stateMutability": "nonpayable",
      "type": "function"
    },
    {
      "inputs": [
        {
          "internalType": "address",
          "name": "from",
          "type": "address"
        },
        {
          "internalType": "address",
          "name": "to",
          "type": "address"
        },
        {
          "internalType": "uint256",
          "name": "tokenId",
          "type": "uint256"
        },
        {
          "internalType": "bytes",
          "name": "data",
          "type": "bytes"
        }
      ],
      "name": "safeTransferFrom",
      "outputs": [],
      "stateMutability": "nonpayable",
      "type": "function"
    },
    {
      "inputs": [
        {
          "internalType": "address",
          "name": "operator",
          "type": "address"
        },
        {
          "internalType": "bool",
          "name": "approved",
          "type": "bool"
        }
      ],
      "name": "setApprovalForAll",
      "outputs": [],
      "stateMutability": "nonpayable",
      "type": "function"
    },
    {
      "inputs": [
        {
          "internalType": "bytes4",
          "name": "interfaceId",
          "type": "bytes4"
        }
      ],
      "name": "supportsInterface",
      "outputs": [
        {
          "internalType": "bool",
          "name": "",
          "type": "bool"
        }
      ],
      "stateMutability": "view",
      "type": "function"
    },
    {
      "inputs": [],
      "name": "symbol",
      "outputs": [
        {
          "internalType": "string",
          "name": "",
          "type": "string"
        }
      ],
      "stateMutability": "view",
      "type": "function"
    },
    {
      "inputs": [
        {
          "internalType": "uint256",
          "name": "tokenId",
          "type": "uint256"
        }
      ],
      "name": "tokenURI",
      "outputs": [
        {
          "internalType": "string",
          "name": "",
          "type": "string"
        }
      ],
      "stateMutability": "view",
      "type": "function"
    },
    {
      "inputs": [
        {
          "internalType": "address",
          "name": "from",
          "type": "address"
        },
        {
          "internalType": "address",
          "name": "to",
          "type": "address"
        },
        {
          "internalType": "uint256",
          "name": "tokenId",
          "type": "uint256"
        }
      ],
      "name": "transferFrom",
      "outputs": [],
      "stateMutability": "nonpayable",
      "type": "function"
    },
    {
      "inputs": [
        {
          "internalType": "uint256",
          "name": "objectId",
          "type": "uint256"
        },
        {
          "internalType": "address",
          "name": "newOwner",
          "type": "address"
        }
      ],
      "name": "transferObjectOwnership",
      "outputs": [],
      "stateMutability": "nonpayable",
      "type": "function"
    }
  ],
  "bytecode": "0x60806040523480156200001157600080fd5b50604051620021f4380380620021f48339810160408190526200003491620000ec565b6040518060400160405280600c81526020016b131a58995c9853d89a9958dd60a21b815250604051806040016040528060048152602001632627a12560e11b8152508160009081620000879190620001cb565b506001620000968282620001cb565b5050600680546001600160a01b039485166001600160a01b03199182161790915560078054939094169216919091179091555062000297565b80516001600160a01b0381168114620000e757600080fd5b919050565b600080604083850312156200010057600080fd5b6200010b83620000cf565b91506200011b60208401620000cf565b90509250929050565b634e487b7160e01b600052604160045260246000fd5b600181811c908216806200014f57607f821691505b6020821081036200017057634e487b7160e01b600052602260045260246000fd5b50919050565b601f821115620001c6576000816000526020600020601f850160051c81016020861015620001a15750805b601f850160051c820191505b81811015620001c257828155600101620001ad565b5050505b505050565b81516001600160401b03811115620001e757620001e762000124565b620001ff81620001f884546200013a565b8462000176565b602080601f8311600181146200023757600084156200021e5750858301515b600019600386901b1c1916600185901b178555620001c2565b600085815260208120601f198616915b82811015620002685788860151825594840194600190910190840162000247565b5085821015620002875787850151600019600388901b60f8161c191681555b5050505050600190811b01905550565b611f4d80620002a76000396000f3fe60806040526004361061011f5760003560e01c80636352211e116100a0578063b88d4fde11610064578063b88d4fde1461031c578063c87b56dd1461033c578063d0fb02031461035c578063e985e9c51461037c578063ed1758501461039c57600080fd5b80636352211e1461028757806370a08231146102a75780638d390418146102c757806395d89b41146102e7578063a22cb465146102fc57600080fd5b806323b872dd116100e757806323b872dd146101f457806333cefc631461021457806342842e0e1461022757806352ec966f14610247578063577f9fb11461026757600080fd5b806301ffc9a71461012457806306fdde0314610159578063081812fc1461017b578063095ea7b3146101b35780631a848cfb146101d5575b600080fd5b34801561013057600080fd5b5061014461013f3660046116e8565b6103cf565b60405190151581526020015b60405180910390f35b34801561016557600080fd5b5061016e610421565b6040516101509190611755565b34801561018757600080fd5b5061019b610196366004611768565b6104b3565b6040516001600160a01b039091168152602001610150565b3480156101bf57600080fd5b506101d36101ce366004611796565b6104dc565b005b3480156101e157600080fd5b506009545b604051908152602001610150565b34801561020057600080fd5b506101d361020f3660046117c2565b6104eb565b6101d361022236600461184c565b61057b565b34801561023357600080fd5b506101d36102423660046117c2565b6109fb565b34801561025357600080fd5b506101d36102623660046118e6565b610a1b565b34801561027357600080fd5b5060065461019b906001600160a01b031681565b34801561029357600080fd5b5061019b6102a2366004611768565b610bb9565b3480156102b357600080fd5b506101e66102c2366004611939565b610bc4565b3480156102d357600080fd5b506101d36102e2366004611956565b610c0c565b3480156102f357600080fd5b5061016e610d3b565b34801561030857600080fd5b506101d3610317366004611994565b610d4a565b34801561032857600080fd5b506101d3610337366004611a31565b610d55565b34801561034857600080fd5b5061016e610357366004611768565b610d6d565b34801561036857600080fd5b5060075461019b906001600160a01b031681565b34801561038857600080fd5b50610144610397366004611ae0565b610de2565b3480156103a857600080fd5b506103bc6103b7366004611768565b610e10565b6040516101509796959493929190611b24565b60006001600160e01b031982166380ac58cd60e01b148061040057506001600160e01b03198216635b5e139f60e01b145b8061041b57506301ffc9a760e01b6001600160e01b03198316145b92915050565b60606000805461043090611bae565b80601f016020809104026020016040519081016040528092919081815260200182805461045c90611bae565b80156104a95780601f1061047e576101008083540402835291602001916104a9565b820191906000526020600020905b81548152906001019060200180831161048c57829003601f168201915b5050505050905090565b60006104be82610ff4565b506000828152600460205260409020546001600160a01b031661041b565b6104e782823361102d565b5050565b6001600160a01b03821661051a57604051633250574960e11b8152600060048201526024015b60405180910390fd5b600061052783833361103a565b9050836001600160a01b0316816001600160a01b031614610575576040516364283d7b60e01b81526001600160a01b0380861660048301526024820184905282166044820152606401610511565b50505050565b60065460405163543a185d60e11b81523360048201526000916001600160a01b03169063a87430ba90602401600060405180830381865afa1580156105c4573d6000803e3d6000fd5b505050506040513d6000823e601f3d908101601f191682016040526105ec9190810190611c2d565b50509050806106365760405162461bcd60e51b8152602060048201526016602482015275155cd95c881a5cc81b9bdd081c9959da5cdd195c995960521b6044820152606401610511565b600754604051632721fad560e21b81526333cefc6360e01b60048201819052916000916001600160a01b0390911690639c87eb5490602401602060405180830381865afa15801561068b573d6000803e3d6000fd5b505050506040513d601f19601f820116820180604052508101906106af9190611ca4565b9050803410156106f45760405162461bcd60e51b815260206004820152601060248201526f496e73756666696369656e742066656560801b6044820152606401610511565b600754604080516361d027b360e01b815290516000926001600160a01b0316916361d027b39160048083019260209291908290030181865afa15801561073e573d6000803e3d6000fd5b505050506040513d601f19601f820116820180604052508101906107629190611cbd565b90506000816001600160a01b03163460405160006040518083038185875af1925050503d80600081146107b1576040519150601f19603f3d011682016040523d82523d6000602084013e6107b6565b606091505b50509050806107ff5760405162461bcd60e51b81526020600482015260156024820152744661696c656420746f20666f72776172642066656560581b6044820152606401610511565b600060096000815461081090611cf0565b918290555090506108213382611133565b6040518060e001604052808d8d8080601f016020809104026020016040519081016040528093929190818152602001838380828437600092019190915250505090825250604080516020601f8e018190048102820181019092528c815291810191908d908d9081908401838280828437600092019190915250505090825250604080516020601f8c018190048102820181019092528a815291810191908b908b908190840183828082843760009201829052509385525050336020840181905260408401525042606083015260809091015260008281526008602052604090208151819061090f9082611d51565b50602082015160018201906109249082611d51565b50604082015160028201906109399082611d51565b5060608201516003820180546001600160a01b039283166001600160a01b031991821617909155608084015160048401805491909316911617905560a0820151600582015560c082015160068201805460ff191660018360028111156109a1576109a1611b0e565b0217905550905050336001600160a01b0316817f0dd19a6ced97513a7d37bb9c1d4507d2f959b6956567190801638671a1e0795c8e8e6040516109e5929190611e11565b60405180910390a3505050505050505050505050565b610a1683838360405180602001604052806000815250610d55565b505050565b6000848152600860205260409020600301546001600160a01b0316610a7a5760405162461bcd60e51b815260206004820152601560248201527413d89a9958dd08191bd95cc81b9bdd08195e1a5cdd605a1b6044820152606401610511565b600060018484846040818110610a9257610a92611e40565b610aa492013560f81c9050601b611e56565b610ab2602060008789611e6f565b610abb91611e99565b610ac960406020888a611e6f565b610ad291611e99565b6040805160008152602081018083529590955260ff909316928401929092526060830152608082015260a0016020604051602081039080840390855afa158015610b20573d6000803e3d6000fd5b5050604051601f1901519150506001600160a01b0381163314610b855760405162461bcd60e51b815260206004820152601d60248201527f496e76616c696420696e746572616374696f6e207369676e61747572650000006044820152606401610511565b604051339086907f91c3393d046360ee1622bb5818b3b988063ee48de5c8e24438dad6a4b0e2201090600090a35050505050565b600061041b82610ff4565b60006001600160a01b038216610bf0576040516322718ad960e21b815260006004820152602401610511565b506001600160a01b031660009081526003602052604090205490565b60008281526008602052604090206004015482906001600160a01b03163314610c775760405162461bcd60e51b815260206004820152601e60248201527f43616c6c6572206973206e6f7420746865206f626a656374206f776e657200006044820152606401610511565b6001600160a01b038216610cd95760405162461bcd60e51b8152602060048201526024808201527f4e6577206f776e65722063616e6e6f7420626520746865207a65726f206164646044820152637265737360e01b6064820152608401610511565b60008381526008602052604080822060040180546001600160a01b031981166001600160a01b038781169182179093559251911692839187917f9ff47d542919c2dab1e6d5f7c920d0facb9d0d83fa99d17e51e492f519880aba91a450505050565b60606001805461043090611bae565b6104e733838361114d565b610d608484846104eb565b61057533858585856111ec565b6060610d7882610ff4565b506000610d9060408051602081019091526000815290565b90506000815111610db05760405180602001604052806000815250610ddb565b80610dba84611317565b604051602001610dcb929190611eb7565b6040516020818303038152906040525b9392505050565b6001600160a01b03918216600090815260056020908152604080832093909416825291909152205460ff1690565b600860205260009081526040902080548190610e2b90611bae565b80601f0160208091040260200160405190810160405280929190818152602001828054610e5790611bae565b8015610ea45780601f10610e7957610100808354040283529160200191610ea4565b820191906000526020600020905b815481529060010190602001808311610e8757829003601f168201915b505050505090806001018054610eb990611bae565b80601f0160208091040260200160405190810160405280929190818152602001828054610ee590611bae565b8015610f325780601f10610f0757610100808354040283529160200191610f32565b820191906000526020600020905b815481529060010190602001808311610f1557829003601f168201915b505050505090806002018054610f4790611bae565b80601f0160208091040260200160405190810160405280929190818152602001828054610f7390611bae565b8015610fc05780601f10610f9557610100808354040283529160200191610fc0565b820191906000526020600020905b815481529060010190602001808311610fa357829003601f168201915b5050505060038301546004840154600585015460069095015493946001600160a01b03928316949290911692509060ff1687565b6000818152600260205260408120546001600160a01b03168061041b57604051637e27328960e01b815260048101849052602401610511565b610a1683838360016113aa565b6000828152600260205260408120546001600160a01b0390811690831615611067576110678184866114b0565b6001600160a01b038116156110a5576110846000856000806113aa565b6001600160a01b038116600090815260036020526040902080546000190190555b6001600160a01b038516156110d4576001600160a01b0385166000908152600360205260409020805460010190555b60008481526002602052604080822080546001600160a01b0319166001600160a01b0389811691821790925591518793918516917fddf252ad1be2c89b69c2b068fc378daa952ba7f163c4a11628f55a4df523b3ef91a4949350505050565b6104e7828260405180602001604052806000815250611514565b6001600160a01b03821661117f57604051630b61174360e31b81526001600160a01b0383166004820152602401610511565b6001600160a01b03838116600081815260056020908152604080832094871680845294825291829020805460ff191686151590811790915591519182527f17307eab39ab6107e8899845ad3d59bd9653f200f220920489ca2b5937696c31910160405180910390a3505050565b6001600160a01b0383163b1561131057604051630a85bd0160e11b81526001600160a01b0384169063150b7a029061122e908890889087908790600401611ee6565b6020604051808303816000875af1925050508015611269575060408051601f3d908101601f1916820190925261126691810190611f23565b60015b6112d2573d808015611297576040519150601f19603f3d011682016040523d82523d6000602084013e61129c565b606091505b5080516000036112ca57604051633250574960e11b81526001600160a01b0385166004820152602401610511565b805181602001fd5b6001600160e01b03198116630a85bd0160e11b1461130e57604051633250574960e11b81526001600160a01b0385166004820152602401610511565b505b5050505050565b606060006113248361152c565b600101905060008167ffffffffffffffff811115611344576113446119c2565b6040519080825280601f01601f19166020018201604052801561136e576020820181803683370190505b5090508181016020015b600019016f181899199a1a9b1b9c1cb0b131b232b360811b600a86061a8153600a850494508461137857509392505050565b80806113be57506001600160a01b03821615155b156114805760006113ce84610ff4565b90506001600160a01b038316158015906113fa5750826001600160a01b0316816001600160a01b031614155b801561140d575061140b8184610de2565b155b156114365760405163a9fbf51f60e01b81526001600160a01b0384166004820152602401610511565b811561147e5783856001600160a01b0316826001600160a01b03167f8c5be1e5ebec7d5bd14f71427d1e84f3dd0314c0f7b2291e5b200ac8c7c3b92560405160405180910390a45b505b5050600090815260046020526040902080546001600160a01b0319166001600160a01b0392909216919091179055565b6114bb838383611604565b610a16576001600160a01b0383166114e957604051637e27328960e01b815260048101829052602401610511565b60405163177e802f60e01b81526001600160a01b038316600482015260248101829052604401610511565b61151e838361166a565b610a163360008585856111ec565b60008072184f03e93ff9f4daa797ed6e38ed64bf6a1f0160401b831061156b5772184f03e93ff9f4daa797ed6e38ed64bf6a1f0160401b830492506040015b6d04ee2d6d415b85acef81000000008310611597576d04ee2d6d415b85acef8100000000830492506020015b662386f26fc1000083106115b557662386f26fc10000830492506010015b6305f5e10083106115cd576305f5e100830492506008015b61271083106115e157612710830492506004015b606483106115f3576064830492506002015b600a831061041b5760010192915050565b60006001600160a01b038316158015906116625750826001600160a01b0316846001600160a01b0316148061163e575061163e8484610de2565b8061166257506000828152600460205260409020546001600160a01b038481169116145b949350505050565b6001600160a01b03821661169457604051633250574960e11b815260006004820152602401610511565b60006116a28383600061103a565b90506001600160a01b03811615610a16576040516339e3563760e11b815260006004820152602401610511565b6001600160e01b0319811681146116e557600080fd5b50565b6000602082840312156116fa57600080fd5b8135610ddb816116cf565b60005b83811015611720578181015183820152602001611708565b50506000910152565b60008151808452611741816020860160208601611705565b601f01601f19169290920160200192915050565b602081526000610ddb6020830184611729565b60006020828403121561177a57600080fd5b5035919050565b6001600160a01b03811681146116e557600080fd5b600080604083850312156117a957600080fd5b82356117b481611781565b946020939093013593505050565b6000806000606084860312156117d757600080fd5b83356117e281611781565b925060208401356117f281611781565b929592945050506040919091013590565b60008083601f84011261181557600080fd5b50813567ffffffffffffffff81111561182d57600080fd5b60208301915083602082850101111561184557600080fd5b9250929050565b6000806000806000806060878903121561186557600080fd5b863567ffffffffffffffff8082111561187d57600080fd5b6118898a838b01611803565b909850965060208901359150808211156118a257600080fd5b6118ae8a838b01611803565b909650945060408901359150808211156118c757600080fd5b506118d489828a01611803565b979a9699509497509295939492505050565b600080600080606085870312156118fc57600080fd5b8435935060208501359250604085013567ffffffffffffffff81111561192157600080fd5b61192d87828801611803565b95989497509550505050565b60006020828403121561194b57600080fd5b8135610ddb81611781565b6000806040838503121561196957600080fd5b82359150602083013561197b81611781565b809150509250929050565b80151581146116e557600080fd5b600080604083850312156119a757600080fd5b82356119b281611781565b9150602083013561197b81611986565b634e487b7160e01b600052604160045260246000fd5b604051601f8201601f1916810167ffffffffffffffff81118282101715611a0157611a016119c2565b604052919050565b600067ffffffffffffffff821115611a2357611a236119c2565b50601f01601f191660200190565b60008060008060808587031215611a4757600080fd5b8435611a5281611781565b93506020850135611a6281611781565b925060408501359150606085013567ffffffffffffffff811115611a8557600080fd5b8501601f81018713611a9657600080fd5b8035611aa9611aa482611a09565b6119d8565b818152886020838501011115611abe57600080fd5b8160208401602083013760006020838301015280935050505092959194509250565b60008060408385031215611af357600080fd5b8235611afe81611781565b9150602083013561197b81611781565b634e487b7160e01b600052602160045260246000fd5b60e081526000611b3760e083018a611729565b8281036020840152611b49818a611729565b90508281036040840152611b5d8189611729565b6001600160a01b0388811660608601528716608085015260a0840186905291505060038310611b9c57634e487b7160e01b600052602160045260246000fd5b8260c083015298975050505050505050565b600181811c90821680611bc257607f821691505b602082108103611be257634e487b7160e01b600052602260045260246000fd5b50919050565b600082601f830112611bf957600080fd5b8151611c07611aa482611a09565b818152846020838601011115611c1c57600080fd5b611662826020830160208701611705565b600080600060608486031215611c4257600080fd5b8351611c4d81611986565b602085015190935067ffffffffffffffff80821115611c6b57600080fd5b611c7787838801611be8565b93506040860151915080821115611c8d57600080fd5b50611c9a86828701611be8565b9150509250925092565b600060208284031215611cb657600080fd5b5051919050565b600060208284031215611ccf57600080fd5b8151610ddb81611781565b634e487b7160e01b600052601160045260246000fd5b600060018201611d0257611d02611cda565b5060010190565b601f821115610a16576000816000526020600020601f850160051c81016020861015611d325750805b601f850160051c820191505b8181101561130e57828155600101611d3e565b815167ffffffffffffffff811115611d6b57611d6b6119c2565b611d7f81611d798454611bae565b84611d09565b602080601f831160018114611db45760008415611d9c5750858301515b600019600386901b1c1916600185901b17855561130e565b600085815260208120601f198616915b82811015611de357888601518255948401946001909101908401611dc4565b5085821015611e015787850151600019600388901b60f8161c191681555b5050505050600190811b01905550565b60208152816020820152818360408301376000818301604090810191909152601f909201601f19160101919050565b634e487b7160e01b600052603260045260246000fd5b60ff818116838216019081111561041b5761041b611cda565b60008085851115611e7f57600080fd5b83861115611e8c57600080fd5b5050820193919092039150565b8035602083101561041b57600019602084900360031b1b1692915050565b60008351611ec9818460208801611705565b835190830190611edd818360208801611705565b01949350505050565b6001600160a01b0385811682528416602082015260408101839052608060608201819052600090611f1990830184611729565b9695505050505050565b600060208284031215611f3557600080fd5b8151610ddb816116cf56fea164736f6c6343000818000a",
  "linkReferences": {},
  "deployedLinkReferences": {}
}