{
  "_format": "hh-sol-artifact-1",
  "contractName": "ContentManagement",
  "sourceName": "blockchain/contracts/ContentManagement.sol",
  "abi": [
    {
      "inputs": [
        {
          "internalType": "address",
          "name": "_didRegistryAddress",
          "type": "address"
        }
      ],
      "stateMutability": "nonpayable",
      "type": "constructor"
    },
    {
      "anonymous": false,
      "inputs": [
        {
          "indexed": true,
          "internalType": "uint256",
          "name": "postId",
          "type": "uint256"
        },
        {
          "indexed": true,
          "internalType": "address",
          "name": "author",
          "type": "address"
        },
        {
          "indexed": false,
          "internalType": "string",
          "name": "cid",
          "type": "string"
        }
      ],
      "name": "NewIPFSAnchor",
      "type": "event"
    },
    {
      "anonymous": false,
      "inputs": [
        {
          "indexed": true,
          "internalType": "uint256",
          "name": "postId",
          "type": "uint256"
        },
        {
          "indexed": true,
          "internalType": "address",
          "name": "author",
          "type": "address"
        }
      ],
      "name": "NewOnChainPost",
      "type": "event"
    },
    {
      "inputs": [],
      "name": "didRegistry",
      "outputs": [
        {
          "internalType": "contract DIDRegistry",
          "name": "",
          "type": "address"
        }
      ],
      "stateMutability": "view",
      "type": "function"
    },
    {
      "inputs": [],
      "name": "getIPFSAnchorCount",
      "outputs": [
        {
          "internalType": "uint256",
          "name": "",
          "type": "uint256"
        }
      ],
      "stateMutability": "view",
      "type": "function"
    },
    {
      "inputs": [],
      "name": "getOnChainPostCount",
      "outputs": [
        {
          "internalType": "uint256",
          "name": "",
          "type": "uint256"
        }
      ],
      "stateMutability": "view",
      "type": "function"
    },
    {
      "inputs": [
        {
          "internalType": "uint256",
          "name": "",
          "type": "uint256"
        }
      ],
      "name": "ipfsAnchors",
      "outputs": [
        {
          "internalType": "string",
          "name": "cid",
          "type": "string"
        },
        {
          "internalType": "address",
          "name": "author",
          "type": "address"
        },
        {
          "internalType": "uint256",
          "name": "timestamp",
          "type": "uint256"
        }
      ],
      "stateMutability": "view",
      "type": "function"
    },
    {
      "inputs": [
        {
          "internalType": "uint256",
          "name": "",
          "type": "uint256"
        }
      ],
      "name": "onChainPosts",
      "outputs": [
        {
          "internalType": "string",
          "name": "content",
          "type": "string"
        },
        {
          "internalType": "address",
          "name": "author",
          "type": "address"
        },
        {
          "internalType": "uint256",
          "name": "timestamp",
          "type": "uint256"
        }
      ],
      "stateMutability": "view",
      "type": "function"
    },
    {
      "inputs": [
        {
          "internalType": "string",
          "name": "cid",
          "type": "string"
        },
        {
          "internalType": "bytes",
          "name": "authorSignature",
          "type": "bytes"
        }
      ],
      "name": "postIPFSAnchor",
      "outputs": [],
      "stateMutability": "nonpayable",
      "type": "function"
    },
    {
      "inputs": [
        {
          "internalType": "string",
          "name": "content",
          "type": "string"
        }
      ],
      "name": "postOnChain",
      "outputs": [],
      "stateMutability": "nonpayable",
      "type": "function"
    }
  ],
  "bytecode": "0x608060405234801561001057600080fd5b50604051610cb6380380610cb683398101604081905261002f91610054565b600080546001600160a01b0319166001600160a01b0392909216919091179055610084565b60006020828403121561006657600080fd5b81516001600160a01b038116811461007d57600080fd5b9392505050565b610c23806100936000396000f3fe608060405234801561001057600080fd5b506004361061007d5760003560e01c806387fd4e111161005b57806387fd4e11146100d9578063970bd20d146100fb578063c971d78b14610103578063efaf975c1461011657600080fd5b8063353f908214610082578063577f9fb1146100995780635cd41a92146100c4575b600080fd5b6002545b6040519081526020015b60405180910390f35b6000546100ac906001600160a01b031681565b6040516001600160a01b039091168152602001610090565b6100d76100d2366004610790565b610129565b005b6100ec6100e73660046107d2565b61031c565b6040516100909392919061080f565b600454610086565b6100ec6101113660046107d2565b6103d0565b6100d761012436600461085a565b6103eb565b6000805460405163543a185d60e11b81523360048201526001600160a01b039091169063a87430ba90602401600060405180830381865afa158015610172573d6000803e3d6000fd5b505050506040513d6000823e601f3d908101601f1916820160405261019a9190810190610964565b50509050806101e95760405162461bcd60e51b8152602060048201526016602482015275155cd95c881a5cc81b9bdd081c9959da5cdd195c995960521b60448201526064015b60405180910390fd5b61011882111561023b5760405162461bcd60e51b815260206004820181905260248201527f4f6e2d636861696e20636f6e74656e742069732073697a652d6c696d6974656460448201526064016101e0565b600060046000815461024c906109f6565b91829055506040805160806020601f88018190040282018101909252606081018681529293509182918790879081908501838280828437600092018290525093855250503360208085019190915242604094850152858352600390525020815181906102b89082610a9a565b5060208201516001820180546001600160a01b0319166001600160a01b0390921691909117905560409182015160029091015551339082907f53fefc03888449d7c77681f5a7974c335bf9f160c51060969bcff79d302d52fe90600090a350505050565b60016020526000908152604090208054819061033790610a0f565b80601f016020809104026020016040519081016040528092919081815260200182805461036390610a0f565b80156103b05780601f10610385576101008083540402835291602001916103b0565b820191906000526020600020905b81548152906001019060200180831161039357829003601f168201915b50505050600183015460029093015491926001600160a01b031691905083565b60036020526000908152604090208054819061033790610a0f565b6000805460405163543a185d60e11b81523360048201526001600160a01b039091169063a87430ba90602401600060405180830381865afa158015610434573d6000803e3d6000fd5b505050506040513d6000823e601f3d908101601f1916820160405261045c9190810190610964565b50509050806104a65760405162461bcd60e51b8152602060048201526016602482015275155cd95c881a5cc81b9bdd081c9959da5cdd195c995960521b60448201526064016101e0565b600085856040516020016104bb929190610b5a565b60405160208183030381529060405280519060200120905060006104e0828686610641565b90506001600160a01b038116331461054b5760405162461bcd60e51b815260206004820152602860248201527f496e76616c6964207369676e617475726520666f7220636f6e74656e74206175604482015267074686f72736869760c41b60648201526084016101e0565b600060026000815461055c906109f6565b91829055506040805160806020601f8c018190040282018101909252606081018a81529293509182918b908b9081908501838280828437600092018290525093855250503360208085019190915242604094850152858352600190525020815181906105c89082610a9a565b5060208201516001820180546001600160a01b0319166001600160a01b0390921691909117905560409182015160029091015551339082907f7b72401ea431461cf069a1bb801f40ace37387222c1f2fdc58af59b05831b7609061062f908c908c90610b6a565b60405180910390a35050505050505050565b6000806001858585604081811061065a5761065a610b99565b61066c92013560f81c9050601b610baf565b61067a60206000888a610bce565b61068391610bf8565b61069160406020898b610bce565b61069a91610bf8565b6040805160008152602081018083529590955260ff909316928401929092526060830152608082015260a0016020604051602081039080840390855afa1580156106e8573d6000803e3d6000fd5b5050604051601f1901519150506001600160a01b03811661073f5760405162461bcd60e51b8152602060048201526011602482015270496e76616c6964207369676e617475726560781b60448201526064016101e0565b949350505050565b60008083601f84011261075957600080fd5b50813567ffffffffffffffff81111561077157600080fd5b60208301915083602082850101111561078957600080fd5b9250929050565b600080602083850312156107a357600080fd5b823567ffffffffffffffff8111156107ba57600080fd5b6107c685828601610747565b90969095509350505050565b6000602082840312156107e457600080fd5b5035919050565b60005b838110156108065781810151838201526020016107ee565b50506000910152565b606081526000845180606084015261082e8160808501602089016107eb565b6001600160a01b039490941660208301525060408101919091526080601f909201601f19160101919050565b6000806000806040858703121561087057600080fd5b843567ffffffffffffffff8082111561088857600080fd5b61089488838901610747565b909650945060208701359150808211156108ad57600080fd5b506108ba87828801610747565b95989497509550505050565b634e487b7160e01b600052604160045260246000fd5b600082601f8301126108ed57600080fd5b815167ffffffffffffffff80821115610908576109086108c6565b604051601f8301601f19908116603f01168101908282118183101715610930576109306108c6565b8160405283815286602085880101111561094957600080fd5b61095a8460208301602089016107eb565b9695505050505050565b60008060006060848603121561097957600080fd5b8351801515811461098957600080fd5b602085015190935067ffffffffffffffff808211156109a757600080fd5b6109b3878388016108dc565b935060408601519150808211156109c957600080fd5b506109d6868287016108dc565b9150509250925092565b634e487b7160e01b600052601160045260246000fd5b600060018201610a0857610a086109e0565b5060010190565b600181811c90821680610a2357607f821691505b602082108103610a4357634e487b7160e01b600052602260045260246000fd5b50919050565b601f821115610a95576000816000526020600020601f850160051c81016020861015610a725750805b601f850160051c820191505b81811015610a9157828155600101610a7e565b5050505b505050565b815167ffffffffffffffff811115610ab457610ab46108c6565b610ac881610ac28454610a0f565b84610a49565b602080601f831160018114610afd5760008415610ae55750858301515b600019600386901b1c1916600185901b178555610a91565b600085815260208120601f198616915b82811015610b2c57888601518255948401946001909101908401610b0d565b5085821015610b4a5787850151600019600388901b60f8161c191681555b5050505050600190811b01905550565b8183823760009101908152919050565b60208152816020820152818360408301376000818301604090810191909152601f909201601f19160101919050565b634e487b7160e01b600052603260045260246000fd5b60ff8181168382160190811115610bc857610bc86109e0565b92915050565b60008085851115610bde57600080fd5b83861115610beb57600080fd5b5050820193919092039150565b80356020831015610bc857600019602084900360031b1b169291505056fea164736f6c6343000818000a",
  "linkReferences": {},
  "deployedLinkReferences": {}
}