{
  "_format": "hh-sol-artifact-1",
  "contractName": "AppToken",
  "sourceName": "blockchain/contracts/AppToken.sol",
  "abi": [
    {
      "inputs": [],
      "stateMutability": "nonpayable",
      "type": "constructor"
    },
    {
      "inputs": [
        {
          "internalType": "address",
          "name": "spender",
          "type": "address"
        },
        {
          "internalType": "uint256",
          "name": "allowance",
          "type": "uint256"
        },
        {
          "internalType": "uint256",
          "name": "needed",
          "type": "uint256"
        }
      ],
      "name": "ERC20InsufficientAllowance",
      "type": "error"
    },
    {
      "inputs": [
        {
          "internalType": "address",
          "name": "sender",
          "type": "address"
        },
        {
          "internalType": "uint256",
          "name": "balance",
          "type": "uint256"
        },
        {
          "internalType": "uint256",
          "name": "needed",
          "type": "uint256"
        }
      ],
      "name": "ERC20InsufficientBalance",
      "type": "error"
    },
    {
      "inputs": [
        {
          "internalType": "address",
          "name": "approver",
          "type": "address"
        }
      ],
      "name": "ERC20InvalidApprover",
      "type": "error"
    },
    {
      "inputs": [
        {
          "internalType": "address",
          "name": "receiver",
          "type": "address"
        }
      ],
      "name": "ERC20InvalidReceiver",
      "type": "error"
    },
    {
      "inputs": [
        {
          "internalType": "address",
          "name": "sender",
          "type": "address"
        }
      ],
      "name": "ERC20InvalidSender",
      "type": "error"
    },
    {
      "inputs": [
        {
          "internalType": "address",
          "name": "spender",
          "type": "address"
        }
      ],
      "name": "ERC20InvalidSpender",
      "type": "error"
    },
    {
      "inputs": [],
      "name": "InvalidInitialization",
      "type": "error"
    },
    {
      "inputs": [],
      "name": "NotInitializing",
      "type": "error"
    },
    {
      "inputs": [
        {
          "internalType": "address",
          "name": "owner",
          "type": "address"
        }
      ],
      "name": "OwnableInvalidOwner",
      "type": "error"
    },
    {
      "inputs": [
        {
          "internalType": "address",
          "name": "account",
          "type": "address"
        }
      ],
      "name": "OwnableUnauthorizedAccount",
      "type": "error"
    },
    {
      "anonymous": false,
      "inputs": [
        {
          "indexed": true,
          "internalType": "address",
          "name": "owner",
          "type": "address"
        },
        {
          "indexed": true,
          "internalType": "address",
          "name": "spender",
          "type": "address"
        },
        {
          "indexed": false,
          "internalType": "uint256",
          "name": "value",
          "type": "uint256"
        }
      ],
      "name": "Approval",
      "type": "event"
    },
    {
      "anonymous": false,
      "inputs": [
        {
          "indexed": false,
          "internalType": "uint64",
          "name": "version",
          "type": "uint64"
        }
      ],
      "name": "Initialized",
      "type": "event"
    },
    {
      "anonymous": false,
      "inputs": [
        {
          "indexed": true,
          "internalType": "address",
          "name": "previousOwner",
          "type": "address"
        },
        {
          "indexed": true,
          "internalType": "address",
          "name": "newOwner",
          "type": "address"
        }
      ],
      "name": "OwnershipTransferred",
      "type": "event"
    },
    {
      "anonymous": false,
      "inputs": [
        {
          "indexed": true,
          "internalType": "address",
          "name": "from",
          "type": "address"
        },
        {
          "indexed": true,
          "internalType": "address",
          "name": "to",
          "type": "address"
        },
        {
          "indexed": false,
          "internalType": "uint256",
          "name": "value",
          "type": "uint256"
        }
      ],
      "name": "Transfer",
      "type": "event"
    },
    {
      "inputs": [
        {
          "internalType": "address",
          "name": "owner",
          "type": "address"
        },
        {
          "internalType": "address",
          "name": "spender",
          "type": "address"
        }
      ],
      "name": "allowance",
      "outputs": [
        {
          "internalType": "uint256",
          "name": "",
          "type": "uint256"
        }
      ],
      "stateMutability": "view",
      "type": "function"
    },
    {
      "inputs": [
        {
          "internalType": "address",
          "name": "spender",
          "type": "address"
        },
        {
          "internalType": "uint256",
          "name": "value",
          "type": "uint256"
        }
      ],
      "name": "approve",
      "outputs": [
        {
          "internalType": "bool",
          "name": "",
          "type": "bool"
        }
      ],
      "stateMutability": "nonpayable",
      "type": "function"
    },
    {
      "inputs": [
        {
          "internalType": "address",
          "name": "account",
          "type": "address"
        }
      ],
      "name": "balanceOf",
      "outputs": [
        {
          "internalType": "uint256",
          "name": "",
          "type": "uint256"
        }
      ],
      "stateMutability": "view",
      "type": "function"
    },
    {
      "inputs": [
        {
          "internalType": "uint256",
          "name": "amount",
          "type": "uint256"
        }
      ],
      "name": "burn",
      "outputs": [],
      "stateMutability": "nonpayable",
      "type": "function"
    },
    {
      "inputs": [
        {
          "internalType": "address",
          "name": "account",
          "type": "address"
        },
        {
          "internalType": "uint256",
          "name": "amount",
          "type": "uint256"
        }
      ],
      "name": "burnFrom",
      "outputs": [],
      "stateMutability": "nonpayable",
      "type": "function"
    },
    {
      "inputs": [],
      "name": "decimals",
      "outputs": [
        {
          "internalType": "uint8",
          "name": "",
          "type": "uint8"
        }
      ],
      "stateMutability": "view",
      "type": "function"
    },
    {
      "inputs": [
        {
          "internalType": "string",
          "name": "name",
          "type": "string"
        },
        {
          "internalType": "string",
          "name": "symbol",
          "type": "string"
        },
        {
          "internalType": "address",
          "name": "initialOwner",
          "type": "address"
        },
        {
          "internalType": "uint256",
          "name": "initialSupply",
          "type": "uint256"
        }
      ],
      "name": "initialize",
      "outputs": [],
      "stateMutability": "nonpayable",
      "type": "function"
    },
    {
      "inputs": [
        {
          "internalType": "address",
          "name": "to",
          "type": "address"
        },
        {
          "internalType": "uint256",
          "name": "amount",
          "type": "uint256"
        }
      ],
      "name": "mint",
      "outputs": [],
      "stateMutability": "nonpayable",
      "type": "function"
    },
    {
      "inputs": [],
      "name": "name",
      "outputs": [
        {
          "internalType": "string",
          "name": "",
          "type": "string"
        }
      ],
      "stateMutability": "view",
      "type": "function"
    },
    {
      "inputs": [],
      "name": "owner",
      "outputs": [
        {
          "internalType": "address",
          "name": "",
          "type": "address"
        }
      ],
      "stateMutability": "view",
      "type": "function"
    },
    {
      "inputs": [],
      "name": "renounceOwnership",
      "outputs": [],
      "stateMutability": "nonpayable",
      "type": "function"
    },
    {
      "inputs": [],
      "name": "symbol",
      "outputs": [
        {
          "internalType": "string",
          "name": "",
          "type": "string"
        }
      ],
      "stateMutability": "view",
      "type": "function"
    },
    {
      "inputs": [],
      "name": "totalSupply",
      "outputs": [
        {
          "internalType": "uint256",
          "name": "",
          "type": "uint256"
        }
      ],
      "stateMutability": "view",
      "type": "function"
    },
    {
      "inputs": [
        {
          "internalType": "address",
          "name": "to",
          "type": "address"
        },
        {
          "internalType": "uint256",
          "name": "value",
          "type": "uint256"
        }
      ],
      "name": "transfer",
      "outputs": [
        {
          "internalType": "bool",
          "name": "",
          "type": "bool"
        }
      ],
      "stateMutability": "nonpayable",
      "type": "function"
    },
    {
      "inputs": [
        {
          "internalType": "address",
          "name": "from",
          "type": "address"
        },
        {
          "internalType": "address",
          "name": "to",
          "type": "address"
        },
        {
          "internalType": "uint256",
          "name": "value",
          "type": "uint256"
        }
      ],
      "name": "transferFrom",
      "outputs": [
        {
          "internalType": "bool",
          "name": "",
          "type": "bool"
        }
      ],
      "stateMutability": "nonpayable",
      "type": "function"
    },
    {
      "inputs": [
        {
          "internalType": "address",
          "name": "newOwner",
          "type": "address"
        }
      ],
      "name": "transferOwnership",
      "outputs": [],
      "stateMutability": "nonpayable",
      "type": "function"
    }
  ],
  "bytecode": "0x608080604052346100b8577ff0c57e16840df040f15088dc2f81fe391c3923bec73e23a9662efc9c229c6a009081549060ff8260401c166100a957506001600160401b036002600160401b031982821601610064575b60405161106890816100be8239f35b6001600160401b031990911681179091556040519081527fc7f505b2f371ae2175ee4913f4499e1f2633a7b5936321eed1cdaeb6115181d290602090a1388080610055565b63f92ee8a960e01b8152600490fd5b600080fdfe6080604081815260048036101561001557600080fd5b600092833560e01c90816306fdde0314610a6357508063095ea7b3146109bb57806318160ddd1461097d57806323b872dd1461088a578063313ce5671461086e57806340c10f191461084157806342966c681461082357806370a08231146107de578063715018a61461077457806379cc67901461074f5780638da5cb5b1461071957806395d89b4114610615578063a9059cbb146105e4578063dd62ed3e14610599578063f2fde38b146105695763f542033f146100d357600080fd5b346105655760803660031901126105655767ffffffffffffffff908035828111610561576101049036908301610bd9565b60243583811161055d5761011b9036908401610bd9565b604435906001600160a01b0382168203610559577ff0c57e16840df040f15088dc2f81fe391c3923bec73e23a9662efc9c229c6a009485549460ff86891c16159482871696871580610552575b60018099149081610548575b15908161053f575b5061052f5767ffffffffffffffff1981168817895586610510575b506101a0610fb1565b6101a8610fb1565b80518381116104fd57807f52c63247e1f47db19d5ce0460030c497f067ca4cebf71ba98eeadabe20bace03926101de8454610c30565b601f811161048b575b506020908d601f841160011461040e5792610403575b5050600019600383901b1c191690881b1790555b82519182116103f05750807f52c63247e1f47db19d5ce0460030c497f067ca4cebf71ba98eeadabe20bace04926102488454610c30565b601f8111610381575b50602090601f8311600114610304578a926102f9575b5050600019600383901b1c191690851b1790555b610283610fb1565b61028b610fb1565b61029481610ca3565b6064356102e6575b506102a5578380f35b7fc7f505b2f371ae2175ee4913f4499e1f2633a7b5936321eed1cdaeb6115181d29260209268ff000000000000000019815416905551908152a13880808380f35b6102f39060643590610e3e565b3861029c565b015190503880610267565b848b528793507f46a2803e59a4de4e7a4c574b1243f25977ac4c77d5a1a4a609b5394cebb4a2aa9190601f1984168c5b81811061036957508411610350575b505050811b01905561027b565b015160001960f88460031b161c19169055388080610343565b8284015185558a969094019360209384019301610334565b909150838a527f46a2803e59a4de4e7a4c574b1243f25977ac4c77d5a1a4a609b5394cebb4a2aa601f840160051c810191602085106103e6575b84939291601f8a920160051c01915b8281106103d8575050610251565b8c81558594508991016103ca565b90915081906103bb565b634e487b7160e01b895260419052602488fd5b0151905038806101fd565b91908b9450601f1984168684527f2ae08a8e29253f69ac5d979a101956ab8f8d9d7ded63fa7a83b16fc47648eab0935b8181106104735750841161045a575b505050811b019055610211565b015160001960f88460031b161c1916905538808061044d565b8284015185558d96909401936020938401930161043e565b909150838d527f2ae08a8e29253f69ac5d979a101956ab8f8d9d7ded63fa7a83b16fc47648eab0601f840160051c810191602085106104f3575b8e85949392601f8e930160051c0192905b8382106104e5575050506101e7565b81558594508c91018f6104d6565b90915081906104c5565b634e487b7160e01b8b526041835260248bfd5b68ffffffffffffffffff19166801000000000000000117885538610197565b895163f92ee8a960e01b81528390fd5b9050153861017c565b303b159150610174565b5086610168565b8680fd5b8580fd5b8480fd5b8280fd5b833461059657602036600319011261059657610593610586610b70565b61058e610e05565b610ca3565b80f35b80fd5b5050346105e057806003193601126105e057806020926105b7610b70565b6105c86105c2610b8b565b91610c6a565b6001600160a01b039091168252845220549051908152f35b5080fd5b5050346105e057806003193601126105e05760209061060e610604610b70565b6024359033610d17565b5160018152f35b828434610596578060031936011261059657815190807f52c63247e1f47db19d5ce0460030c497f067ca4cebf71ba98eeadabe20bace04805461065781610c30565b808652926020926001928084169081156106ea5750600114610693575b61068f8789610685828a0383610ba1565b5191829182610b27565b0390f35b815293507f46a2803e59a4de4e7a4c574b1243f25977ac4c77d5a1a4a609b5394cebb4a2aa5b8385106106d7575050505081016020016106858261068f8680610674565b80548686018401529382019381016106b9565b91505061068f9795508693506020925061068594915060ff191682840152151560051b82010192948680610674565b5050346105e057816003193601126105e0576000805160206110138339815191525490516001600160a01b039091168152602090f35b5050346105e0573660031901126105965761059361076b610b70565b60243590610ee2565b833461059657806003193601126105965761078d610e05565b60008051602061101383398151915280546001600160a01b0319811690915581906001600160a01b03167f8be0079c531659141344cd1fd0a4f28419497f9722a3daafe3b4186f6b6457e08280a380f35b5050346105e05760203660031901126105e05760209181906001600160a01b03610806610b70565b168152600080516020610ff3833981519152845220549051908152f35b8382346105e05760203660031901126105e057610593903533610ee2565b5050346105e0573660031901126105965761059361085d610b70565b610865610e05565b60243590610e3e565b5050346105e057816003193601126105e0576020905160128152f35b508234610596576060366003190112610596576108a5610b70565b6108ad610b8b565b91604435936108bb83610c6a565b338352602052858220549060001982106108de575b60208761060e888888610d17565b858210610952576001600160a01b0384161561093b57331561092457509161060e93918686602098979561091185610c6a565b3385528a520391205591939481936108d0565b8651634a1406b160e11b8152908101839052602490fd5b865163e602df0560e01b8152908101839052602490fd5b8651637dc7a0d960e11b81523391810191825260208201929092526040810186905281906060010390fd5b5050346105e057816003193601126105e0576020907f52c63247e1f47db19d5ce0460030c497f067ca4cebf71ba98eeadabe20bace02549051908152f35b50346105655781600319360112610565576109d4610b70565b602435903315610a4c576001600160a01b0316918215610a35575080836020956109fd33610c6a565b8582528752205582519081527f8c5be1e5ebec7d5bd14f71427d1e84f3dd0314c0f7b2291e5b200ac8c7c3b925843392a35160018152f35b8351634a1406b160e11b8152908101859052602490fd5b835163e602df0560e01b8152808401869052602490fd5b83908534610596578060031936011261059657807f52c63247e1f47db19d5ce0460030c497f067ca4cebf71ba98eeadabe20bace038054610aa381610c30565b808652926020926001928084169081156106ea5750600114610ad05761068f8789610685828a0383610ba1565b815293507f2ae08a8e29253f69ac5d979a101956ab8f8d9d7ded63fa7a83b16fc47648eab05b838510610b14575050505081016020016106858261068f8680610674565b8054868601840152938201938101610af6565b6020808252825181830181905290939260005b828110610b5c57505060409293506000838284010152601f8019910116010190565b818101860151848201604001528501610b3a565b600435906001600160a01b0382168203610b8657565b600080fd5b602435906001600160a01b0382168203610b8657565b90601f8019910116810190811067ffffffffffffffff821117610bc357604052565b634e487b7160e01b600052604160045260246000fd5b81601f82011215610b865780359067ffffffffffffffff8211610bc35760405192610c0e601f8401601f191660200185610ba1565b82845260208383010111610b8657816000926020809301838601378301015290565b90600182811c92168015610c60575b6020831014610c4a57565b634e487b7160e01b600052602260045260246000fd5b91607f1691610c3f565b6001600160a01b031660009081527f52c63247e1f47db19d5ce0460030c497f067ca4cebf71ba98eeadabe20bace016020526040902090565b6001600160a01b03908116908115610cfe5760008051602061101383398151915280546001600160a01b031981168417909155167f8be0079c531659141344cd1fd0a4f28419497f9722a3daafe3b4186f6b6457e0600080a3565b604051631e4fbdf760e01b815260006004820152602490fd5b916001600160a01b03808416928315610dec5716928315610dd357600090838252600080516020610ff383398151915280602052604083205491848310610da0575082847fddf252ad1be2c89b69c2b068fc378daa952ba7f163c4a11628f55a4df523b3ef959360409388602097528652038282205586815220818154019055604051908152a3565b60405163391434e360e21b81526001600160a01b0391909116600482015260248101929092525060448101839052606490fd5b60405163ec442f0560e01b815260006004820152602490fd5b604051634b637e8f60e11b815260006004820152602490fd5b600080516020611013833981519152546001600160a01b03163303610e2657565b60405163118cdaa760e01b8152336004820152602490fd5b6001600160a01b0316908115610dd3577f52c63247e1f47db19d5ce0460030c497f067ca4cebf71ba98eeadabe20bace02805490828201809211610ecc576000927fddf252ad1be2c89b69c2b068fc378daa952ba7f163c4a11628f55a4df523b3ef9260209255848452600080516020610ff3833981519152825260408420818154019055604051908152a3565b634e487b7160e01b600052601160045260246000fd5b91906001600160a01b038316908115610dec5781600052600080516020610ff38339815191528060205260406000205494828610610f805750817fddf252ad1be2c89b69c2b068fc378daa952ba7f163c4a11628f55a4df523b3ef926000959660209386885284520360408620557f52c63247e1f47db19d5ce0460030c497f067ca4cebf71ba98eeadabe20bace02818154039055604051908152a3565b60405163391434e360e21b81526001600160a01b039190911660048201526024810186905260448101839052606490fd5b60ff7ff0c57e16840df040f15088dc2f81fe391c3923bec73e23a9662efc9c229c6a005460401c1615610fe057565b604051631afcd79f60e31b8152600490fdfe52c63247e1f47db19d5ce0460030c497f067ca4cebf71ba98eeadabe20bace009016d09d72d40fdae2fd8ceac6b6234c7706214fd39c1cd1e609a0528c199300a2646970667358221220a2ba92af9f8e37de6c49fc163b6f698e940d512574656800013a4b26d2b561c064736f6c63430008180033",
  "linkReferences": {},
  "deployedLinkReferences": {}
}